S07B0000443A5C747579614F535C747579612D7A69676265652D73646B2D6D6732315C6170705C73696D706C655F636F6E746163745F73656E736F725C45465233324D47323141303230463736385C6275696C645C6578655C73696D706C655F636F6E746163745F73656E736F725F51494F5F312E302E302E733337C3
S31500000000801000203D2400006F020000151600003D
S3150000001087090000931500009B15000000000000F2
S315000000200000000000000000A00000001316000001
S3150000003027180000D4000000D3190000C71A0000DA
S31500000040800000000000000000000000000000002A
S31500000050000000000000000000000000000000009A
S31500000060000000000000000000000000000000008A
S31500000070000000000000000000000000000000007A
S315000000804546523332000000010000000200000025
S315000000900000050000C0040000C0090000A0010027
S315000000A007B0CD5E010000000400080164240000D2
S315000000B00040000000000C00F7000100A51C000035
S315000000C0A91C000085060000271500005915000030
S315000000D01401000013B779FAC925DDB7ADF3CFE0F7
S315000000E0F1B614B801010000000000006024000011
S315000000F040000000040008010000000000000000AD
S3150000010000000000000000000000000000000000E9
S31500000110000000000001000071020000C70200009C
S31500000120F50200001303000059030000530200000B
S31500000130390200006902000079030000A1030000F3
S31500000140FD030000910900009B090000B9090000A9
S31500000150ED090000024870470248704702487047A0
S315000001604CE30B006CE30B00C0E30B0038B500BF9B
S315000001702FA3D3E90045E2B00221CDE90045684648
S3150000018000F05AF800284FD100245DF8243013F10E
S31500000190010F46D04FF4C07202A9184600F0ECF8E1
S315000001A0002102A800F0FCF840F201218842F7D0B5
S315000001B040F20322904232D19DF8080000F003007D
S315000001C002282CD09DF8080041070BD50C9800F0AA
S315000001D005FB38B15E9800F077F918B100F0CEFB58
S315000001E000F02CFB9DF8080081070FD52820026837
S315000001F0039993688B4209D25E9800F079F970B141
S3150000020000F0BCFB0B9900F0B1FA08E09DF808007D
S31500000210C10704D505995E9800F08CF930B940F213
S315000002200540641C012CB0D963B030BD0020FBE74B
S31500000230FFFFFFFF000000000022026001224FF0D6
S31500000240FF3302E040F82230521C8A42FAD30020E3
S3150000025070470068002818BF10F1010F02D040F265
S31500000260045070470020704740F202507047FEE786
S3150000027010B504000CD04FF480302060002161607E
S315000002803C48027822724068E06000F07DFB206105
S3150000029010BD78B504460D4604F5B876A1B0B16830
S315000002A03068802301AA00F025F80095802301AA72
S315000002B0214604F12C0000F03FFDF060B06880306C
S315000002C0B06022B070BD024640F20140002900D164
S315000002D0704710B5274B5C68A24203D300220A6020
S315000002E04A6010BD03EBC20082680A60C0684860BD
S315000002F0002010BD38B500F021F800D326E000F04C
S3150000030017F800D225E09B68C018BDE8384000F019
S3150000031044BB38B500F012F800D317E000F008F837
S3150000032000D216E09B68C018BDE8384000F044BB18
S3150000033003EBC403DC681518AC4270470446084654
S3150000034011461A460B4B5D68AC42704740F20140BD
S3150000035032BD40F2024032BD06494A68904202D39D
S3150000036040F20140704701EBC000C168806800F0B0
S315000003703DBB0000880000003EB504460D46114610
S31500000380284601F0D0F850B969462046FFF79BFF92
S3150000039028B905F5B87004600199416000203EBD9A
S315000003A038B584B004460D466846102101F0F2F8CF
S315000003B0029504F5BA75A86888B9686829688842FC
S315000003C00DD269462046FFF764FFA86800281CBFC7
S315000003D041F2070188420BD140F2012008E0A078E3
S315000003E000281DBFE078002840F2032040F20220DA
S315000003F005B030BD0120187070470000F0B585B01B
S3150000040004460D46164600278DF800700DF10400CF
S3150000041052A100F084F8CDF804D037601C2128469C
S3150000042001F0B8F804F5BA779DF8000080B994F8A1
S31500000430720013280CD0B86850B9786839688842B9
S3150000044006D201A92046FFF724FFEDE705B0F0BD6F
S315000004502078810744BF606830602178C80705D5D9
S315000004601C2204F10801284601F098F89DF80010B6
S31500000470002905BF20780028002040F20640E5E765
S3150000048070B504460D46202304F5827204F1BC01C2
S3150000049004F12C0000F015FC04F5BA76B06850B9EA
S315000004A070683168884206D229462046FFF7F1FE79
S315000004B0F4E7002070BDA07800281CBFE078002873
S315000004C0F7D0012070BD000080B5E4B000F02AF836
S315000004D008B1002009E004208DF811004FEA0D0054
S315000004E022A100F01CF800F021F865B000BD000064
S315000004F010B5E4B0282213689C688C4202D200F042
S3150000050011F808B1002008E002208DF811006846B5
S315000005101AA100F004F800F009F864B010BD10222A
S3150000052001F03CB84FF4C07204A925E7694604A857
S31500000530A6E7000080B5E4B0FFF7F4FF08B100209D
S3150000054009E001208DF811004FEA0D000FA1FFF719
S31500000550E6FFFFF7EBFF65B000BD000000000000FE
S31500000560F5030000F5030000F5030000000000009D
S315000005700000000000000000190600000000000056
S315000005800000000000000000190600000000000046
S31500000590FD0500000000000000000000F8B504465C
S315000005A0600B0D461646B4EB403004BF204601F002
S315000005B005F804F500577F0B7F0304E0384600F08A
S315000005C0FDFF07F5005730198742F7D33246294613
S315000005D02046BDE8F84000F0FFBF38B504460D469A
S315000005E000F038F838B16069012801D0002032BD2A
S315000005F0A069286000E02C60012032BD38B52823B0
S315000006001B681C69A04222BF5B691518AB4202D366
S31500000610BDE83840C2E731BDF8B504460D4616467A
S3150000062000F0ACF92718F0199949884210D24CB954
S3150000063000F0A4F9282109684A6990423CBF08697C
S3150000064000F0BCFF324629463846BDE8F840A5E72B
S31500000650F1BD00007FB504464FEA0D0094A11022BB
S3150000066000F09CFF002046420DEB0605E97B225C6C
S31500000670914205D1401C1028F5D3012004B070BD6D
S315000006800020FBE758B504462268824B606802F1F9
S315000006906042616B9A422BD2282213681A699042F3
S315000006A026D37B4B984223D240320E46914201D349
S315000006B0994205D301F06AF8401E8041C00F52BD31
S315000006C001F064F8B0B93046FFF7C4FF00281CBF3C
S315000006D07069002812D002280CD1B0694FF0FF32A1
S315000006E0001D011B204601F07BF86B49884205D0AE
S315000006F0002052BD2046BDE8524001E0012052BD17
S3150000070030B504469DB0606B01A9FFF766FF50B394
S3150000071028210A6801981369984228BFA04203D38A
S3150000072001465B48814201D300201CE002A801F08B
S315000007306BF801982146021B02A801F06FF802A887
S3150000074001F06EF8019CFFF707FD0546FFF702FD75
S315000007500199203403460095224602A801F064F868
S31500000760401E8041C00F1DB030BD000070B590B076
S3150000077004460D464FF0FF3201F032F8464B9842E0
S3150000078013D168464EA100F055F800F08DF82946C1
S3150000079000F08BF8684601F0FDF8404E3068C00264
S315000007A0FCD5306910F4702F02D0002010B070BD57
S315000007B040F2022001F00EF90DF1200048A100F0F0
S315000007C039F800F06DF8294600F06BF808A801F03A
S315000007D0E1F83068C002FCD53169E6E72DE9F84357
S315000007E08CB004464FF0FF35009504A844A100F0F4
S315000007F021F800BF4AA696E8800301AD01A985E865
S315000008008003CDF804D004A801F0B0F804A801F0E4
S31500000810C1F822480168C902FCD5006910F4702F9E
S3150000082018BF002003D10098A0428041C00F0DB030
S31500000830BDE8F083202200F0B1BE000038B590B0CC
S315000008400446684639A1FFF7F5FF00F02DF8684623
S3150000085001F0A0F8114D2868C002FCD5286910F4F3
S31500000860702F11D140F2022001F0B4F80DF12000F2
S3150000087036A1FFF7DFFF00F013F808A801F08AF8A9
S315000008802868C002FCD52969002011B030BD0000DF
S315000008900100100001800100E320BBDE4400004C93
S315000008A0214608A801F06CB82146684601F068B8F0
S315000008B0B814B6F1E0CFF3ADB7DD25C9FA79B713B1
S315000008C001000543000000000000000000000000D9
S315000008D00000000000000000000000000000000012
S315000008E001000643000000000000000000000000B8
S315000008F000000000000000000000000000000000F2
S315000009000000084300000000000000000000000096
S3150000091000000000000000000000000000000000D1
S315000009200000000001000000040000200000024357
S3150000093000000000000000000000000000000000B1
S31500000940000000000000000000000000000003435B
S315000009500000000000000000000000000000000091
S3150000096000000000000000000000000001207047A9
S315000009700120704728200168086970474FF400403D
S31500000980704701207047FEE72BA070470020704794
S315000009902648006800F00100704710B50B46111894
S315000009A0234CA14205D20146184600F0F7FD00206F
S315000009B010BD40F2024010BD38B513181C4D40F270
S315000009C00244AB4210D2002300E01B1D934206D224
S315000009D01D5815F1010FF8D040F2034032BD00F06A
S315000009E0FBFD08B1002032BD204632BD70B505467C
S315000009F00C46E00401D1E90402D040F2044070BD87
S31500000A0060190B4940F20246884209D2284600F096
S31500000A10D5FD05F50055B4F5005403D00028F5D1F1
S31500000A20304670BD0028FBD0002070BD1C0003407E
S31500000A3001000C000020704701020300280000009E
S31500000A40280000000020000000000C0080000000CC
S31500000A50040000002DE9F8431E467368002B4ED0B3
S31500000A600C4614F0030118BF41F2020048D11546A6
S31500000A700746FFF77FFF396E001D6A18824221D3B1
S31500000A8000F1180399421DD28C46844505EB0108F6
S31500000A9000F1180238BF84469045ACEB0101ACEB7F
S31500000AA0000088BF904604EB0109A8EB0C08384407
S31500000AB042464946683000F071FDFF2241464846ED
S31500000AC000F0C2FFFFF75AFF396E001D884222BFB1
S31500000AD06A18031D9A4209D3411A6018026807F181
S31500000AE080010A60FF22042100F0AEFF2146336830
S31500000AF0386E74682A46A047386E2D183D66002069
S31500000B00BDE8F28370B54B688C689C4206D200F152
S31500000B1040021B1B14781B19412B01D3002070BD0A
S31500000B200D6853781478E4188B6804F03F04EE5C83
S31500000B3006558C68641C8C6013785B1C13708C687B
S31500000B404B689C42ECD3012070BD90F840004A6887
S31500000B5089681018401A70472DE9F0410C4617466F
S31500000B601D468046FFF7F1FF08F14006A84206D26F
S31500000B7021464046FFF7C6FF10B300204DE0002196
S31500000B800CE0707818F800207A5473783078491C95
S31500000B905B1C03F03F03421E73703270307808B15D
S31500000BA0A942EED3A0686268904238BFA9420CD22F
S31500000BB02368185C7854A268491C521CA260F1E7AD
S31500000BC01420B07141F2020027E0A942F8D1B26CBC
S31500000BD0069C2946384600F003FEB06424B1F0684E
S31500000BE02A46394600F01AFE079838B1F07878B1EF
S31500000BF0B0682B463A46394600F052FFF07838B1D5
S31500000C00B169F06928188842F06124BF0020F070AD
S31500000C1070692D18756141F20300BDE8F081F8B5E1
S31500000C2084B014460026054601960096082302AABB
S31500000C30FFF792FF41F20306B0423BD195F843001D
S31500000C4005F1480738B100F037F83868082302AADA
S31500000C5002A900F025FF9DF80A209DF80B009DF8DB
S31500000C600910120442EA00629DF8080042EA0122D5
S31500000C70024322609DF80E009DF80F1000F049FC1B
S31500000C809DF80D1040EA01209DF80C1008436060A5
S31500000C9095F8430048B9DFF824188A421CBFDFF8EC
S31500000CA02008824201D000F007F860680021F96050
S31500000CB0B860304605B0F0BD7868082202A900F099
S31500000CC0ADBDF8B5064606F1400700200D46B871E1
S31500000CD07870F870387100214FF0FF301446397083
S31500000CE0797103F02003B86439627962BB70FF2220
S31500000CF0182106F1680000F0A7FEFF22042106F184
S31500000D00800000F0A1FEFF22042106F1840000F01D
S31500000D109BFEBD60FC60FFF72BFE00B11DB1FFF727
S31500000D2025FE18B114B941F20B00F2BD14B1F868F2
S31500000D3000F06AFD0020F2BD2DE9FB4F824600213E
S31500000D40002300249AB005A880E81A0005921C9A90
S31500000D50269D099106920AF148060AF1420710E01B
S31500000D6000F0C6FB0899884235D104980021F1604D
S31500000D70B0600398DFF84C17884240F03F810222AA
S31500000D803A7107981C99884280F0DD8241F203028D
S31500000D90089239790DF128081429F2D8DFE811F004
S31500000DA016001700D7022E0169036B03F1025001EA
S31500000DB06B034B016B0316036B034B012E02D00230
S31500000DC06E03A402A702DF01D002DAE7C8E700F04B
S31500000DD08FFB0899884240F0B782B87820B1039813
S31500000DE0DFF8DC16884246E03A78D1074DD57878A8
S31500000DF000284AD10398DFF8CC1688421CBFDFF8DA
S31500000E00C816884225D0DFF8C41688421FBFDFF80F
S31500000E10C0168842DFF8BC1688421AD0DFF8B8162A
S31500000E20884222D0DFF8941688426BD0DFF8AC16E1
S31500000E30884213D0DFF8A81688420DD0DFF8801656
S31500000E40884215D0DFF89C1688421CBFDFF898163A
S31500000E50884200F0D38010E0102291E7112038710B
S31500000E60B1680020706131618BE7142139716CE043
S31500000E70FFF77CFD002843D13EE01420387103A81B
S31500000E8000F01DFE002860D005E30398DFF8381651
S31500000E9088421CD0DFF8341688421DD0DFF83016A1
S31500000EA0884216D0DFF82C16884218D0DFF80C16C8
S31500000EB0884223D0DFF80816884216D0DFF82416B9
S31500000EC0884210D0DFF8201688420AD01CE00B2298
S31500000ED056E70420387154E70621397151E7072097
S31500000EE0F8E70921F9E70D20F4E7FFF73FFD0028B1
S31500000EF004BF7878002803D10E21EEE77878002821
S31500000F0040F07C801221E8E703A800F0D8FDA8B1E4
S31500000F100398132170643971039800F0D2FD09908B
S31500000F2038788106DAD5099800281CBF416800295F
S31500000F30D4D0504688470028D0D0ACE27878142127
S31500000F40397110B141F20400FEE141F20800FBE103
S31500000F5098F8050098F8041041EA00210291C907A3
S31500000F6004D5387840F00100387002E0FFF700FD44
S31500000F7040B9FFF7FBFC002800F0EB810298C105A1
S31500000F8000F1E7811420387141F20A00DCE1F978BA
S31500000F900520387141F00101F9700020F061F06818
S31500000FA0082880F0748201210191009100F0B5FAC1
S31500000FB008998842EAD1207840F00200207098F81B
S31500000FC0020098F803109DF8282000F0A2FA98F87D
S31500000FD0011040EA012010436060B0680838606282
S31500000FE098F8060098F8071098F8042000F091FA8F
S31500000FF098F8051040EA01201043C8D01420387133
S3150000100049E2012000F07DFA08998842BED198F89D
S31500001010021098F803009DF82820090441EA0061AF
S3150000102098F8010041EA002111430291B0680528B1
S3150000103024BF0298B061F0680428E2D30A214CE785
S315000010400020F061082148E72B6842460AA9F069AA
S31500001050E047F0694044F061B068F168814280F091
S315000010601382A0EB0108B8F1040F05A9504608D376
S31500001070FFF76BFD042808D205A95046FFF742FD8D
S3150000108061E1FFF762FD4045F6D3B8F1410F05A9CE
S31500001090504628BF4FF04008FFF757FD404502D2A3
S315000010A000F02BFA8046B8F1040F0AAA05A924BF5E
S315000010B04FEA98004FEA80080120019000904346CD
S315000010C000F024FA0899884240F03E8138790828D1
S315000010D004D1D5F808C0BCF1000FB5D1C8F1040B96
S315000010E0B8F1040F06D20AA8FF225946404400F080
S315000010F0ABFCD84439790A2906D12B4642460AA9BF
S315000011005046FFF7A7FCA7E7052918D199F8010073
S31500001110820714D5E86890B1F069052818D208EB63
S315000011200001072914D30AA9091D081A01680AF142
S3150000113084021160FF22042100F086FC08E00C29DD
S315000011408AD199F80100410786D5E868002883D03E
S315000011502B6842460AA9F069D5F80CC078E73978B9
S31500001160880640F19681706C00F0ABFC099000286F
S3150000117040F08F818FE14FF0010900F0BEF948453C
S3150000118082D3B068F168A0EB0109B9F1410F05A956
S31500001190504628BF4FF04009FFF7D7FC814502D3E0
S315000011A000F0ABF981460120019000904B4600F01B
S315000011B0ABF9089988422FD1387881060DD5002CD5
S315000011C01CBFD4F808C0BCF1000FD3D02B464A464A
S315000011D00AA95046E04700281ED1F068B168884247
S315000011E080F05C8138788106C5D5002C1CBF21694A
S315000011F00029C0D0504688478146BEE7002000F04F
S3150000120080F90899884207D1306CB849884204D0E1
S3150000121014223A7141F2050096E0FFF7A7FB18B9D0
S315000012201B990120C87003E01B99C87800283FD09D
S31500001230F87810F0030F1CBFEC68002C05D02B6863
S3150000124004220AF184010420A047B06900281CBFCB
S31500001250686800282CD04FF0FF3102910AF1800413
S315000012600422214602A800F02FFC40B1FFF786FBBE
S3150000127028B121462B686C680422001DA047042271
S315000012800AF1680102A800F01FFC88B1FFF772FBA3
S315000012902B686C6814220AF16C010830A047FFF72E
S315000012A069FB2B686C6804220AF16801001DA047DF
S315000012B01B99012088700F20387144E0002001211D
S315000012C001900091102300F01FF9089988423BD144
S315000012D0FEF744FF009080210191306801230BAA9C
S315000012E0022100F0BAFBCBE00120787026E0B87846
S315000012F020BB002101910090402300F005F90899D8
S31500001300884221D1706800F08BFAFEF725FF04466B
S31500001310FEF720FF00940346706812AA0AA900F09F
S3150000132083FA38B11B990020C8701420387141F235
S31500001330060009E01B990120C870B8700121CCE5B0
S3150000134041F2070000E000201DB0BDE8F08FDDF897
S315000013506C90F068082819D20021012001910090B4
S3150000136000F0DBF808998842EED198F803000006F1
S31500001370B0F1407F3FF4ECAD1420387141F2090022
S31500001380E2E7DDF86C90B368F06898427CD2012100
S315000013900191009100F0B8F808998842D4D11C2236
S315000013A00AA909F1080000F0F9F899F8000040F0E0
S315000013B0010089F8000009F10800FFF7E2FA0028A9
S315000013C0E1D11420387141F20C00BDE71B9CF06896
S315000013D008285CD201210191009108230CAA00F093
S315000013E094F808998842AFD1207840F00400207024
S315000013F098F80E0098F80F1098F80C2000F089F86D
S3150000140098F80D1040EA01201043A0626078410769
S315000014102CD5EB208DF82800A620172188F802008D
S3150000142088F801100AF150005E2188F8031002685E
S315000014300AF184010A600022F261F87840F00200A5
S31500001440F870D5F80CC0BCF1000F0FD02B68042241
S315000014500AA90020E047F0692B68D5F80CC00822DD
S315000014600CA90830E047F0691030F0610C203871A3
S31500001470ADE71B9C93E5DDF86C90EDE5DDF86C902F
S31500001480F0681028FFF41AAFCDF86C9056E71B945D
S3150000149077E4099CA1E641F2010055E70994387802
S315000014A08106F3D5002C1CBFE268002A04D0294629
S315000014B0504690470028F0D140E70000F70A0AF7A7
S315000014C0FC0404FCEB17A603EB17A65EF40A0AF469
S315000014D0F50909F5F60808F6F70909F7F90707F90E
S315000014E0FA0606FAFD0303FDFE0101FEE320BBDE5C
S315000014F003AA05A95046FFF792BB05A95046FFF778
S3150000150024BB0190009004230AAA05A95046FFF7C0
S3150000151023BB000440EA0160704708230AAA05A914
S315000015205046FFF719BB10B50446B1F5C07F02D28D
S3150000153040F2052010BD4FF4C07100F02BF80020DA
S31500001540607004F5827204F1BC0104F12C000023E2
S31500001550BDE81040FFF7B5BB1CB504460091214617
S3150000156004F12C00FFF7E8FB0028C4F87C011CBF3F
S3150000157041F2070188420BD1A07838B1E07810B16A
S3150000158040F2032016BD40F2022016BD40F20120B3
S3150000159016BDFEE7002200F0A7BAFEE74AB100003A
S315000015A011F8013B521E00F8013B1CBF11F8013B2C
S315000015B0F8E7704700F0F6BA00F0FCBA10B504463A
S315000015C0FFF7F8FF204600F000FB0446FFF7F4FFA4
S315000015D0601E8041C00F10BD70B50546144615F05B
S315000015E0030F0E4608BF14F0030F01D0002070BD94
S315000015F00CB9012070BDFFF7DDFF224631462846B3
S3150000160000F003FB0446FFF7D7FF601E8041C00FC2
S3150000161070BDFEE74FF4017000F0E8B938B594B03C
S315000016200DF130005AA12022FFF7B8FF0DF110008E
S315000016305FA12022FFF7B2FF4FEA0D0064A110223E
S31500001640FFF7ACFFFEF786FD0446FEF785FD05466F
S31500001650FEF784FD10226946FFF7AEF920220CA999
S315000016602046FFF7A9F9202204A92846FFF7A4F986
S3150000167015B030BD80B5684600F006FB3F48816A6C
S31500001680CA0311D441686FF3162141F4B81141F42D
S3150000169005414160016821F4704141F44041016017
S315000016A0026842F4E06202609DF80100012804BF6E
S315000016B09DF80000002807D14FF0005106200A6867
S315000016C001F58041401EFAD100F0ECFA00F089F9EC
S315000016D0FFF7A4FFFEF74AFD48B940F2012000F0EB
S315000016E085F94FF4017000F081F9002002BD24490C
S315000016F001E00099491E009100990129F9DA40F2AA
S3150000170005429042EDD140F20320ECE71D4838B582
S315000017100168012401254A060CD500F081F940F242
S315000017200221401A04D0C01E02D0C01E012801D8D2
S315000017300024002544F20400016811F1010F06D1CE
S315000017404FF40270BDE8324000F044B931BD2DB10E
S315000017504FF48040FEF796FF0400F1D0002CF5D040
S315000017604FF480400849086002461046016881F33C
S31500001770088881F3098840688746FEE730C0004044
S3150000178000350C009440004008ED00E00120704751
S315000017902C819E47FB9D42A13C2826F7C22F566806
S315000017A07B2F31E49684EDB49B2E17D966DE02AE0C
S315000017B0A210FC3C5AFB3FE0444AFD116CA3C4DA7C
S315000017C0FDAD156D1D8ED9B37D585F5C9D17BBA30E
S315000017D003D29876BCD7F03E64C375734975EBDCCB
S315000017E030B5084B01241C6000255D60DA609C6002
S315000017F002E010F8014BDC610A46511E002AF8D1BE
S31500001800186A30BD0480084010B5044600F00AFB93
S3150000181020460021BDE8104000F037BB00F036BB83
S31500001820014600F034BBFEE72DE9F84706000D46F9
S3150000183097B014461F4618BF002D00D014B940F2C9
S3150000184001604FE00DF13C002CA12022FFF7A6FE1F
S3150000185026490FA800F094F820210FA800F090F870
S315000018602EA191E80C400CA880E80C402EA00C9705
S3150000187090E80007209909AF87E8000709910CA9AD
S3150000188000F038F809A900F035F800BF29A191E861
S315000018908C0006A806A980E88C00069600F02AF8B7
S315000018A027A191E84C0003A828A780E84C000395DF
S315000018B097E800436D4603A985E80043009400F0CD
S315000018C019F8694600F016F80FA800F063F8084802
S315000018D00168C902FCD5006910F4702F0CBF002006
S315000018E040F2046018B0BDE8F08700001F240080B5
S315000018F04400004C0FA800F02FB8000000000106BD
S3150000190000000000000000000000000000000000D1
S3150000191000000000000000000000000000000000C1
S31500001920010000002000002000000000010000006F
S315000019302000002000000000010000002000002020
S315000019400000000001000000200000200000000050
S315000019500100000020000020426812B94160704773
S31500001960526850680128FBD151607047826812B9ED
S3150000197081607047526850680128FBD151607047FA
S31500001980C269042A05D200EB8202D160C169491CF2
S31500001990C1617047C169042900D9704710B54FF07D
S315000019A098410A6CD302FAD5C269121D92000A65E3
S315000019B002680A6043680B6082680A60002204E0DD
S315000019C000EB8203DC68521C0C60C3699A42F7D3B1
S315000019D010BDFEE74FF0005108804FF20F0048801F
S315000019E070474CF23C300B49088070474FF000516D
S315000019F008804FF20F004880BFF34F8F06490A68F0
S31500001A00064802F4E06202430A60BFF34F8F00BF4C
S31500001A10FDE70000020000200CED00E00400FA05DE
S31500001A204FF0005148884FF20F02904201D10888CA
S31500001A307047002804BF0888012802D140F202201E
S31500001A4070474FF4007070474018491C1CBFB1F135
S31500001A50010100F8012DF9D170472DE9F8438046C0
S31500001A600E4691461C46089D099F00F041FA2946FC
S31500001A703A46404600F042FA08F12400002101608F
S31500001A8006750C22494608F13900FFF787FD08F173
S31500001A904500210C220A017042708470BDE8F18372
S31500001AA03EB51C460292019100F12805009500F111
S31500001AB0380300F12402214600F0B2FA37BD0020B7
S31500001AC0704700207047FEE703000020521E22BF29
S31500001AD013F8010B11F801CBB0EB0C00F6D0521C39
S31500001AE008BF10467047000000B500BF13009646B9
S31500001AF09446103928BFA0E80C50FAD85FEA417C1A
S31500001B0028BF0CC048BF40F8042BC90728BF20F8DF
S31500001B10022B48BF00F8012B00BD000010B5524A49
S31500001B20524C534B1B68234207D103408B420DD0C6
S31500001B30521EF6D16FF0020010BD4E48034202D08D
S31500001B406FF0010010BD4FF0FF3010BD002010BD3A
S31500001B5070B5494D6860E8680E46410702D54FF0FA
S31500001B60FF3070BD56F8040B141F02E056F8040B44
S31500001B70241FA86044B108210820FFF7CFFF010009
S31500001B80F4D00421296070BD0420286000212120A2
S31500001B90FFF7C4FF010004D100212120BDE87040F9
S31500001BA0BCE770BD41F67130344908600122344B00
S31500001BB01A60704710B5314841F671310160012253
S31500001BC02F4B1A600024046010BD70B541F67131C8
S31500001BD0294C01222B4BE568E1621A6060600226FF
S31500001BE02660002121202D0CFFF798FF05F0010546
S31500001BF0010003D100212120FFF790FF0121204A97
S31500001C0011600DB10021E16270BD2DE9F843184F56
S31500001C103D688946144641F6713180462D0C39627D
S31500001C200122184B002005F001051A6002E0B044BD
S31500001C30B144A41B7CB108F50056760B7603A6EBDF
S31500001C400806B4424946404638BF26463246FFF7A4
S31500001C507FFF0100EBD00121094A11600DB100217F
S31500001C603962BDE8F2830000809698000600010004
S31500001C701C00034002000100100003403C0003402A
S31500001C800C2003400C100340054909688A0902F03C
S31500001C903F0201F03F0382704370090B01707047E9
S31500001CA014C00740FEF772BEFEF7C4BE2DE9F84F1A
S31500001CB0834602281FD8140055D00B9A9846D2F8AE
S31500001CC000C0BCF13F0F18D85068002818BF5FEA63
S31500001CD0080A13D1BBF1000F04D0BBF1020F07D0E5
S31500001CE003D308E00FF2A81A08E00FF2C41A05E0C1
S31500001CF00FF2DC1A02E0494836E0C2460CF03F0615
S31500001D00A444C6F14005C2F800C0A44502D25068FA
S31500001D10401C506089460A9F8EB1AC420FD32A46BA
S31500001D20B819FFF73BFC0120009043463A4651465E
S31500001D30584600F08FFAC246A944641B00263F2C81
S31500001D400BD9A509009543464A465146584600F028
S31500001D5081FA09EB8519A4EB851424B1224649467C
S31500001D60B819FFF71BFC0020BDE8F28F2DE9F04102
S31500001D70044686B0884616461D46200003D0022C2F
S31500001D8030D02DD330E01427002100200DF1080CAF
S31500001D9055F8203042429200D21D01EBC3010CF8E7
S31500001DA0021002A9114455F82020C91E52098A7052
S31500001DB055F82020520B4A7055F82020520D0A7013
S31500001DC055F82010401C490F0128E1D92A7802F065
S31500001DD03F02382A34BFC2F13802C2F1780205E068
S31500001DE01C27D1E72027CFE70C4814E00195009681
S31500001DF043460B492046FFF759FF01950096434697
S31500001E00082202A92046FFF751FF0C983A464146A0
S31500001E10FFF7C4FB002006B0BDE8F08180AFFFFFEE
S31500001E204000000000281CBF6C21FFF7B3BB7047C1
S31500001E300022002902624262CCBF0121002180F803
S31500001E406810002070473EB5034693F8680003F11A
S31500001E50200403F1280500280194009514BF0120F1
S31500001E600220FFF723FF3EBD1CB590F868200091C5
S31500001E7000F12003002A00F12802014614BF0124C4
S31500001E8002242046FFF772FF16BDD1E7DBE7EBE73A
S31500001E9067452301EFCDAB8998BADCFE1032547644
S31500001EA0C3D2E1F0000000000000000000000000C6
S31500001EB0C1059ED8367CD5073070DD17F70E593927
S31500001EC0FFC00B316858151164F98FA7BEFA4FA4ED
S31500001ED06A09E667BB67AE853C6EF372A54FF53AB5
S31500001EE0510E527F9B05688C1F83D9AB5BE0CD19E1
S31500001EF000281CBF2421FFF74DBB704770B50500B5
S31500001F000C46164618BF002C02D16FF0210070BD9A
S31500001F102421FFF73FFB802E1CBFC02EB6F5807F25
S31500001F2002D06FF01F0070BD2E60F2082146281DFA
S31500001F30FFF734FB002070BD2DE9F8470600144674
S31500001F4091B00F461D4618BF002C00D015B96FF092
S31500001F50210055E03068802818BFC02805D0B0F5AC
S31500001F60807F18BF6FF01F004AD109A82021FFF714
S31500001F7011FB012F0FF25C2191E88C000CBFDFF8FA
S31500001F804802DFF848020990684680E88C00301D58
S31500001F90009030680FF2482206A9C00840F00050B1
S31500001FA0029092E8884009A881E888400FF23C2117
S31500001FB0069491E8000703AC694684E80007039598
S31500001FC0FFF7CAFC06A909A8FFF7C6FC03A909A8DA
S31500001FD0FFF7CCFC316809A800F01EF8102109A80B
S31500001FE0FFF7CEFC00F0DAF950B909A8FFF7D2FCEA
S31500001FF000F009F804F47024002C0CBF00202046E1
S3150000200012B0BDE8F087DFF8C8010168C902FCD547
S31500002010046900F0CFB911A8C908FFF7B1BC0000E8
S31500002020002A2DE9F64F99B014BF14680024002643
S31500002030002800904FF0000A1FBFDDF89480B8F129
S31500002040000FDDF89890B9F1000F04D01D001CBFF9
S31500002050249F002F02D16FF0210096E000680191C5
S3150000206080281CBFC028B0F5807F04D06FF01F0009
S315000020708BE000F08DF80198824580F07F80002C7F
S31500002080F7D1A0EB0A005FEA101B5DD062A611A88B
S3150000209059A12022FFF782FA96E80E0008A84FEA17
S315000020A00B1B80E80E000099081D089000990BA8EC
S315000020B00A680EA9D20842F000520A9259A292E882
S315000020C0484081E848400E9559A191E84C000DF131
S315000020D0140E80E84C000B9558A090E80E0008EB13
S315000020E00A008EE80E0005904BF00051079100BFE4
S315000020F055A393E8414002AA09EB0A0382E841404E
S3150000210000F056F80EA900F056F805A900F053F8AD
S3150000211000F04AF80BA900F048F800980168FFF7AC
S315000021207AFF594611A8FFF72BFC00F037F9002873
S315000021302BD111A8FFF72EFC00F040F8066900F03D
S3150000214039F9DA4406F47026F6B90198B0EB0A00BC
S3150000215091D084B900983B462A460121FFF7ECFE50
S31500002160002041422944CA7B521CCA73D2B212B91A
S31500002170401C0F28F5D900F00BF8E6E71A9800B1D5
S3150000218004600EB9002000E030461BB0BDE8F08FB9
S3150000219018F80A10385D641C04F00F04414009F871
S315000021A00A100AF1010A704702A911A8FFF7DEBB5F
S315000021B00293049108A911A8FFF7CEBB0448016851
S315000021C0C902FCD5704700000001000400010104AB
S315000021D04400004C00000000010000000000000068
S315000021E000000000010000001000002000000000B8
S315000021F0010000001000002003030004000000009E
S3150000220000000000000000000000000000000000C8
S3150000221000000000000000000000000001000000B7
S315000022200000000000000000010000001000002077
S315000022300000000001000000100000200000000067
S315000022400100000000000000000000000100000086
S31500002250000000002DE9F84791B006460D4691466C
S315000022601F461A9C0DF124003BA12022FFF796F988
S3150000227041A393E807000DF1180A03AB8AE80700AB
S31500002280CDF818903FA090E8004600BF40A26946EE
S3150000229083E80046039592E8280181E82801009723
S315000022A01EB1022E33D021D336E00998A10140F4A5
S315000022B00070099009A8FFF763FB00F047F840F0AB
S315000022C014000590029840F01400029003A909A892
S315000022D0FFF742FB06A909A8FFF73EFB694609A8D6
S315000022E0FFF744FB00F05AF8C0B126E00998A101B7
S315000022F040F44070099009A8FFF742FB00F026F869
S3150000230040F020000590029840F02000DDE7099893
S31500002310A10140F48060EDE709480EE009A8FFF747
S3150000232039FB08480168C902FCD5046900F042F887
S3150000233014F4702F0CBF0020034812B0BDE8F087DC
S3150000234080AFFFFF4400004C80ADFFFF089840EAD5
S3150000235084140894059870470000010300000000EB
S315000023600000000000000000000000000000000067
S315000023700000000000000000000000000100000056
S315000023800000002000000000010000000000002006
S315000023900000000001000000000000200448016861
S315000023A0CA0502D06FF01D0070470020704700007C
S315000023B004ED00E000207047044805490860054820
S315000023C0026842F4700202607047000000000000DC
S315000023D008ED00E088ED00E04EF68851CEF20001EF
S315000023E0086840F470000860BFF34F8FBFF36F8F2B
S315000023F04FF00070E1EE100A7047000000F00DF893
S31500002400002801D0AFF30080AFF300800020AFF3C7
S315000024100080FFF72FF900F002F80120704700F066
S3150000242001B800000746384600F002F8FBE7000056
S315000024302021090326311820ABBEF9E780B5FFF746
S31500002440BBFFFFF763F9BDE8014000F000B8AFF34A
S315000024500080FFF7C1FFFFF7D1FF0000000000007A
S31500004000B85E0020037F030005A402004F4F0000A6
S31500004010A70A0A010042000004180FAC5065B0015F
S31500004020000000000000000000000000000000008A
S315000040300000000074930300000000000000000070
S315000040400000000000000000FFFFFFFFFFFFFFFF72
S31500004050FFFFFFFF00600B000100000000000000F2
S31500004060FFFFFFFFFFFFFFFF8000000000000000D2
S31500004070000000000000000000000000000000003A
S315000040800000000000000000F0D70020F0D700205C
S31500004090B85E002068B10300987F030058550020E1
S315000040A07C3A002000E00B0000000000FFFFFFFF4D
S315000040B0FFFFFFFFFFFFFFFFFFFFFFFFFFFFFFFF0A
S315000040C0FFFFFFFFFFFFFFFFFFFFFFFFFFFFFFFFFA
S315000040D0FFFFFFFFFFFFFFFFFFFFFFFFFFFFFFFFEA
S315000040E0FFFFFFFFFFFFFFFFFFFFFFFFFFFFFFFFDA
S315000040F0FFFFFFFFFFFFFFFFFFFFFFFFFFFFFFFFCA
S31500004100FFFFFFFFFFFFFFFFFFFFFFFFFFFFFFFFB9
S31500004110FFFFFFFFFFFFFFFFFFFFFFFFFFFFFFFFA9
S31500004120FFFFFFFFFFFFFFFFFFFFFFFFFFFFFFFF99
S31500004130FFFFFFFFFFFFFFFFFFFFFFFFFFFFFFFF89
S31500004140FFFFFFFFFFFFFFFFFFFFFFFFFFFFFFFF79
S31500004150FFFFFFFFFFFFFFFFFFFFFFFFFFFFFFFF69
S31500004160FFFFFFFFFFFFFFFFFFFFFFFFFFFFFFFF59
S31500004170FFFFFFFFFFFFFFFFFFFFFFFFFFFFFFFF49
S31500004180FFFFFFFFFFFFFFFFFFFFFFFFFFFFFFFF39
S31500004190FFFFFFFFFFFFFFFFFFFFFFFFFFFFFFFF29
S315000041A0FFFFFFFFFFFFFFFFFFFFFFFFFFFFFFFF19
S315000041B0FFFFFFFFFFFFFFFFFFFFFFFFFFFFFFFF09
S315000041C0FFFFFFFFFFFFFFFFFFFFFFFFFFFFFFFFF9
S315000041D0FFFFFFFFFFFFFFFFFFFFFFFFFFFFFFFFE9
S315000041E0FFFFFFFFFFFFFFFFFFFFFFFFFFFFFFFFD9
S315000041F0FFFFFFFFFFFFFFFFFFFFFFFFFFFFFFFFC9
S31500004200B85E0020037F030005A402004F4F0000A4
S31500004210C74F0000978F0000C78F00000000000006
S3150000422000000000000000000000000047AF000092
S3150000423033B5000000000000F36100001B620000BF
S315000042400FC500008BC9000027D50000DBD6000093
S315000042507FE8000011E3020027890100A162000047
S3150000426007020100CF1101006B850100C94B000058
S31500004270E3380100054C00004B390100C34501003D
S315000042804758010033590100FBA50100DBA80100D6
S31500004290E7B60100FBB601006BCA0100B7CC01000E
S315000042A07BD10100319B0000159B0000FBD2010071
S315000042B07BD70100F7F4010077F60100AF58030041
S315000042C0635803006158030081540300AD5803008E
S315000042D0655803006958030067580300697E0300A8
S315000042E0DF580300632D0200CB3A0200953D010022
S315000042F0074802002B6502003794020007A402005B
S31500004300B7A40200A7A502001FB30200C7B80200A7
S31500004310BBDC020077DE020017EB020053ED020061
S315000043201BEE0200EBEE0200EFF202002BFB020096
S3150000433017180300204810B4504A504C03E00340BD
S315000043408B4210D0521E012A0FDB4D4B1B682342B5
S31500004350F5D04C48034203D06FF0010010BC704703
S315000043604FF0FF30FAE70020F8E76FF00200F5E7BC
S3150000437070B50E461446444D6860E868400702D59D
S3150000438020600A70BD56F8040BA860241F03E00ADB
S31500004390101F002C08D008210846FFF7C9FF0100AE
S315000043A0F3D00421296070BD04202860002121205B
S315000043B0FFF7BE162304D10C5023BDE87040B6E7C4
S315000043C070BD38B52F4CE5682D0C05F0010541F69A
S315000043D07131E16201212B4A1160606002202036B2
S315000043E012A3363203361005FFF79DFF0121242064
S315000043F0200E002D01D00021E16232BD2DE9F843E7
S315000044000546A0200E00201A4FD7F800804FEA1864
S315000044104808F0010850123950121730102703E0EF
S315000044204D444E44A4EB0904002C11D005F5005967
S315000044304FEA59394FEA4939A9EB05094C4500D2EB
S31500004440A1464A46314628BC1288701003E7D001BF
S31500004450210A382002B8F1000F6A10133962BDE84C
S31500004460F283000080969800060001001C000340BD
S315000044700208121008130C1004000120034000006B
S3150000448080B500F005F8DFF8A80300F03BFA01BD9F
S315000044902DE9F04385B014240025DFF89463370036
S315000044A02A002100380000F01FFD6846DFF884135B
S315000044B0142200F05DFD1427E846B1463A00414655
S315000044C0484600F045FD300005B0BDE8F08380B5F4
S315000044D000F015F80321DFF8600300F0E0FE0FF2AC
S315000044E0691332220121DFF8540300F092FE00F036
S315000044F068F9DFF84C13002000F0ADFB01BD2DE993
S31500004500F0470020DFF83C1308801521012001F058
S3150000451093F90524DFF83053DFF83063371DB846CA
S3150000452022002900404600F013FD0020F070DFF85D
S315000045302003F060F168380000F0F7FD71793079FA
S3150000454001F002F830700526C24FDFF80C8318F12F
S315000045500409CA4632003900504600F0F9FC002032
S3150000456088F80300BD48C8F80C00D8F80C10484677
S3150000457000F0DBFD98F8051098F8040000F0E4FF61
S3150000458088F8000001F0B1FABDE8F08710B5040024
S315000045902000C0B22A2828D12A2001F0D6FDAB4837
S315000045A0417881704078002806D1A6490A884FF6DE
S315000045B0FE7002400A8004E0A248018851F0010121
S315000045C00180A048027812F00102A549002000F0FF
S315000045D042FB0121012001F0E2F80FF27912C82115
S315000045E0242001F099FD01F0A0F92000C0B229288D
S315000045F029D1292001F0A9FD97484178817040789A
S31500004600002806D18F490A884FF6FB7002400A80BF
S3150000461004E08C48018851F0040101808948008833
S31500004620C0F3800292B28F49002000F014FB0121F2
S31500004630022001F0B4F80FF21D12C821272001F064
S315000046406BFD01F072F910BDF8B504000D001600FF
S3150000465085480078002841D1002C3FD12800C0B2FF
S31500004660012814D140F6B830864209D2002001F064
S31500004670ADF8002831D10121002001F090F82CE09E
S315000046800FF2D1020021262001F046FD25E040F67A
S31500004690B83086421DD2002001F098F8002803D1D8
S315000046A00021002001F07BF801F08DFF07003800A3
S315000046B0C0B2052807D03800C0B2072803D038009A
S315000046C0C0B2062809D101F030F9012000F007F840
S315000046D003E047F2305002F001F9FFE7F1BD2DE9A2
S315000046E0F8419FB004000120009001AB2122012176
S315000046F0012003F0BAFE07AD742600270DF1080865
S315000047003A003100404600F0EFFB0A208DF80D001C
S3150000471001208DF80F0000208DF810008DF8144050
S315000047200120ADF81600212028802020A870012045
S31500004730E8709DF8040028719DF81A00401C8DF859
S315000047401A004FF4FA62002102A802F02BFF20B0F3
S31500004750BDE8F0811CB504002000C0B2232807D0B4
S315000047602ED3252829D00ED3272814D01BD327E0F3
S315000047700021002001F013F800203B490870232097
S3150000478001F0E3FC1CE00021012001F008F82420E0
S3150000479001F0DBFC14E00021022001F000F82720E4
S315000047A001F0D3FC0CE0002000904FF6FF73FA22D4
S315000047B0FA21002000F0D0FF02E001F0B6F8FFE792
S315000047C013BD80B594B00DA828491C2200F0D0FB7B
S315000047D002A827492C2200F0CBFB2648D0E900236B
S315000047E0CDE900230B2202A90DA804F019FA6846A8
S315000047F004F08DFA032000F002F815B000BD01B5F3
S3150000480082B03020009002AB07220021012003F085
S3150000481017FE07BD0100C8780A78904202D1012030
S31500004820487001E000204870487888700120704781
S31500004830D46A002040800300208003001880030013
S31500004840987F03005EBF002030800300A46C002028
S315000048506F58000038800300B46C0020CD5800006B
S31500004860AC7F0300CC7F03004E6800205480030019
S31500004870EC7F030070800300010008D4012200F0E1
S315000048801F018A40DFF8E415400941F820207047EF
S31500004890010008D4012200F01F018A40DFF8D0157C
S315000048A0400941F8202070470901020003D4DFF8CF
S315000048B0C40581547047DFF8C00502F00F021044AA
S315000048C000F8041C7047DFF8B41508607047DFF87D
S315000048D0B0150A6822EA000008607047DFF8A015E4
S315000048E00A6810430860704742F2480281507047D8
S315000048F0C26C22EA0101C1647047C26C1143C164F3
S315000049007047704770B5040000F085802578022D49
S3150000491080F2818040F62801DFF86C0501FB05F284
S3150000492086180022304600F0DFFA2078002805D1EC
S31500004930DFF8580530602020307506E0012804D1E4
S31500004940DFF84C053060212030752069C6F8240850
S31500004950207B012802D0022803D005E04FF4007026
S3150000496003E04FF4407000E00020617B002904D092
S31500004970022904D0032905D007E0002107E04FF4FF
S31500004980005104E04FF4405101E04FF48051A27B06
S31500004990012A01D1062200E00522A3687360708116
S315000049A0B1813272607801280BD1A078B073E078BB
S315000049B03074A079B0742079F07360797074E079FE
S315000049C0F074284600F088F8304600F095F8207814
S315000049D0002804D10120DFF8AC14087005E0012896
S315000049E003D10120DFF89C144870DFF89804807822
S315000049F0012803D1717CF07B00F0EFF920780028C4
S31500004A0004D103210B20BDE870404DE703210D20A2
S31500004A10BDE8704048E770BD70B50146DFF8742404
S31500004A2002EB4112136823F014031360DFF85834C5
S31500004A3040F628044C43234494699D7B1E7C45EA3A
S31500004A400645AC439461DB7B146943EA034324EADD
S31500004A5003031361022929DA010012D1DFF82C447D
S31500004A6004212046FFF744FF04212046FFF73CFFC0
S31500004A700021204604F0BBF90120BDE8704004F097
S31500004A808DBA012812D1DFF8084404212046FFF729
S31500004A902FFF04212046FFF727FF0021204604F0C0
S31500004AA0A6F90220BDE8704004F078BA70BD0B4646
S31500004AB01146020007D1DFF8CC030078012801D1A6
S31500004AC018468DE070470128FCD1DFF8B80340781E
S31500004AD00128F7D11846A1E0DFF8AC2340F62801FB
S31500004AE04843104400F6180100F118020A60183015
S31500004AF0486000200881704730B587B00446684694
S31500004B000FF29C311C2200F033FA002560680290F7
S31500004B10207A8DF80D00A089ADF810006089ADF8F7
S31500004B200E002068DFF86813884200D101250121B4
S31500004B301420FFF7E6FE0121207DFFF7E2FE206844
S31500004B4004F0DDF96946206804F063F96D01D14887
S31500004B50411914220A60A27B237C42EA03428A613D
S31500004B60E17B627C41EA024110304151012302227D
S31500004B70617CE07B04F08FFA01230422217CA07B78
S31500004B8004F089FA2068C149884206D10B20FFF754
S31500004B907FFE0B20FFF770FE05E00D20FFF778FE85
S31500004BA00D20FFF769FE4FF0FF312068FFF79CFEEE
S31500004BB00521206804F01BF904212068FFF79DFEFB
S31500004BC004F000FA07B030BDB0488169090600D488
S31500004BD0704780B504F0D4F90021BDE8044047E0F1
S31500004BE038B504460D46002C0BD0280009D014F821
S31500004BF0011BA64804F0CAF96D1E284680B200289B
S31500004C00F5D131BDA2488169090600D4704780B547
S31500004C1004F0B6F90121BDE8044029E038B50446A0
S31500004C200D46002C0BD0280009D014F8011B98481B
S31500004C3004F0ACF96D1E284680B20028F5D131BDCE
S31500004C4080B5084611468F4A1278012A01D1FFF72E
S31500004C50C7FF002002BD0CB480B5002801D1012099
S31500004C6000E0022002AA04F0D1FB01BC5DF80CFBB7
S31500004C7018B4854B0C4640F6280254431A1902F61E
S31500004C8018031C89B4F5006F0CD21C689C4201D332
S31500004C9018321A601A6810701868401C1860188953
S31500004CA0401C1881002901D10E2000E00F200FF2D0
S31500004CB085020A2118BC01F02FBA70B5044604F02B
S31500004CC0AAFB05467049224640F6280042438E1844
S31500004CD0B6F82008002802D12046FFF7FDFEB6F8F8
S31500004CE02048284604F09DFB204670BD38B5054691
S31500004CF0002404F090FB644A40F628014D432A4400
S31500004D0002F61C03998800290ED0196802F61804C9
S31500004D10A14202D302F11801196019680C78491CE6
S31500004D2019609988491E998004F07BFB204632BDA4
S31500004D30000000002DE9F843534D41F250016C1874
S31500004D4027460E2802D14FF0000801E04FF0010877
S31500004D504046FFF7B2FF81464E4640F601018842C3
S31500004D600CDA00280AD04046FFF7C0FF07F8010B0F
S31500004D70A9F10109484680B20028F4D140F628007E
S31500004D8000FB08F805EB0800D0F82428002A04D018
S31500004D9031462046BDE8F8431047BDE8F1831828A0
S31500004DA003D14FF4FA7004F071BC70473549CA78E4
S31500004DB0012A00D1704780B50122CA703249497C68
S31500004DC00246914208D104F04AFE334A00211820D7
S31500004DD0BDE8084001F0A0B901BD3EB504460D4648
S31500004DE004F061FE012302222946204604F053F90D
S31500004DF02A492846C0B204F064FE012001900090C2
S31500004E0003462A462946204604F013F9012000FAF3
S31500004E1005F52846FFF757FD2846BDE83E405DE507
S31500004E2080B50220FFF74FFD0220BDE8024055E5A0
S31500004E3080B50220FFF74BFD0220BDE8024042E5A7
S31500004E4010B5124C04212046FFF752FD04212046DE
S31500004E50BDE8104048E510B50C4C04212046FFF78C
S31500004E6043FD04212046BDE8104046E500E100E090
S31500004E7080E200E000E400E018ED00E020E40340FA
S31500004E8024C40340B3D7002050730020008005409F
S31500004E9000C00540ACC503409F4D0000AD4D00006D
S31500004EA0050000000000000000C20100000500002F
S31500004EB000100000000000000000000038B5094C9A
S31500004EC0A07801280DD104F0A6FA05460020E0706E
S31500004ED0FFF7A6FFFFF7B4FF2846BDE8324004F00F
S31500004EE0A0BA31BDB3D7002062F30F2262F31F428E
S31500004EF0401810F0030308D0C91A1FD3DB0748BFB8
S31500004F0000F8012D28BF20F8022D130030B41446F6
S31500004F101546103928BF20E93C00FAD8490728BFB2
S31500004F2020E90C0048BF40F8042D890028BF20F86E
S31500004F30022D48BF00F8012D30BC7047C91818BFB4
S31500004F4000F8012DCB0728BF00F8012D7047FEE7BA
S31500004F5062B38B0708D0521E11F8013B00F8013BE3
S31500004F6000F024808B07F6D1830740F0208000BF35
S31500004F70103A07D330B4B1E83810103AA0E8381028
S31500004F80F9D230BC530724BFB1E80810A0E80810D6
S31500004F9044BF51F8043B40F8043BD20724BF31F824
S31500004FA0022B20F8022B44BF0B7803707047083A97
S31500004FB007D3B1E80810083A40F8043B40F804CBA0
S31500004FC0F7D25307E4E7FEE701000CD4012200F014
S31500004FD01F018A40DFF81818400941F82020BFF366
S31500004FE04F8FBFF36F8F7047010008D4012200F086
S31500004FF01F018A40DFF8FC17400941F8202070475E
S315000050000068C84000F001007047DFF8EC2700EBAD
S31500005010400302EB03101430F2E7012202FA01F119
S31500005020DFF8D82700EB400302EB0310016170475D
S31500005030012202FA01F1DFF8C82700EB400302EB78
S3150000504003100161704770470A21DFF8B807C0787E
S3150000505001F051B870B400220B46042B02DB082B7A
S3150000506002DA0422002312E00C2B01DA0822F9E707
S31500005070102B01DA0C22F5E7FF2070BC704764792B
S315000050801546EDB2AC4200D1521C5B1CDBB2102BB4
S3150000509012DADFF8744703EB430504EB8504657900
S315000050A0FF2DF2D025780646B542E8D165780E4642
S315000050B0B542E4D16079E0E71046C0B2DDE770B4EE
S315000050C002460023164601E05B1CDBB2102B0EDA0B
S315000050D003EB43008000DFF83047255CB542F3D18F
S315000050E0204444780D46AC42EED170BC7047002097
S315000050F0FBE730B4002201E0521CD2B2102A12DAC9
S31500005100DFF8043702EB420403EB84035C79FF2CDF
S31500005110F2D01C780546AC42EED15C780D46AC4226
S31500005120EAD1FF20587130BC704770B504460D4671
S3150000513061782078FFF7DDFF002001E0401CC0B257
S31500005140102818DADFF8C01600EB400211EB8206D1
S315000051507179FF29F2D1052221463046FFF7F8FE84
S31500005160B56061782078FFF775FF707121460020E1
S31500005170BDE870403AE170BDF8B504460D461646E6
S3150000518069782878FFF7B5FF002001E0401CC0B21F
S3150000519010281DDADFF8701600EB400211EB8207CB
S315000051A07979FF29F2D1052229463846FFF7D0FE44
S315000051B0BE60200002D0FF20787104E0697828786C
S315000051C0FFF748FF787129462046BDE8F4400DE117
S315000051D0F1BD38B5DFF82C4600F02CFB2071E068F5
S315000051E0002815D06069002812D000250BE0DFF8F2
S315000051F01C26E0682946C9B201EB810101442079E9
S31500005200FFF7BAFF6D1C28462178C0B28842EED35C
S3150000521031BD2DE9F84F80460C4615461E46200046
S315000052203BD0DFF8E07500F005FB3871A3460BEBC9
S315000052308B0080B204F08AFCF86000282DD0A146CD
S3150000524009EB89024146FFF783FE4FF00C0A0AFB81
S315000052500BFB584604F07AFC786100281DD03C70A0
S3150000526000220AFB09F9494605F050FEDFF8A005C1
S315000052700560BE6000250BE0DFF890252846C0B229
S3150000528000EB800008EB00013879FFF775FF6D1C15
S3150000529028462146C0B28842EED3BDE8F18F2DE9FB
S315000052A0F04105460C0022D0264606EB860080B269
S315000052B004F04CFCDFF84C753861002814D0A04689
S315000052C008EB88022946FFF743FE0A256E4330465F
S315000052D004F03CFCB861002806D0002205FB08F863
S315000052E04146FFF701FE7C70BDE8F041E9E0BDE80C
S315000052F0F08180B5FFF76DFFBDE80140E1E00000F9
S31500005300401E04280ED8DFE800F0030507090B004D
S315000053100220704704207047082070470A20704713
S3150000532007207047012070477047704738B504461C
S31500005330DFF8E004407B012815D0002511E0DFF8F6
S31500005340C80405EB450110EB8102507921468842DD
S3150000535006D19068002803D051781078926890475B
S315000053606D1C102DEBDB31BD10B40020FF22DFF8E1
S31500005370983405E001EB410403EB84014A71401CBB
S315000053800146C9B21029F5DB10BC704730B585B0AF
S3150000539005460C4668460FF288411422FFF7E8FDE1
S315000053A0FFF776F8002800D168462946027991422F
S315000053B003D121464279914205D081788D4205D1AB
S315000053C0C1788C4202D10078FFF726FB05B030BDCC
S315000053D038B504460D46FFF7A7FF29462046FFF7D6
S315000053E0D5FF29462046BDE834409EE7FEB5044673
S315000053F00F4601252E461920FFF7F6FD1920FFF767
S31500005400E3FD1A20FFF7F0FD1A20FFF7DDFD294620
S315000054101420FFF718FE4AF23450DFF8FC13086038
S3150000542079783878FFF7D4FFB878FFF769FF024636
S31500005430FB787978387803F02EFE002C40D1797805
S315000054403878FFF73CFE040021D0DFF8D0136079EE
S3150000545004F037FB2079002801D1002502E001285D
S3150000546000D1002631460846401E8041C043C00F89
S315000054702A461146491E8941C943C90F0022019295
S3150000548000900B4662796178207803F0D2FD002CFB
S3150000549012D03046401E8041C043C00F2946491EE7
S315000054A08941C943C90F0122019200900B466279D6
S315000054B06178207803F0BDFDBDE8F74004F0F3BA4B
S315000054C0F7BDF8B501211420FFF7BDFD4AF23450AF
S315000054D0DFF8441308600024DFF8285314E004EBD7
S315000054E0840628698719B878FFF70AFFFB78024611
S315000054F07978387803F0CFFD286981194978805D7D
S31500005500FFF766FF641CE4B268788442E7DBF1BD0E
S3150000551038B5DFF8F042A170E07000F08BF9207129
S3150000552000250CE0DFF8E00205EB450100EB810108
S315000055304879FF2802D02079FFF758FF6D1C102DFF
S31500005540F0DBBDE83140BCE780B5FFF75EFDC0B2D9
S3150000555002BD2DE9F84304460D4600273E46DFF816
S31500005560A4823BE00021D8F8140006EB46024FEA7D
S31500005570820910F80920002A47D0012A21D148447F
S3150000558082680B46012B12D1012712F1010F23D09D
S3150000559029468A1882609E48006890421CD2D8F834
S315000055A00830002B18D039463046984714E0984802
S315000055B00068904205D2D8F80830002B01D030465A
S315000055C09847D8F81400002100F80910083040F870
S315000055D0091001E000209060761CF6B298F80000F1
S315000055E0864226DAD8F80C0006EB860100EB0109A4
S315000055F099F8011099F80000FFF707FDC0B299F875
S3150000560004108842AED10121ADE700EB0902012961
S31500005610E0D1012100F8091092687D4800689042A7
S3150000562005D2D8F80830002B01D03046984701271C
S31500005630D2E7002F03D100F0FDF8002805D0294657
S315000056402046BDE8F44300F056BDBDE8F18318B42A
S315000056506C4A03465478A3420CD2126900EB8000D0
S3150000566002441079012907D1012807D05178107812
S3150000567014BCD2E411BC70470028F7D151781078D9
S3150000568014BCD5E42DE9F84304460D4600263746FA
S31500005690DFF870810FE031463846FFF7D8FF08E0A3
S315000056A0491E8180407A0028F5D100213846FFF74F
S315000056B0CEFF7F1CFFB298F80100874242DA07EB63
S315000056C087004FEA4009D8F8180000EB09018888DE
S315000056D00028EED00126CA88087A002810462B46F4
S315000056E011D1984206D3521BCA8000213846FFF7D3
S315000056F0AEFFDEE7304608720888C8803146384675
S31500005700FFF7A5FF10E0984206D3521BCA80314628
S315000057103846FFF79CFFCCE7002008724888C8800F
S3150000572000213846FFF793FFD8F8180048448188CF
S315000057300A46012AB4DD4FF6FF729142B9D0491EDE
S315000057408180B6E7002E05D029462046BDE8F44301
S3150000575000F0D1BCBDE8F18378B42A4C6578A84244
S315000057601BDAA56900EB800605EB4605A88800282C
S3150000577000D1E98029806A804FF6FF7019460246FB
S31500005780914202D05B00AB8000E0A880049868726A
S315000057900121A07874BC00F0AEBC71BC7047194AF8
S315000057A05378984211DA926900EB800302EB4302C8
S315000057B011720023938051721946D180517A0029C3
S315000057C001D1194643E7012141E770470D494A785F
S315000057D090420ADA896900EB800201EB4200808878
S315000057E0401E8041C043C00F704700207047000034
S315000057F080E100E080E200E000C0034000E00340FA
S3150000580000D00340F06C00200C6D002049500000D1
S315000058101C6000204C72002000C303402D53000082
S31500005820000100050006000000C2010000010000A2
S31500005830000000000020704713B582B0040000206D
S31500005840ADF804003120009003AB01224FF4A061B3
S315000058502000C0B202F0F4FD1920009001AB022234
S315000058604FF4A0612000C0B202F0EAFD1FBDF8B5FA
S3150000587004000D00DFF8387479793879FFF764FE93
S315000058800600F8783100C9B288420FD1B8780128ED
S3150000589003D12A2000F059FC17E001207870DFF8C8
S315000058A01424C8212A2000F037FC0EE0B87800281E
S315000058B003D12A2000F049FC07E000207870DFF8C9
S315000058C0F423C8212A2000F027FCF1BDF8B5040016
S315000058D00D00DFF8E47379793879FFF735FE0600B5
S315000058E0F8783100C9B288420FD1B878012803D1BF
S315000058F0292000F02AFC17E001207870DFF8B42395
S31500005900C821292000F008FC0EE0B878002803D151
S31500005910292000F01AFC07E000207870DFF89423B5
S31500005920C821292000F0F8FBF1BD2DE9F0439DB018
S31500005930DFF88843208800F01AFA002872D000F0B9
S3150000594042FE05002288DE490020FFF784F9280080
S31500005950C0B2052803D02800C0B2072806D101200E
S3150000596000F0F3F9002801D100F06EF80026742744
S315000059705FF00008E946424639004846FFF7B4FAA8
S3150000598001208DF8080001208DF8070000208DF811
S31500005990050001208DF8060000208DF80A004FF45E
S315000059A0A060ADF80E0001208DF80C000020ADF8C7
S315000059B000000020ADF80200208869463200D2B20D
S315000059C01144C874761C208880B2000A69463200E9
S315000059D0D2B21144C874761C002069463200D2B295
S315000059E01144C874761C012000F01FF86946320085
S315000059F0D2B21144C874761C002069463200D2B275
S31500005A001144C874761C002069463200D2B2114493
S31500005A10C874761C8DF8126040F6B83200216846CC
S31500005A2001F0C0FD1DB0BDE8F0831CB504000120E7
S31500005A30009001AB11224FF4A0612000C0B202F029
S31500005A4014FD9DF8040016BD2DE9F8419DB01524FE
S31500005A50002574260027E8463A0031004046FFF745
S31500005A6043FA01208DF8080001208DF80700012077
S31500005A708DF8050001208DF8060000208DF80A003B
S31500005A804FF4A060ADF80E0001208DF80C00002048
S31500005A90ADF800000020ADF8020068462900C9B242
S31500005AA00844C4746D1C200080B2000A69462A00AE
S31500005AB0D2B21144C8746D1C022069462A00D2B2C3
S31500005AC01144C8746D1C102069462A00D2B21144D4
S31500005AD0C8746D1C8DF8125040F6B8320021684625
S31500005AE001F060FD1EB0BDE8F08138B5704C2000B5
S31500005AF0FEF790FE002805D06F4D2800FEF78AFEBF
S31500005B00002800D142E06078002806D16B490A8857
S31500005B104FF6FE7002400A8004E06848018851F0A2
S31500005B20010101806878002806D164490A884FF689
S31500005B30FB7002400A8004E06048018851F00401CD
S31500005B4001805E4C227812F001025E490020FFF7C8
S31500005B5082F801210120FFF722FE5B4D2A00C821B1
S31500005B60242000F0D9FA2088C0F3800292B2574967
S31500005B700020FFF770F801210220FFF710FE2A002F
S31500005B80C821272000F0C8FAFFF7CFFE31BD10B5B7
S31500005B9004002000C0B2092807D02000C0B208289F
S31500005BA003D02000C0B20A2802D1012000F001F87B
S31500005BB010BD38B584B004000821002202AD2800CB
S31500005BC0FFF792F91520ADF80400F020009002AB23
S31500005BD010224FF4A0612000C0B202F031FC312047
S31500005BE0009001AB01224FF4A0612000C0B202F088
S31500005BF027FCFF212000C0B200F007F8002120009A
S31500005C00C0B200F00FF805B030BD13B50400202077
S31500005C10009001AB11224FF4A0612000C0B202F047
S31500005C200FFC13BD13B504003020009001AB002219
S31500005C304FF4A0612000C0B202F002FC13BD7CB597
S31500005C401B4D69792879FFF77FFC0400E87821006D
S31500005C50C9B2884205D11948018851F00101018075
S31500005C6005E016490A884FF6FE7002400A80124E79
S31500005C7071793079FFF768FC0500F0782900C9B220
S31500005C80884205D10D48018851F00401018005E0E4
S31500005C900A490A884FF6FB7002400A8019200090D4
S31500005CA0064B02224FF4A061012002F0C9FB73BD2E
S31500005CB0A46C00208D450000B46C00205EBF00205F
S31500005CC0808103009C81030055470000BC810300CE
S31500005CD070B5040025696679A878002803D00228E3
S31500005CE022D020D321E062886179207901F082FBFD
S31500005CF06868007800280BD101213000C0B2FFF798
S31500005D0091FF686841783000C0B2FFF77EFF09E076
S31500005D1000213000C0B2FFF785FFFF213000C0B27E
S31500005D20FFF773FF01E000E0FFE770BD10B5040068
S31500005D30200080B2102807D1012000F006F80028C4
S31500005D4001D1FFF781FEFFE710BD1CB5040000205E
S31500005D508DF804000120009001AB00224FF4A061F1
S31500005D602000C0B202F081FB9DF8040016BD01B50B
S31500005D7082B01920009002AB02224FF4A0610120EC
S31500005D8002F05EFB01200EBD0901020003D4DFF81C
S31500005D90380581547047DFF8340502F00F021044CD
S31500005DA000F8041C704742F21402815070474069A3
S31500005DB0704780B5002000F0C8F90020BDE8024019
S31500005DC08EE180B5012000F0C0F90120BDE8024057
S31500005DD086E180B5022000F0B8F90220BDE8024055
S31500005DE07EE180B5032000F0B0F90320BDE8024053
S31500005DF076E180B5042000F0A8F90420BDE8024051
S31500005E006EE180B5052000F0A0F90520BDE802404E
S31500005E1066E180B5062000F098F90620BDE802404C
S31500005E205EE180B5072000F090F90720BDE802404A
S31500005E3056E180B5082000F088F90820BDE8024048
S31500005E404EE180B5092000F080F90920BDE8024046
S31500005E5046E180B50A2000F078F90A20BDE8024044
S31500005E603EE180B50B2000F070F90B20BDE8024042
S31500005E7036E180B50C2000F068F90C20BDE8024040
S31500005E802EE180B50D2000F060F90D20BDE802403E
S31500005E9026E180B50E2000F058F90E20BDE802403C
S31500005EA01EE180B50F2000F050F90F20BDE802403A
S31500005EB016E180B5102000F048F91020BDE8024038
S31500005EC00EE180B5112000F040F91120BDE8024036
S31500005ED006E180B5122000F038F91220BDE8024034
S31500005EE0FEE080B5132000F030F91320BDE8024033
S31500005EF0F6E080B5142000F028F91420BDE8024031
S31500005F00EEE080B5152000F020F91520BDE802402E
S31500005F10E6E080B5162000F018F91620BDE802402C
S31500005F20DEE080B5172000F010F91720BDE802402A
S31500005F30D6E080B5182000F008F91820BDE8024028
S31500005F40CEE080B5192000F000F91920BDE8024026
S31500005F50C6E080B51A2000F0F8F81A20BDE8024025
S31500005F60BEE080B51B2000F0F0F81B20BDE8024023
S31500005F70B6E080B51C2000F0E8F81C20BDE8024021
S31500005F80AEE080B51D2000F0E0F81D20BDE802401F
S31500005F90A6E080B51E2000F0D8F81E20BDE802401D
S31500005FA09EE080B51F2000F0D0F81F20BDE802401B
S31500005FB096E080B5202000F0C8F82020BDE8024019
S31500005FC08EE080B5212000F0C0F82120BDE8024017
S31500005FD086E080B5222000F0B8F82220BDE8024015
S31500005FE07EE080B5232000F0B0F82320BDE8024013
S31500005FF076E080B5242000F0A8F82420BDE8024011
S315000060006EE080B5252000F0A0F82520BDE802400E
S3150000601066E080B5262000F098F82620BDE802400C
S315000060205EE080B5272000F090F82720BDE802400A
S3150000603056E080B5282000F088F82820BDE8024008
S315000060404EE080B5292000F080F82920BDE8024006
S3150000605046E080B52A2000F078F82A20BDE8024004
S315000060603EE080B52B2000F070F82B20BDE8024002
S3150000607036E080B52C2000F068F82C20BDE8024000
S315000060802EE080B52D2000F060F82D20BDE80240FE
S3150000609026E080B52E2000F058F82E20BDE80240FC
S315000060A01EE080B52F2000F050F82F20BDE80240FA
S315000060B016E080B5302000F048F83020BDE80240F8
S315000060C00EE080B5312000F040F83120BDE80240F6
S315000060D006E080B5322000F038F83220BDE80240F4
S315000060E00146332906DADFF8EC2152F8211000299F
S315000060F000D0084770476FF0004291420BD2332818
S3150000610009DADFF8D42102EBC000002901D104F03E
S315000061102DBF04F035BF704738B5044615466FF0FD
S315000061200040814210D2332C0EDADFF8AC0100EBCE
S31500006130C400002902D104F019FF01E004F020FF99
S31500006140DFF8900140F8245031BD332804DA0021ED
S31500006150DFF8842102F830107047332808DA00216E
S31500006160DFF8742102F83010DFF8682142F82010B9
S315000061707047332807DADFF8601111F8300000287D
S3150000618001D00120704700207047332805DADFF878
S31500006190481101EBC00004F000BF4FF0FF3070471C
S315000061A0DFF83801016841F08051016004216FF089
S315000061B00100E9E5DFF828114860F1E770B5002431
S315000061C014E0002503F027F9DFF8181111EB041687
S315000061D0B17B002902D001250021B17303F021F91A
S315000061E0002D02D02046B1688847641C202CE8DBCD
S315000061F070BD10B5DFF8E8402068002800D0804761
S315000062006068002800D08047DFF8D000016801F000
S315000062106041016010BD04F0CCBF38B5DFF8C8207E
S315000062201068401C10600A21B0FBF1F101EB8103FC
S31500006230B0EB43000DD15068401C50604FF47A71AA
S31500006240B0FBF1F301FB1300002802D19068401C5B
S31500006250906000240FE0491E516004E02946517306
S31500006260012191730D4603F0DCF8002D02D01F4882
S31500006270FFF7A0FF641C202C11DA002503F0CBF8F1
S31500006280184901EB0412517B0029ECD05168002912
S31500006290E1D1117B0029E1D111685160E0E731BD00
S315000062A038B50B4D2846FFF782FD044621462846A1
S315000062B0FFF779FD0E484168002903D02046BDE866
S315000062C03440084731BD000000E400E018ED00E06E
S315000062D000C0044070710020D86F002004ED00E07B
S315000062E03C720020CC6D0020CC6F0020BD61000008
S315000062F044720020BFF34F8FDFF8481A0A6802F491
S31500006300E062DFF8100B02430A60BFF34F8F00BF55
S31500006310FDE700B589B00022102105A804F0F6FDBE
S3150000632000221121684604F0F1FD102305AA7F2101
S31500006330072005F093F811236A467F21062005F011
S315000063408DF809B000BD30B589B04FF6FF752C4603
S31500006350DFF8F409807D002846D0DFF8F0094078A0
S31500006360022841D110237F220721684605F03CF818
S3150000637011237F22062104A805F036F8BDF8000097
S31500006380002831D0A8422FD0BDF8060000282BD017
S31500006390A84229D0DFF8800A00680078002803D1D7
S315000063A002208DF805000AE0012803D103208DF8AC
S315000063B0050004E0022802D104208DF80500102310
S315000063C06A467F21072005F049F8112304AA7F2198
S315000063D0062005F043F8641E204680B20028FAD154
S315000063E000F075FFFFF786FF09B030BD1FB5DFF877
S315000063F05C49AA2020702079C043E0700022102159
S31500006400684604F083FD052221466846FEF7A0FD96
S3150000641010236A467F215F2005F020F81FBD1FB5B7
S3150000642010237F225F21684604F0DEFFDFF81C4957
S31500006430052269462046FEF78BFD2078AA280AD059
S31500006440002205212046FEF74FFDAA202070207964
S31500006450C043E07009E0E0782179C943C9B28842B7
S3150000646003D000202071FF20E0702079C0F34000A7
S31500006470002803D00020DFF8D018C8761FBD10B55D
S3150000648004460D20FFF775FE002805D1DFF8E80A5F
S315000064908168007900F042FA2046BDE8104005F018
S315000064A047B880B5FFF7B7FEDFF80C1B086001BDE3
S315000064B080B5FFF7B0FEDFF8001B0968884201D3FC
S315000064C0401A02E0401E401A401C40F6B93188428C
S315000064D08041C00F02BD10B50446DFF870082146A2
S315000064E00279C2F34002914205D0017964F3410179
S315000064F00171FFF77BFF002C0ED04FF48271DFF89D
S315000065007C0A0068007805F034FE0020FFF7B7FF2C
S315000065100020DFF83418C87610BDDFF8300881781F
S31500006520012902D00121817060E77047DFF81C184D
S315000065308878002802D00020887057E77047DFF877
S315000065400808407E401E8041C00F704738B50120C4
S31500006550DFF8241A0870DFF83C4B0020A07305F022
S31500006560D9FF0546801E012818D806F08DFBA081AC
S3150000657006F020FDA072022000F091F84FF4FA60B8
S3150000658006F0DAFDDFF8402B00F56850983001463A
S315000065900320FFF7C1FD00F0B7FA0CE0012000F080
S315000065A07EF82078002804D06168002000F0A4F965
S315000065B001E0FFF7C8FE657231BD01460822DFF82B
S315000065C0D40AFEF7D5BCDFF8CC0A807B7047F8B555
S315000065D000221021684604F099FC10237F2207212F
S315000065E0684604F001FFBDF8000000280AD04FF607
S315000065F0FF71884206D0DFF89C0A8089BDF800103A
S3150000660088420FD000F0BAF800F0CEF8092000F06A
S31500006610C3F905F087FEFFF74BFF002802D10020E3
S31500006620FFF759FF05B000BD80B50146092912D113
S315000066300220DFF818174870122002F0A1F8DFF8E0
S315000066400807807D002802D1092000F0A5F9BDE8E1
S315000066500140CBE601BD08290BD10120DFF8EC167D
S315000066604870132002F08CF8FFF753FEFFF7AFFFD8
S31500006670EDE70A28EED10020DFF8D0164870FFF7C4
S3150000668048FEFFF7A4FFE2E780B505F043FF0228C6
S3150000669003D0032801D0002002BD012002BD38B579
S315000066A00446FFF790FF2146884266D0DFF8E4599A
S315000066B0AC73204602F0A8FA2046FFF7B5FF204645
S315000066C00B2801D1FFF729FF2046052801D007280E
S315000066D003D10021084600F029FF2046022801D0F8
S315000066E0052810D1022005F0FEFD00280BD0DFF8AA
S315000066F05C0A00680078022805D0032004F0CAFB73
S31500006700C0B206F0F9FEA87B06F02EFFDFF83C5A71
S3150000671028680078002802D0204602282DD020467E
S31500006720062806D107F07BF81120BDE8324002F0BA
S3150000673027B8022803D0052801D007281DD1DFF885
S3150000674038088168007900F0E9F8204602280FD160
S315000067502868007800280BD140F2DC5006F0ECFCEB
S31500006760DFF8642900F6AC5001460D20FFF7D4FC93
S315000067702046BDE8324006F0B9BF31BD1FB5002442
S315000067800BE069462046C0B207F0C8F9002803D1DD
S315000067902046C0B207F01BFA641C2046C0B23C2853
S315000067A0EFDB07F039FB1FBDF0B58BB0002411E01D
S315000067B02C232246D2B26121684604F015FE002041
S315000067C08DF800002C236A462146C9B2612004F0E8
S315000067D045FE641C2046C0B23C28E9DBDFF8704960
S315000067E000202070012322467F21602004F036FE1F
S315000067F00025DFF8887712E02E46F6B236013868B3
S31500006800805D00280AD001237F226021204604F003
S31500006810EBFD21783868805D07F038FB6D1C284653
S31500006820DFF830190978C0B28842E5D30BB0F0BD65
S3150000683080B500F009F80920BDE802402FE780B5D1
S31500006840FFF767FDBDE8014080B50C20FFF77DFC32
S315000068500021084600F06AFE07F02FFE0020DFF850
S31500006860F8180870FFF71BFF002002BD0146DFF88D
S3150000687058280C20FFF750BC80B50220FFF765FCB6
S3150000688040F6B830FFF7F2FF0120DFF8AC180876C3
S3150000689001BD38B50446FFF796FE032801D1002056
S315000068A032BDDFF8F057002C03D1DFF8B0082861BD
S315000068B000E02C6104F07DFC686101202872DFF89D
S315000068C0084822464FF47A710220FFF725FC22463B
S315000068D029691B20FFF720FC012032BD80B5FFF798
S315000068E0D8FF002806D0FFF7A3FF0320FFF7D7FE47
S315000068F0012002BD002002BD10B504460846FFF780
S31500006900C8FF002808D0012C01D1FFF798FF03200B
S31500006910FFF7C5FE012010BD002010BD70B505466D
S315000069200C46DFF8546600220821301DFEF7DCFA1B
S3150000693005F0F0FD6FF000418C4200D3641E317902
S31500006940022901DB002070BD002C0AD1DFF8C81433
S3150000695009680978022902D1DFF8084801E0DFF862
S3150000696008483571B460002801D1012070BD41F29C
S315000069708830DFF8A41409680978022904D006F0E3
S31500006980DBFB00F51C501030DFF83C2701460D20DC
S31500006990FFF7C2FB012070BD1CB500282FD00128CF
S315000069A05CD0022860D003286DD009287BD10B204B
S315000069B08DF8040004F0C9FDDFF88C4394F9120049
S315000069C000280AD094F91310002906D000F0A4FE7E
S315000069D094F912008DF8040002E00B208DF80400F3
S315000069E013219DF9040000F097FE2020009001ABD2
S315000069F04FF6DE720021012001F022FD13BD0B20AF
S31500006A008DF804000024FFF73FFE002806D004F0AE
S31500006A1091FD8DF8040006F0CDFA04469DF80400B9
S31500006A20C01E112802D30B208DF804001A2C06D1A3
S31500006A309DF804000B2802DB0A208DF804001321C0
S31500006A409DF9040000F068FE2020009001AB4FF68F
S31500006A50DE720021012001F0F3FC13BDBA4890F963
S31500006A60110004F084FD13BDDFF8004720780028EC
S31500006A7006D04FF4FA7000F05AFE0020207013BDC5
S31500006A800120207013BDDFF8C406006800780228D4
S31500006A9009D0012807D005F012FF002803D04FF4D3
S31500006AA0FA7000F044FE13BD80B504F082FBDFF8F7
S31500006AB088265169401A1169884206D34FF47A71C3
S31500006AC0022000F03DF8012002BD002002BD80B585
S31500006AD0FFF7DAFD002811D006F0CEF8DFF88026A1
S31500006AE05189002901D1508101BD03468B4205D051
S31500006AF050811620BDE8024001F042BE01BD0020D3
S31500006B00DFF85C164881704790480079C00706D4C4
S31500006B10DFF8B425DFF858161C20FFF7FDBA7047DA
S31500006B2080B51C20FFF711FB88480179CA0706D5F6
S31500006B3001F0FE010171BDE80140FFF757BC01BD40
S31500006B4038B505F0E7FC0446DFF84855022C3CD181
S31500006B50FFF7D5FF0220FFF700FB00202861287A07
S31500006B6001280FD10021084600F0E0FCFFF72FFDB9
S31500006B700120FFF711FF012002F084FC0520FFF73A
S31500006B808EFD0EE0A87B062806D1022002F07AFCD4
S31500006B900720FFF784FD04E0052802D0022002F05A
S31500006BA071FC0020287206F06FF8A88106F002FA40
S31500006BB0A872DFF8C02547F230511B20FFF7ACFA68
S31500006BC0FFF785FFFFF7A0FF50E0002C3AD1002029
S31500006BD05D49C877287A002813D004F0EAFA696973
S31500006BE0401A2969884209D30420FFF758FD08F0A6
S31500006BF004F900202872FFF7A6FB37E008F0D7F863
S31500006C0034E0A87B022807D0052805D0072803D042
S31500006C10062801D0002829D1287E00280CD108F0AA
S31500006C204AFA0820FFF73BFD687800281ED06968FD
S31500006C300120FFF761FE19E0002028760A20FFF701
S31500006C402EFD13E0032C06D1062002F01BFC0620C5
S31500006C50FFF725FD0AE0042C08D1052002F012FCFE
S31500006C60DFF81025C8210220FFF756FA6C7231BDF5
S31500006C7001B5002805D10120DFF8E414C87701F03A
S31500006C80C4FD6946032001F008FD01BD31B542F29D
S31500006C90107006F051FA044604F5985488349DF8AD
S31500006CA00000002818D101202749C877B24C0020DF
S31500006CB020704EF66025284606F03EFA0146691811
S31500006CC0DFF8B0241E20FFF727FAA46847F23050F9
S31500006CD006F032FA041915E0DFF89C14087800284B
S31500006CE006D0421E0A70D2B24FF47A7000FB0244FC
S31500006CF00878002806D1A048846847F2305006F08C
S31500006D001BFA041905F006FC022806D1DFF86424F4
S31500006D1021460D20FFF700FA0EE003280CD1964815
S31500006D20846847F2305006F007FADFF84824041961
S31500006D3021460D20FFF7F0F96946032001F0ADFC6E
S31500006D4031BD00000CED00E04C7200208072002086
S31500006D5000B59FB00120009001AB0246002109F06A
S31500006D6079F8002854D10022742102A804F0CEF844
S31500006D7001208DF80C008DF8100000208DF812000F
S31500006D80ADF816008DF80E0001208DF80F000A20D0
S31500006D908DF80D0001208DF81400002002900320CC
S31500006DA08DF81A000120ADF81C0020208DF81E0079
S31500006DB001208DF81F009DF804008DF820004FF685
S31500006DC0E270ADF8280020208DF82A000DF12A0087
S31500006DD0012141701F2181704FF6E471418120210C
S31500006DE001730121417364490A7882730878012886
S31500006DF007D14FF47A72DFF8841302A800F0D2FBB1
S31500006E0006E040F6B832DFF8781302A800F0CAFBB5
S31500006E101FB000BD0400FA057472002018B5A1B0B9
S31500006E200FF2A44000788DF80D000FF2A040007814
S31500006E308DF80C0000200290012001900DF10D004C
S31500006E400090402321220121084608F0F5FF044660
S31500006E50002002900120019003A8009040232022E8
S31500006E600121084608F0E8FF84424DD1002C4BD1A1
S31500006E700022742104A804F049F89DF80C209DF81E
S31500006E800D1004A809F0BDF9002833D101208DF8B2
S31500006E9014008DF8180000208DF81A000120ADF8B6
S31500006EA01E008DF81C0000208DF8160001208DF8BC
S31500006EB017000A208DF815000020049002208DF896
S31500006EC022002120ADF8240020208DF82600012084
S31500006ED08DF827009DF80D008DF828002020ADF8CC
S31500006EE030008DF832000DF13200012141709DF81D
S31500006EF00C10817040F6B832A24904A800F052FB8B
S31500006F000021084601F0C9FB22B010BD7FB5002460
S31500006F102546264617E069463046C0B209F0EFFC22
S31500006F2000280FD1BDF800004FF6FF71884209D046
S31500006F30641C9DF80400002804D19DF8050007286C
S31500006F4000D16D1C761C05F0BAFC3146C9B28142EF
S31500006F50E1D32046C0B2002805D0E4B2EDB2AC427F
S31500006F6001D1012000E0002004B070BD0146814A35
S31500006F700D20FFF7D1B80000E06C002068AD0020BE
S31500006F8010B5774CA07F002814D000F0C5F8002873
S31500006F9010D16E480068007802280BD0E07F0028E8
S31500006FA008D009F04BFD734A01460D20BDE810409C
S31500006FB0FFF7B2B810BD0000EC6C002038B505F044
S31500006FC0A9FA044600F0A8F8002814D0032002F01D
S31500006FD059FA002C5DD0042C5BD06B48846847F2CC
S31500006FE0305006F0A9F8634A041921460D20BDE881
S31500006FF03840FFF791B8644DA868002809D1534876
S3150000700000680078022802D15648A86001E0564878
S31500007010A860022C1ED10220FFF7BEFC28790028AA
S3150000702002D1FFF795FE0DE02879012808D14C48DA
S31500007030C07F002801D1FFF78BFEFFF7EFFE01E0CE
S3150000704000F08BFB414800680078012806D102F069
S3150000705059FB03E0032C01D102F051FC28780028EB
