S00F0000747579615F73646B2E73333781
S1134000B85E0020037F030005A402004F4F0000A8
S1134010A70A0A010042000004180FAC5065B00161
S1134020000000000000000000000000000000008C
S11340300000000074930300000000000000000072
S11340400000000000000000FFFFFFFFFFFFFFFF74
S1134050FFFFFFFF00600B000100000000000000F4
S1134060FFFFFFFFFFFFFFFF8000000000000000D4
S1134070000000000000000000000000000000003C
S11340800000000000000000F0D70020F0D700205E
S1134090B85E002068B10300987F030058550020E3
S10F40A07C3A002000E00B00000000004F
S1134200B85E0020037F030005A402004F4F0000A6
S1134210C74F0000978F0000C78F00000000000008
S113422000000000000000000000000047AF000094
S113423033B5000000000000F36100001B620000C1
S11342400FC500008BC9000027D50000DBD6000095
S11342507FE8000011E3020027890100A162000049
S113426007020100CF1101006B850100C94B00005A
S1134270E3380100054C00004B390100C34501003F
S11342804758010033590100FBA50100DBA80100D8
S1134290E7B60100FBB601006BCA0100B7CC010010
S11342A07BD10100319B0000159B0000FBD2010073
S11342B07BD70100F7F4010077F60100AF58030043
S11342C0635803006158030081540300AD58030090
S11342D0655803006958030067580300697E0300AA
S11342E0DF580300632D0200CB3A0200953D010024
S11342F0074802002B6502003794020007A402005D
S1134300B7A40200A7A502001FB30200C7B80200A9
S1134310BBDC020077DE020017EB020053ED020063
S11343201BEE0200EBEE0200EFF202002BFB020098
S113433017180300204810B4504A504C03E00340BF
S11343408B4210D0521E012A0FDB4D4B1B682342B7
S1134350F5D04C48034203D06FF0010010BC704705
S11343604FF0FF30FAE70020F8E76FF00200F5E7BE
S113437070B50E461446444D6860E868400702D59F
S113438020600A70BD56F8040BA860241F03E00ADD
S1134390101F002C08D008210846FFF7C9FF0100B0
S11343A0F3D00421296070BD04202860002121205D
S11343B0FFF7BE162304D10C5023BDE87040B6E7C6
S11343C070BD38B52F4CE5682D0C05F0010541F69C
S11343D07131E16201212B4A1160606002202036B4
S11343E012A3363203361005FFF79DFF0121242066
S11343F0200E002D01D00021E16232BD2DE9F843E9
S11344000546A0200E00201A4FD7F800804FEA1866
S11344104808F0010850123950121730102703E0F1
S11344204D444E44A4EB0904002C11D005F5005969
S11344304FEA59394FEA4939A9EB05094C4500D2ED
S1134440A1464A46314628BC1288701003E7D001C1
S1134450210A382002B8F1000F6A10133962BDE84E
S1134460F283000080969800060001001C000340BF
S11344700208121008130C1004000120034000006D
S113448080B500F005F8DFF8A80300F03BFA01BDA1
S11344902DE9F04385B014240025DFF89463370038
S11344A02A002100380000F01FFD6846DFF884135D
S11344B0142200F05DFD1427E846B1463A00414657
S11344C0484600F045FD300005B0BDE8F08380B5F6
S11344D000F015F80321DFF8600300F0E0FE0FF2AE
S11344E0691332220121DFF8540300F092FE00F038
S11344F068F9DFF84C13002000F0ADFB01BD2DE995
S1134500F0470020DFF83C1308801521012001F05A
S113451093F90524DFF83053DFF83063371DB846CC
S113452022002900404600F013FD0020F070DFF85F
S11345302003F060F168380000F0F7FD71793079FC
S113454001F002F830700526C24FDFF80C8318F131
S11345500409CA4632003900504600F0F9FC002034
S113456088F80300BD48C8F80C00D8F80C10484679
S113457000F0DBFD98F8051098F8040000F0E4FF63
S113458088F8000001F0B1FABDE8F08710B5040026
S11345902000C0B22A2828D12A2001F0D6FDAB4839
S11345A0417881704078002806D1A6490A884FF6E0
S11345B0FE7002400A8004E0A248018851F0010123
S11345C00180A048027812F00102A549002000F001
S11345D042FB0121012001F0E2F80FF27912C82117
S11345E0242001F099FD01F0A0F92000C0B229288F
S11345F029D1292001F0A9FD97484178817040789C
S1134600002806D18F490A884FF6FB7002400A80C1
S113461004E08C48018851F0040101808948008835
S1134620C0F3800292B28F49002000F014FB0121F4
S1134630022001F0B4F80FF21D12C821272001F066
S11346406BFD01F072F910BDF8B504000D00160001
S113465085480078002841D1002C3FD12800C0B201
S1134660012814D140F6B830864209D2002001F066
S1134670ADF8002831D10121002001F090F82CE0A0
S11346800FF2D1020021262001F046FD25E040F67C
S1134690B83086421DD2002001F098F8002803D1DA
S11346A00021002001F07BF801F08DFF07003800A5
S11346B0C0B2052807D03800C0B2072803D038009C
S11346C0C0B2062809D101F030F9012000F007F842
S11346D003E047F2305002F001F9FFE7F1BD2DE9A4
S11346E0F8419FB004000120009001AB2122012178
S11346F0012003F0BAFE07AD742600270DF1080867
S11347003A003100404600F0EFFB0A208DF80D001E
S113471001208DF80F0000208DF810008DF8144052
S11347200120ADF81600212028802020A870012047
S1134730E8709DF8040028719DF81A00401C8DF85B
S11347401A004FF4FA62002102A802F02BFF20B0F5
S1134750BDE8F0811CB504002000C0B2232807D0B6
S11347602ED3252829D00ED3272814D01BD327E0F5
S11347700021002001F013F800203B490870232099
S113478001F0E3FC1CE00021012001F008F82420E2
S113479001F0DBFC14E00021022001F000F82720E6
S11347A001F0D3FC0CE0002000904FF6FF73FA22D6
S11347B0FA21002000F0D0FF02E001F0B6F8FFE794
S11347C013BD80B594B00DA828491C2200F0D0FB7D
S11347D002A827492C2200F0CBFB2648D0E900236D
S11347E0CDE900230B2202A90DA804F019FA6846AA
S11347F004F08DFA032000F002F815B000BD01B5F5
S113480082B03020009002AB07220021012003F087
S113481017FE07BD0100C8780A78904202D1012032
S1134820487001E000204870487888700120704783
S1134830D46A002040800300208003001880030015
S1134840987F03005EBF002030800300A46C00202A
S11348506F58000038800300B46C0020CD5800006D
S1134860AC7F0300CC7F03004E680020548003001B
S1134870EC7F030070800300010008D4012200F0E3
S11348801F018A40DFF8E415400941F820207047F1
S1134890010008D4012200F01F018A40DFF8D0157E
S11348A0400941F8202070470901020003D4DFF8D1
S11348B0C40581547047DFF8C00502F00F021044AC
S11348C000F8041C7047DFF8B41508607047DFF87F
S11348D0B0150A6822EA000008607047DFF8A015E6
S11348E00A6810430860704742F2480281507047DA
S11348F0C26C22EA0101C1647047C26C1143C164F5
S11349007047704770B5040000F085802578022D4B
S113491080F2818040F62801DFF86C0501FB05F286
S113492086180022304600F0DFFA2078002805D1EE
S1134930DFF8580530602020307506E0012804D1E6
S1134940DFF84C053060212030752069C6F8240852
S1134950207B012802D0022803D005E04FF4007028
S113496003E04FF4407000E00020617B002904D094
S1134970022904D0032905D007E0002107E04FF401
S1134980005104E04FF4405101E04FF48051A27B08
S1134990012A01D1062200E00522A3687360708118
S11349A0B1813272607801280BD1A078B073E078BD
S11349B03074A079B0742079F07360797074E07900
S11349C0F074284600F088F8304600F095F8207816
S11349D0002804D10120DFF8AC14087005E0012898
S11349E003D10120DFF89C144870DFF89804807824
S11349F0012803D1717CF07B00F0EFF920780028C6
S1134A0004D103210B20BDE870404DE703210D20A4
S1134A10BDE8704048E770BD70B50146DFF8742406
S1134A2002EB4112136823F014031360DFF85834C7
S1134A3040F628044C43234494699D7B1E7C45EA3C
S1134A400645AC439461DB7B146943EA034324EADF
S1134A5003031361022929DA010012D1DFF82C447F
S1134A6004212046FFF744FF04212046FFF73CFFC2
S1134A700021204604F0BBF90120BDE8704004F099
S1134A808DBA012812D1DFF8084404212046FFF72B
S1134A902FFF04212046FFF727FF0021204604F0C2
S1134AA0A6F90220BDE8704004F078BA70BD0B4648
S1134AB01146020007D1DFF8CC030078012801D1A8
S1134AC018468DE070470128FCD1DFF8B803407820
S1134AD00128F7D11846A1E0DFF8AC2340F62801FD
S1134AE04843104400F6180100F118020A60183017
S1134AF0486000200881704730B587B00446684696
S1134B000FF29C311C2200F033FA002560680290F9
S1134B10207A8DF80D00A089ADF810006089ADF8F9
S1134B200E002068DFF86813884200D101250121B6
S1134B301420FFF7E6FE0121207DFFF7E2FE206846
S1134B4004F0DDF96946206804F063F96D01D14889
S1134B50411914220A60A27B237C42EA03428A613F
S1134B60E17B627C41EA024110304151012302227F
S1134B70617CE07B04F08FFA01230422217CA07B7A
S1134B8004F089FA2068C149884206D10B20FFF756
S1134B907FFE0B20FFF770FE05E00D20FFF778FE87
S1134BA00D20FFF769FE4FF0FF312068FFF79CFEF0
S1134BB00521206804F01BF904212068FFF79DFEFD
S1134BC004F000FA07B030BDB0488169090600D48A
S1134BD0704780B504F0D4F90021BDE8044047E0F3
S1134BE038B504460D46002C0BD0280009D014F823
S1134BF0011BA64804F0CAF96D1E284680B200289D
S1134C00F5D131BDA2488169090600D4704780B549
S1134C1004F0B6F90121BDE8044029E038B50446A2
S1134C200D46002C0BD0280009D014F8011B98481D
S1134C3004F0ACF96D1E284680B20028F5D131BDD0
S1134C4080B5084611468F4A1278012A01D1FFF730
S1134C50C7FF002002BD0CB480B5002801D101209B
S1134C6000E0022002AA04F0D1FB01BC5DF80CFBB9
S1134C7018B4854B0C4640F6280254431A1902F620
S1134C8018031C89B4F5006F0CD21C689C4201D334
S1134C9018321A601A6810701868401C1860188955
S1134CA0401C1881002901D10E2000E00F200FF2D2
S1134CB085020A2118BC01F02FBA70B5044604F02D
S1134CC0AAFB05467049224640F6280042438E1846
S1134CD0B6F82008002802D12046FFF7FDFEB6F8FA
S1134CE02048284604F09DFB204670BD38B5054693
S1134CF0002404F090FB644A40F628014D432A4402
S1134D0002F61C03998800290ED0196802F61804CB
S1134D10A14202D302F11801196019680C78491CE8
S1134D2019609988491E998004F07BFB204632BDA6
S1134D30000000002DE9F843534D41F250016C1876
S1134D4027460E2802D14FF0000801E04FF0010879
S1134D504046FFF7B2FF81464E4640F601018842C5
S1134D600CDA00280AD04046FFF7C0FF07F8010B11
S1134D70A9F10109484680B20028F4D140F6280080
S1134D8000FB08F805EB0800D0F82428002A04D01A
S1134D9031462046BDE8F8431047BDE8F1831828A2
S1134DA003D14FF4FA7004F071BC70473549CA78E6
S1134DB0012A00D1704780B50122CA703249497C6A
S1134DC00246914208D104F04AFE334A00211820D9
S1134DD0BDE8084001F0A0B901BD3EB504460D464A
S1134DE004F061FE012302222946204604F053F90F
S1134DF02A492846C0B204F064FE012001900090C4
S1134E0003462A462946204604F013F9012000FAF5
S1134E1005F52846FFF757FD2846BDE83E405DE509
S1134E2080B50220FFF74FFD0220BDE8024055E5A2
S1134E3080B50220FFF74BFD0220BDE8024042E5A9
S1134E4010B5124C04212046FFF752FD04212046E0
S1134E50BDE8104048E510B50C4C04212046FFF78E
S1134E6043FD04212046BDE8104046E500E100E092
S1134E7080E200E000E400E018ED00E020E40340FC
S1134E8024C40340B3D700205073002000800540A1
S1134E9000C00540ACC503409F4D0000AD4D00006F
S1134EA0050000000000000000C201000005000031
S1134EB000100000000000000000000038B5094C9C
S1134EC0A07801280DD104F0A6FA05460020E07070
S1134ED0FFF7A6FFFFF7B4FF2846BDE8324004F011
S1134EE0A0BA31BDB3D7002062F30F2262F31F4290
S1134EF0401810F0030308D0C91A1FD3DB0748BFBA
S1134F0000F8012D28BF20F8022D130030B41446F8
S1134F101546103928BF20E93C00FAD8490728BFB4
S1134F2020E90C0048BF40F8042D890028BF20F870
S1134F30022D48BF00F8012D30BC7047C91818BFB6
S1134F4000F8012DCB0728BF00F8012D7047FEE7BC
S1134F5062B38B0708D0521E11F8013B00F8013BE5
S1134F6000F024808B07F6D1830740F0208000BF37
S1134F70103A07D330B4B1E83810103AA0E838102A
S1134F80F9D230BC530724BFB1E80810A0E80810D8
S1134F9044BF51F8043B40F8043BD20724BF31F826
S1134FA0022B20F8022B44BF0B7803707047083A99
S1134FB007D3B1E80810083A40F8043B40F804CBA2
S1134FC0F7D25307E4E7FEE701000CD4012200F016
S1134FD01F018A40DFF81818400941F82020BFF368
S1134FE04F8FBFF36F8F7047010008D4012200F088
S1134FF01F018A40DFF8FC17400941F82020704760
S11350000068C84000F001007047DFF8EC2700EBAF
S1135010400302EB03101430F2E7012202FA01F11B
S1135020DFF8D82700EB400302EB0310016170475F
S1135030012202FA01F1DFF8C82700EB400302EB7A
S113504003100161704770470A21DFF8B807C07880
S113505001F051B870B400220B46042B02DB082B7C
S113506002DA0422002312E00C2B01DA0822F9E709
S1135070102B01DA0C22F5E7FF2070BC704764792D
S11350801546EDB2AC4200D1521C5B1CDBB2102BB6
S113509012DADFF8744703EB430504EB8504657902
S11350A0FF2DF2D025780646B542E8D165780E4644
S11350B0B542E4D16079E0E71046C0B2DDE770B4F0
S11350C002460023164601E05B1CDBB2102B0EDA0D
S11350D003EB43008000DFF83047255CB542F3D191
S11350E0204444780D46AC42EED170BC7047002099
S11350F0FBE730B4002201E0521CD2B2102A12DACB
S1135100DFF8043702EB420403EB84035C79FF2CE1
S1135110F2D01C780546AC42EED15C780D46AC4228
S1135120EAD1FF20587130BC704770B504460D4673
S113513061782078FFF7DDFF002001E0401CC0B259
S1135140102818DADFF8C01600EB400211EB8206D3
S11351507179FF29F2D1052221463046FFF7F8FE86
S1135160B56061782078FFF775FF707121460020E3
S1135170BDE870403AE170BDF8B504460D461646E8
S113518069782878FFF7B5FF002001E0401CC0B221
S113519010281DDADFF8701600EB400211EB8207CD
S11351A07979FF29F2D1052229463846FFF7D0FE46
S11351B0BE60200002D0FF20787104E0697828786E
S11351C0FFF748FF787129462046BDE8F4400DE119
S11351D0F1BD38B5DFF82C4600F02CFB2071E068F7
S11351E0002815D06069002812D000250BE0DFF8F4
S11351F01C26E0682946C9B201EB810101442079EB
S1135200FFF7BAFF6D1C28462178C0B28842EED35E
S113521031BD2DE9F84F80460C4615461E46200048
S11352203BD0DFF8E07500F005FB3871A3460BEBCB
S11352308B0080B204F08AFCF86000282DD0A146CF
S113524009EB89024146FFF783FE4FF00C0A0AFB83
S11352500BFB584604F07AFC786100281DD03C70A2
S113526000220AFB09F9494605F050FEDFF8A005C3
S11352700560BE6000250BE0DFF890252846C0B22B
S113528000EB800008EB00013879FFF775FF6D1C17
S113529028462146C0B28842EED3BDE8F18F2DE9FD
S11352A0F04105460C0022D0264606EB860080B26B
S11352B004F04CFCDFF84C753861002814D0A0468B
S11352C008EB88022946FFF743FE0A256E43304661
S11352D004F03CFCB861002806D0002205FB08F865
S11352E04146FFF701FE7C70BDE8F041E9E0BDE80E
S11352F0F08180B5FFF76DFFBDE80140E1E00000FB
S1135300401E04280ED8DFE800F0030507090B004F
S11353100220704704207047082070470A20704715
S113532007207047012070477047704738B504461E
S1135330DFF8E004407B012815D0002511E0DFF8F8
S1135340C80405EB450110EB8102507921468842DF
S113535006D19068002803D051781078926890475D
S11353606D1C102DEBDB31BD10B40020FF22DFF8E3
S1135370983405E001EB410403EB84014A71401CBD
S11353800146C9B21029F5DB10BC704730B585B0B1
S113539005460C4668460FF288411422FFF7E8FDE3
S11353A0FFF776F8002800D1684629460279914231
S11353B003D121464279914205D081788D4205D1AD
S11353C0C1788C4202D10078FFF726FB05B030BDCE
S11353D038B504460D46FFF7A7FF29462046FFF7D8
S11353E0D5FF29462046BDE834409EE7FEB5044675
S11353F00F4601252E461920FFF7F6FD1920FFF769
S1135400E3FD1A20FFF7F0FD1A20FFF7DDFD294622
S11354101420FFF718FE4AF23450DFF8FC1308603A
S113542079783878FFF7D4FFB878FFF769FF024638
S1135430FB787978387803F02EFE002C40D1797807
S11354403878FFF73CFE040021D0DFF8D0136079F0
S113545004F037FB2079002801D1002502E001285F
S113546000D1002631460846401E8041C043C00F8B
S11354702A461146491E8941C943C90F0022019297
S113548000900B4662796178207803F0D2FD002CFD
S113549012D03046401E8041C043C00F2946491EE9
S11354A08941C943C90F0122019200900B466279D8
S11354B06178207803F0BDFDBDE8F74004F0F3BA4D
S11354C0F7BDF8B501211420FFF7BDFD4AF23450B1
S11354D0DFF8441308600024DFF8285314E004EBD9
S11354E0840628698719B878FFF70AFFFB78024613
S11354F07978387803F0CFFD286981194978805D7F
S1135500FFF766FF641CE4B268788442E7DBF1BD10
S113551038B5DFF8F042A170E07000F08BF920712B
S113552000250CE0DFF8E00205EB450100EB81010A
S11355304879FF2802D02079FFF758FF6D1C102D01
S1135540F0DBBDE83140BCE780B5FFF75EFDC0B2DB
S113555002BD2DE9F84304460D4600273E46DFF818
S1135560A4823BE00021D8F8140006EB46024FEA7F
S1135570820910F80920002A47D0012A21D1484481
S113558082680B46012B12D1012712F1010F23D09F
S113559029468A1882609E48006890421CD2D8F836
S11355A00830002B18D039463046984714E0984804
S11355B00068904205D2D8F80830002B01D030465C
S11355C09847D8F81400002100F80910083040F872
S11355D0091001E000209060761CF6B298F80000F3
S11355E0864226DAD8F80C0006EB860100EB0109A6
S11355F099F8011099F80000FFF707FDC0B299F877
S113560004108842AED10121ADE700EB0902012963
S1135610E0D1012100F8091092687D4800689042A9
S113562005D2D8F80830002B01D03046984701271E
S1135630D2E7002F03D100F0FDF8002805D0294659
S11356402046BDE8F44300F056BDBDE8F18318B42C
S11356506C4A03465478A3420CD2126900EB8000D2
S113566002441079012907D1012807D05178107814
S113567014BCD2E411BC70470028F7D151781078DB
S113568014BCD5E42DE9F84304460D4600263746FC
S1135690DFF870810FE031463846FFF7D8FF08E0A5
S11356A0491E8180407A0028F5D100213846FFF751
S11356B0CEFF7F1CFFB298F80100874242DA07EB65
S11356C087004FEA4009D8F8180000EB09018888E0
S11356D00028EED00126CA88087A002810462B46F6
S11356E011D1984206D3521BCA8000213846FFF7D5
S11356F0AEFFDEE7304608720888C8803146384677
S1135700FFF7A5FF10E0984206D3521BCA8031462A
S11357103846FFF79CFFCCE7002008724888C88011
S113572000213846FFF793FFD8F8180048448188D1
S11357300A46012AB4DD4FF6FF729142B9D0491EE0
S11357408180B6E7002E05D029462046BDE8F44303
S113575000F0D1BCBDE8F18378B42A4C6578A84246
S11357601BDAA56900EB800605EB4605A88800282E
S113577000D1E98029806A804FF6FF7019460246FD
S1135780914202D05B00AB8000E0A880049868726C
S11357900121A07874BC00F0AEBC71BC7047194AFA
S11357A05378984211DA926900EB800302EB4302CA
S11357B011720023938051721946D180517A0029C5
S11357C001D1194643E7012141E770470D494A7861
S11357D090420ADA896900EB800201EB420080887A
S11357E0401E8041C043C00F704700207047000036
S11357F080E100E080E200E000C0034000E00340FC
S113580000D00340F06C00200C6D002049500000D3
S11358101C6000204C72002000C303402D53000084
S1135820000100050006000000C2010000010000A4
S1135830000000000020704713B582B0040000206F
S1135840ADF804003120009003AB01224FF4A061B5
S11358502000C0B202F0F4FD1920009001AB022236
S11358604FF4A0612000C0B202F0EAFD1FBDF8B5FC
S113587004000D00DFF8387479793879FFF764FE95
S11358800600F8783100C9B288420FD1B8780128EF
S113589003D12A2000F059FC17E001207870DFF8CA
S11358A01424C8212A2000F037FC0EE0B878002820
S11358B003D12A2000F049FC07E000207870DFF8CB
S11358C0F423C8212A2000F027FCF1BDF8B5040018
S11358D00D00DFF8E47379793879FFF735FE0600B7
S11358E0F8783100C9B288420FD1B878012803D1C1
S11358F0292000F02AFC17E001207870DFF8B42397
S1135900C821292000F008FC0EE0B878002803D153
S1135910292000F01AFC07E000207870DFF89423B7
S1135920C821292000F0F8FBF1BD2DE9F0439DB01A
S1135930DFF88843208800F01AFA002872D000F0BB
S113594042FE05002288DE490020FFF784F9280082
S1135950C0B2052803D02800C0B2072806D1012010
S113596000F0F3F9002801D100F06EF80026742746
S11359705FF00008E946424639004846FFF7B4FAAA
S113598001208DF8080001208DF8070000208DF813
S1135990050001208DF8060000208DF80A004FF460
S11359A0A060ADF80E0001208DF80C000020ADF8C9
S11359B000000020ADF80200208869463200D2B20F
S11359C01144C874761C208880B2000A69463200EB
S11359D0D2B21144C874761C002069463200D2B297
S11359E01144C874761C012000F01FF86946320087
S11359F0D2B21144C874761C002069463200D2B277
S1135A001144C874761C002069463200D2B2114495
S1135A10C874761C8DF8126040F6B83200216846CE
S1135A2001F0C0FD1DB0BDE8F0831CB504000120E9
S1135A30009001AB11224FF4A0612000C0B202F02B
S1135A4014FD9DF8040016BD2DE9F8419DB0152400
S1135A50002574260027E8463A0031004046FFF747
S1135A6043FA01208DF8080001208DF80700012079
S1135A708DF8050001208DF8060000208DF80A003D
S1135A804FF4A060ADF80E0001208DF80C0000204A
S1135A90ADF800000020ADF8020068462900C9B244
S1135AA00844C4746D1C200080B2000A69462A00B0
S1135AB0D2B21144C8746D1C022069462A00D2B2C5
S1135AC01144C8746D1C102069462A00D2B21144D6
S1135AD0C8746D1C8DF8125040F6B8320021684627
S1135AE001F060FD1EB0BDE8F08138B5704C2000B7
S1135AF0FEF790FE002805D06F4D2800FEF78AFEC1
S1135B00002800D142E06078002806D16B490A8859
S1135B104FF6FE7002400A8004E06848018851F0A4
S1135B20010101806878002806D164490A884FF68B
S1135B30FB7002400A8004E06048018851F00401CF
S1135B4001805E4C227812F001025E490020FFF7CA
S1135B5082F801210120FFF722FE5B4D2A00C821B3
S1135B60242000F0D9FA2088C0F3800292B2574969
S1135B700020FFF770F801210220FFF710FE2A0031
S1135B80C821272000F0C8FAFFF7CFFE31BD10B5B9
S1135B9004002000C0B2092807D02000C0B20828A1
S1135BA003D02000C0B20A2802D1012000F001F87D
S1135BB010BD38B584B004000821002202AD2800CD
S1135BC0FFF792F91520ADF80400F020009002AB25
S1135BD010224FF4A0612000C0B202F031FC312049
S1135BE0009001AB01224FF4A0612000C0B202F08A
S1135BF027FCFF212000C0B200F007F8002120009C
S1135C00C0B200F00FF805B030BD13B50400202079
S1135C10009001AB11224FF4A0612000C0B202F049
S1135C200FFC13BD13B504003020009001AB00221B
S1135C304FF4A0612000C0B202F002FC13BD7CB599
S1135C401B4D69792879FFF77FFC0400E87821006F
S1135C50C9B2884205D11948018851F00101018077
S1135C6005E016490A884FF6FE7002400A80124E7B
S1135C7071793079FFF768FC0500F0782900C9B222
S1135C80884205D10D48018851F00401018005E0E6
S1135C900A490A884FF6FB7002400A8019200090D6
S1135CA0064B02224FF4A061012002F0C9FB73BD30
S1135CB0A46C00208D450000B46C00205EBF002061
S1135CC0808103009C81030055470000BC810300D0
S1135CD070B5040025696679A878002803D00228E5
S1135CE022D020D321E062886179207901F082FBFF
S1135CF06868007800280BD101213000C0B2FFF79A
S1135D0091FF686841783000C0B2FFF77EFF09E078
S1135D1000213000C0B2FFF785FFFF213000C0B280
S1135D20FFF773FF01E000E0FFE770BD10B504006A
S1135D30200080B2102807D1012000F006F80028C6
S1135D4001D1FFF781FEFFE710BD1CB50400002060
S1135D508DF804000120009001AB00224FF4A061F3
S1135D602000C0B202F081FB9DF8040016BD01B50D
S1135D7082B01920009002AB02224FF4A0610120EE
S1135D8002F05EFB01200EBD0901020003D4DFF81E
S1135D90380581547047DFF8340502F00F021044CF
S1135DA000F8041C704742F21402815070474069A5
S1135DB0704780B5002000F0C8F90020BDE802401B
S1135DC08EE180B5012000F0C0F90120BDE8024059
S1135DD086E180B5022000F0B8F90220BDE8024057
S1135DE07EE180B5032000F0B0F90320BDE8024055
S1135DF076E180B5042000F0A8F90420BDE8024053
S1135E006EE180B5052000F0A0F90520BDE8024050
S1135E1066E180B5062000F098F90620BDE802404E
S1135E205EE180B5072000F090F90720BDE802404C
S1135E3056E180B5082000F088F90820BDE802404A
S1135E404EE180B5092000F080F90920BDE8024048
S1135E5046E180B50A2000F078F90A20BDE8024046
S1135E603EE180B50B2000F070F90B20BDE8024044
S1135E7036E180B50C2000F068F90C20BDE8024042
S1135E802EE180B50D2000F060F90D20BDE8024040
S1135E9026E180B50E2000F058F90E20BDE802403E
S1135EA01EE180B50F2000F050F90F20BDE802403C
S1135EB016E180B5102000F048F91020BDE802403A
S1135EC00EE180B5112000F040F91120BDE8024038
S1135ED006E180B5122000F038F91220BDE8024036
S1135EE0FEE080B5132000F030F91320BDE8024035
S1135EF0F6E080B5142000F028F91420BDE8024033
S1135F00EEE080B5152000F020F91520BDE8024030
S1135F10E6E080B5162000F018F91620BDE802402E
S1135F20DEE080B5172000F010F91720BDE802402C
S1135F30D6E080B5182000F008F91820BDE802402A
S1135F40CEE080B5192000F000F91920BDE8024028
S1135F50C6E080B51A2000F0F8F81A20BDE8024027
S1135F60BEE080B51B2000F0F0F81B20BDE8024025
S1135F70B6E080B51C2000F0E8F81C20BDE8024023
S1135F80AEE080B51D2000F0E0F81D20BDE8024021
S1135F90A6E080B51E2000F0D8F81E20BDE802401F
S1135FA09EE080B51F2000F0D0F81F20BDE802401D
S1135FB096E080B5202000F0C8F82020BDE802401B
S1135FC08EE080B5212000F0C0F82120BDE8024019
S1135FD086E080B5222000F0B8F82220BDE8024017
S1135FE07EE080B5232000F0B0F82320BDE8024015
S1135FF076E080B5242000F0A8F82420BDE8024013
S11360006EE080B5252000F0A0F82520BDE8024010
S113601066E080B5262000F098F82620BDE802400E
S11360205EE080B5272000F090F82720BDE802400C
S113603056E080B5282000F088F82820BDE802400A
S11360404EE080B5292000F080F82920BDE8024008
S113605046E080B52A2000F078F82A20BDE8024006
S11360603EE080B52B2000F070F82B20BDE8024004
S113607036E080B52C2000F068F82C20BDE8024002
S11360802EE080B52D2000F060F82D20BDE8024000
S113609026E080B52E2000F058F82E20BDE80240FE
S11360A01EE080B52F2000F050F82F20BDE80240FC
S11360B016E080B5302000F048F83020BDE80240FA
S11360C00EE080B5312000F040F83120BDE80240F8
S11360D006E080B5322000F038F83220BDE80240F6
S11360E00146332906DADFF8EC2152F821100029A1
S11360F000D0084770476FF0004291420BD233281A
S113610009DADFF8D42102EBC000002901D104F040
S11361102DBF04F035BF704738B5044615466FF0FF
S11361200040814210D2332C0EDADFF8AC0100EBD0
S1136130C400002902D104F019FF01E004F020FF9B
S1136140DFF8900140F8245031BD332804DA0021EF
S1136150DFF8842102F830107047332808DA002170
S1136160DFF8742102F83010DFF8682142F82010BB
S11361707047332807DADFF8601111F8300000287F
S113618001D00120704700207047332805DADFF87A
S1136190481101EBC00004F000BF4FF0FF3070471E
S11361A0DFF83801016841F08051016004216FF08B
S11361B00100E9E5DFF828114860F1E770B5002433
S11361C014E0002503F027F9DFF8181111EB041689
S11361D0B17B002902D001250021B17303F021F91C
S11361E0002D02D02046B1688847641C202CE8DBCF
S11361F070BD10B5DFF8E8402068002800D0804763
S11362006068002800D08047DFF8D000016801F002
S11362106041016010BD04F0CCBF38B5DFF8C82080
S11362201068401C10600A21B0FBF1F101EB8103FE
S1136230B0EB43000DD15068401C50604FF47A71AC
S1136240B0FBF1F301FB1300002802D19068401C5D
S1136250906000240FE0491E516004E02946517308
S1136260012191730D4603F0DCF8002D02D01F4884
S1136270FFF7A0FF641C202C11DA002503F0CBF8F3
S1136280184901EB0412517B0029ECD05168002914
S1136290E1D1117B0029E1D111685160E0E731BD02
S11362A038B50B4D2846FFF782FD044621462846A3
S11362B0FFF779FD0E484168002903D02046BDE868
S11362C03440084731BD000000E400E018ED00E070
S11362D000C0044070710020D86F002004ED00E07D
S11362E03C720020CC6D0020CC6F0020BD6100000A
S11362F044720020BFF34F8FDFF8481A0A6802F493
S1136300E062DFF8100B02430A60BFF34F8F00BF57
S1136310FDE700B589B00022102105A804F0F6FDC0
S113632000221121684604F0F1FD102305AA7F2103
S1136330072005F093F811236A467F21062005F013
S11363408DF809B000BD30B589B04FF6FF752C4605
S1136350DFF8F409807D002846D0DFF8F0094078A2
S1136360022841D110237F220721684605F03CF81A
S113637011237F22062104A805F036F8BDF8000099
S1136380002831D0A8422FD0BDF8060000282BD019
S1136390A84229D0DFF8800A00680078002803D1D9
S11363A002208DF805000AE0012803D103208DF8AE
S11363B0050004E0022802D104208DF80500102312
S11363C06A467F21072005F049F8112304AA7F219A
S11363D0062005F043F8641E204680B20028FAD156
S11363E000F075FFFFF786FF09B030BD1FB5DFF879
S11363F05C49AA2020702079C043E070002210215B
S1136400684604F083FD052221466846FEF7A0FD98
S113641010236A467F215F2005F020F81FBD1FB5B9
S113642010237F225F21684604F0DEFFDFF81C4959
S1136430052269462046FEF78BFD2078AA280AD05B
S1136440002205212046FEF74FFDAA202070207966
S1136450C043E07009E0E0782179C943C9B28842B9
S113646003D000202071FF20E0702079C0F34000A9
S1136470002803D00020DFF8D018C8761FBD10B55F
S113648004460D20FFF775FE002805D1DFF8E80A61
S11364908168007900F042FA2046BDE8104005F01A
S11364A047B880B5FFF7B7FEDFF80C1B086001BDE5
S11364B080B5FFF7B0FEDFF8001B0968884201D3FE
S11364C0401A02E0401E401A401C40F6B93188428E
S11364D08041C00F02BD10B50446DFF870082146A4
S11364E00279C2F34002914205D0017964F341017B
S11364F00171FFF77BFF002C0ED04FF48271DFF89F
S11365007C0A0068007805F034FE0020FFF7B7FF2E
S11365100020DFF83418C87610BDDFF83008817821
S1136520012902D00121817060E77047DFF81C184F
S11365308878002802D00020887057E77047DFF879
S11365400808407E401E8041C00F704738B50120C6
S1136550DFF8241A0870DFF83C4B0020A07305F024
S1136560D9FF0546801E012818D806F08DFBA081AE
S113657006F020FDA072022000F091F84FF4FA60BA
S113658006F0DAFDDFF8402B00F56850983001463C
S11365900320FFF7C1FD00F0B7FA0CE0012000F082
S11365A07EF82078002804D06168002000F0A4F967
S11365B001E0FFF7C8FE657231BD01460822DFF82D
S11365C0D40AFEF7D5BCDFF8CC0A807B7047F8B557
S11365D000221021684604F099FC10237F22072131
S11365E0684604F001FFBDF8000000280AD04FF609
S11365F0FF71884206D0DFF89C0A8089BDF800103C
S113660088420FD000F0BAF800F0CEF8092000F06C
S1136610C3F905F087FEFFF74BFF002802D10020E5
S1136620FFF759FF05B000BD80B50146092912D115
S11366300220DFF818174870122002F0A1F8DFF8E2
S11366400807807D002802D1092000F0A5F9BDE8E3
S11366500140CBE601BD08290BD10120DFF8EC167F
S11366604870132002F08CF8FFF753FEFFF7AFFFDA
S1136670EDE70A28EED10020DFF8D0164870FFF7C6
S113668048FEFFF7A4FFE2E780B505F043FF0228C8
S113669003D0032801D0002002BD012002BD38B57B
S11366A00446FFF790FF2146884266D0DFF8E4599C
S11366B0AC73204602F0A8FA2046FFF7B5FF204647
S11366C00B2801D1FFF729FF2046052801D0072810
S11366D003D10021084600F029FF2046022801D0FA
S11366E0052810D1022005F0FEFD00280BD0DFF8AC
S11366F05C0A00680078022805D0032004F0CAFB75
S1136700C0B206F0F9FEA87B06F02EFFDFF83C5A73
S113671028680078002802D0204602282DD0204680
S1136720062806D107F07BF81120BDE8324002F0BC
S113673027B8022803D0052801D007281DD1DFF887
S113674038088168007900F0E9F8204602280FD162
S11367502868007800280BD140F2DC5006F0ECFCED
S1136760DFF8642900F6AC5001460D20FFF7D4FC95
S11367702046BDE8324006F0B9BF31BD1FB5002444
S11367800BE069462046C0B207F0C8F9002803D1DF
S11367902046C0B207F01BFA641C2046C0B23C2855
S11367A0EFDB07F039FB1FBDF0B58BB0002411E01F
S11367B02C232246D2B26121684604F015FE002043
S11367C08DF800002C236A462146C9B2612004F0EA
S11367D045FE641C2046C0B23C28E9DBDFF8704962
S11367E000202070012322467F21602004F036FE21
S11367F00025DFF8887712E02E46F6B236013868B5
S1136800805D00280AD001237F226021204604F005
S1136810EBFD21783868805D07F038FB6D1C284655
S1136820DFF830190978C0B28842E5D30BB0F0BD67
S113683080B500F009F80920BDE802402FE780B5D3
S1136840FFF767FDBDE8014080B50C20FFF77DFC34
S11368500021084600F06AFE07F02FFE0020DFF852
S1136860F8180870FFF71BFF002002BD0146DFF88F
S113687058280C20FFF750BC80B50220FFF765FCB8
S113688040F6B830FFF7F2FF0120DFF8AC180876C5
S113689001BD38B50446FFF796FE032801D1002058
S11368A032BDDFF8F057002C03D1DFF8B0082861BF
S11368B000E02C6104F07DFC686101202872DFF89F
S11368C0084822464FF47A710220FFF725FC22463D
S11368D029691B20FFF720FC012032BD80B5FFF79A
S11368E0D8FF002806D0FFF7A3FF0320FFF7D7FE49
S11368F0012002BD002002BD10B504460846FFF782
S1136900C8FF002808D0012C01D1FFF798FF03200D
S1136910FFF7C5FE012010BD002010BD70B505466F
S11369200C46DFF8546600220821301DFEF7DCFA1D
S113693005F0F0FD6FF000418C4200D3641E317904
S1136940022901DB002070BD002C0AD1DFF8C81435
S113695009680978022902D1DFF8084801E0DFF864
S113696008483571B460002801D1012070BD41F29E
S11369708830DFF8A41409680978022904D006F0E5
S1136980DBFB00F51C501030DFF83C2701460D20DE
S1136990FFF7C2FB012070BD1CB500282FD00128D1
S11369A05CD0022860D003286DD009287BD10B204D
S11369B08DF8040004F0C9FDDFF88C4394F912004B
S11369C000280AD094F91310002906D000F0A4FE80
S11369D094F912008DF8040002E00B208DF80400F5
S11369E013219DF9040000F097FE2020009001ABD4
S11369F04FF6DE720021012001F022FD13BD0B20B1
S1136A008DF804000024FFF73FFE002806D004F0B0
S1136A1091FD8DF8040006F0CDFA04469DF80400BB
S1136A20C01E112802D30B208DF804001A2C06D1A5
S1136A309DF804000B2802DB0A208DF804001321C2
S1136A409DF9040000F068FE2020009001AB4FF691
S1136A50DE720021012001F0F3FC13BDBA4890F965
S1136A60110004F084FD13BDDFF8004720780028EE
S1136A7006D04FF4FA7000F05AFE0020207013BDC7
S1136A800120207013BDDFF8C406006800780228D6
S1136A9009D0012807D005F012FF002803D04FF4D5
S1136AA0FA7000F044FE13BD80B504F082FBDFF8F9
S1136AB088265169401A1169884206D34FF47A71C5
S1136AC0022000F03DF8012002BD002002BD80B587
S1136AD0FFF7DAFD002811D006F0CEF8DFF88026A3
S1136AE05189002901D1508101BD03468B4205D053
S1136AF050811620BDE8024001F042BE01BD0020D5
S1136B00DFF85C164881704790480079C00706D4C6
S1136B10DFF8B425DFF858161C20FFF7FDBA7047DC
S1136B2080B51C20FFF711FB88480179CA0706D5F8
S1136B3001F0FE010171BDE80140FFF757BC01BD42
S1136B4038B505F0E7FC0446DFF84855022C3CD183
S1136B50FFF7D5FF0220FFF700FB00202861287A09
S1136B6001280FD10021084600F0E0FCFFF72FFDBB
S1136B700120FFF711FF012002F084FC0520FFF73C
S1136B808EFD0EE0A87B062806D1022002F07AFCD6
S1136B900720FFF784FD04E0052802D0022002F05C
S1136BA071FC0020287206F06FF8A88106F002FA42
S1136BB0A872DFF8C02547F230511B20FFF7ACFA6A
S1136BC0FFF785FFFFF7A0FF50E0002C3AD100202B
S1136BD05D49C877287A002813D004F0EAFA696975
S1136BE0401A2969884209D30420FFF758FD08F0A8
S1136BF004F900202872FFF7A6FB37E008F0D7F865
S1136C0034E0A87B022807D0052805D0072803D044
S1136C10062801D0002829D1287E00280CD108F0AC
S1136C204AFA0820FFF73BFD687800281ED06968FF
S1136C300120FFF761FE19E0002028760A20FFF703
S1136C402EFD13E0032C06D1062002F01BFC0620C7
S1136C50FFF725FD0AE0042C08D1052002F012FC00
S1136C60DFF81025C8210220FFF756FA6C7231BDF7
S1136C7001B5002805D10120DFF8E414C87701F03C
S1136C80C4FD6946032001F008FD01BD31B542F29F
S1136C90107006F051FA044604F5985488349DF8AF
S1136CA00000002818D101202749C877B24C0020E1
S1136CB020704EF66025284606F03EFA0146691813
S1136CC0DFF8B0241E20FFF727FAA46847F23050FB
S1136CD006F032FA041915E0DFF89C14087800284D
S1136CE006D0421E0A70D2B24FF47A7000FB0244FE
S1136CF00878002806D1A048846847F2305006F08E
S1136D001BFA041905F006FC022806D1DFF86424F6
S1136D1021460D20FFF700FA0EE003280CD1964817
S1136D20846847F2305006F007FADFF84824041963
S1136D3021460D20FFF7F0F96946032001F0ADFC70
S1136D4031BD00000CED00E04C7200208072002088
S1136D5000B59FB00120009001AB0246002109F06C
S1136D6079F8002854D10022742102A804F0CEF846
S1136D7001208DF80C008DF8100000208DF8120011
S1136D80ADF816008DF80E0001208DF80F000A20D2
S1136D908DF80D0001208DF81400002002900320CE
S1136DA08DF81A000120ADF81C0020208DF81E007B
S1136DB001208DF81F009DF804008DF820004FF687
S1136DC0E270ADF8280020208DF82A000DF12A0089
S1136DD0012141701F2181704FF6E471418120210E
S1136DE001730121417364490A7882730878012888
S1136DF007D14FF47A72DFF8841302A800F0D2FBB3
S1136E0006E040F6B832DFF8781302A800F0CAFBB7
S1136E101FB000BD0400FA057472002018B5A1B0BB
S1136E200FF2A44000788DF80D000FF2A040007816
S1136E308DF80C0000200290012001900DF10D004E
S1136E400090402321220121084608F0F5FF044662
S1136E50002002900120019003A8009040232022EA
S1136E600121084608F0E8FF84424DD1002C4BD1A3
S1136E700022742104A804F049F89DF80C209DF820
S1136E800D1004A809F0BDF9002833D101208DF8B4
S1136E9014008DF8180000208DF81A000120ADF8B8
S1136EA01E008DF81C0000208DF8160001208DF8BE
S1136EB017000A208DF815000020049002208DF898
S1136EC022002120ADF8240020208DF82600012086
S1136ED08DF827009DF80D008DF828002020ADF8CE
S1136EE030008DF832000DF13200012141709DF81F
S1136EF00C10817040F6B832A24904A800F052FB8D
S1136F000021084601F0C9FB22B010BD7FB5002462
S1136F102546264617E069463046C0B209F0EFFC24
S1136F2000280FD1BDF800004FF6FF71884209D048
S1136F30641C9DF80400002804D19DF8050007286E
S1136F4000D16D1C761C05F0BAFC3146C9B28142F1
S1136F50E1D32046C0B2002805D0E4B2EDB2AC4281
S1136F6001D1012000E0002004B070BD0146814A37
S1136F700D20FFF7D1B80000E06C002068AD0020C0
S1136F8010B5774CA07F002814D000F0C5F8002875
S1136F9010D16E480068007802280BD0E07F0028EA
S1136FA008D009F04BFD734A01460D20BDE810409E
S1136FB0FFF7B2B810BD0000EC6C002038B505F046
S1136FC0A9FA044600F0A8F8002814D0032002F01F
S1136FD059FA002C5DD0042C5BD06B48846847F2CE
S1136FE0305006F0A9F8634A041921460D20BDE883
S1136FF03840FFF791B8644DA868002809D1534878
S113700000680078022802D15648A86001E056487A
S1137010A860022C1ED10220FFF7BEFC28790028AC
S113702002D1FFF795FE0DE02879012808D14C48DC
S1137030C07F002801D1FFF78BFEFFF7EFFE01E0D0
S113704000F08BFB414800680078012806D102F06B
S113705059FB03E0032C01D102F051FC28780028ED
S113706017D1002C0CD0042C0AD0AC6847F2305055
S113707006F062F83F4A041921460D20FFF74CF848
S113708005F01FFC0A2801DA09F0A5FFBDE831402C
S11370903CE731BDC46C002080B505F03BFA022802
S11370A00CD1FFF790FA032802D10520FFF7F7FA75
S11370B029490878002801D0002008701B20BDE869
S11370C00240FFF74AB800002578000080B5014669
S11370D0902905D1274AC8210220FFF71DF806E0B0
S11370E0912804D1234AC8210220FFF715F8002073
S11370F002BD204AC8210220FFF70EB810B50224B1
S1137100FFF7C2FA002805D020488078441EA44125
S1137110E443E40F204610BD10B50224FFF7EEFF50
S1137120002806D119480479640804F0010484F0A5
S11371300104204610BD0000C46C002080B5FFF798
S1137140EBFF401E8041C00F02BD0000747200209E
S1137150BAD70020B9D70020AAAD002020BF020072
S11371604C72002000BADB00F0490200B2D70020C4
S1137170A0BB0D0025780000506800208D6C000035
S1137180716C000015890000E06C00208072002002
S113719078B59DB006460D46144600227421684613
S11371A003F0B4FE2246412A01D3002026E0012048
S11371B08DF804008DF8086000208DF80A004FF463
S11371C06E40ADF80E0001208DF806008DF8070022
S11371D00A208DF8050001208DF80C000020009095
S11371E08DF8124029460DF11300FDF7B1FE40F66B
S11371F0B8320021684600F0D5F901201EB070BDF8
S11372002DE9F04790B08A46BAF1040F58DB0446E2
S11372104FF0030994F800806778A678E578002297
S11372204021684603F072FE281D824548DB48F081
S113723080008DF80000EA4607F0FE008AF801009D
S11372408AF8026001208AF8030048468AF804009C
S1137250B8F1010F23D1042D02DA4FF001091EE029
S11372602079657905EB0025ADB2A079E47904EBCA
S11372700024A4B22146284602F046FA04208AF8E3
S11372800300284600128AF804008AF805502046B4
S113729000128AF806008AF807404FF00009F80740
S11372A00ED54846002801D1B80704D401208AF835
S11372B003008AF80490052269460020FFF768FF5E
S11372C010B0BDE8F0870000C80000001E00704741
S11372D0BFF34F8FDFF8B0190A6802F4E062DFF8F9
S11372E0AC0902430A60BFF34F8F00BFFDE72DE9ED
S11372F0F04180460F4615461C461C2002F026FC31
S1137300DFF81C6A7062002855D0B8F1000F0FD066
S1137310404609F041FF401C80B202F017FC716A3C
S11373200860706A0068002802D0414609F050FFE6
S1137330002F19D0384609F02FFF401C80B202F00C
S113734005FC716A4860706A406800280CD03946B0
S113735009F03EFF3879400703D5012009F065FFA5
S113736002E0002009F061FF002D0FD0284609F04B
S113737013FF401C80B202F0E9FB716A8860706AF6
S11373808068002802D0294609F022FF002C0FD083
S1137390204609F001FF401C80B202F0D7FB716A5D
S11373A0C860706AC068002802D0214609F010FF46
S11373B00698716A0874BDE8F08180B501460878C2
S11373C0801CDFF8602910702422DFF85409806AD9
S11373D0FDF7CEFD0020BDE8024002F053B880B5B1
S11373E0DFF844391B780093DFF840391B68FFF756
S11373F07EFF01BD002377E22DE9FE4F0646DFF84C
S11374002009C16A0091006B0190A0200BF004F8E0
S1137410050043D000270CE040460CF023FA641C1E
S11374202046C0B2282803DA55F820100029F3D1E9
S11374307F1C022F2FDA4FF0000B5A46A02128465A
S113744003F064FD684650F8278040460CF023FAA8
S113745004001CD094F8089094F804A030792071AA
S1137460307A20727422314620460CF03BFA002810
S11374700AD084F804A084F808905846C0B245F8AD
S113748020400BF1010B02E0204600F02CFC002C04
S1137490D8D10024C4E728460CF055FABDE8F78F8C
S11374A02DE9FE430678DFF87808C16A0091006B85
S11374B00190A0200AF0B0FF050034D000270CE0B2
S11374C040460CF0CFF9641C2046C0B2282803DAE9
S11374D055F820100029F3D17F1C022F20DA4FF039
S11374E000094A46A021284603F010FD684650F8DA
S11374F0278040460CF0CFF904000DD094F88400A6
S1137500B04206D04846C0B245F8204009F101090E
S113751002E0204600F0E7FB002CE7D10024D3E78B
S113752028460CF010FABDE8F7830000032800D9C0
S1137530704738B5DFE800F00217292FDFF8E0576D
S1137540E86A0CF0A8F9040001D000F0CCFB002C90
S1137550F4D1286B0CF09FF9040001D000F0C3FBB8
S1137560002CF6D131BDDFF8B847E06A0CF093F98E
S1137570002801D000F0B7FB206B0CF08CF9002838
S11375800FD0BDE8324000F0AEBB002909D0084658
S1137590BDE8324030E7002903D00846BDE8324058
S11375A07EE731BD2DE9F843074688469146DFF86A
S11375B07057EE6A0024FFF767F800280BD1042502
S11375C0204600F090FB4046002802D03946284669
S11375D0C047BDE8F183E97E002905D0B8790028C9
S11375E002D178790A28F4D0DFF8D8088078012805
S11375F001D0012905D1B879002802D1B87A002830
S1137600E7D04A464146384600F042FB040001D127
S11376100225D5E7387A022801D0032800D12E6B41
S1137620214630460CF01EF9012801D10325C7E795
S1137630286B0CF054F90446E86A0CF050F9296BF5
S11376408E4209D1012CC4D10FF2D9120021042099
S1137650BDE8F843FEF760BD002CBAD10128B8D1CB
S11376600FF2C11200210420BDE8F843FEF754BD17
S113767010B5DFF854480020207501202073FDF771
S113768073FE0CF063F905F04FFF28200CF0CEF8E0
S1137690E06228200CF0CAF820634FF0FF30616AE2
S11376A048610120616A4874BDE8104004F048BD97
S11376B01CB5DFF86C46A06A0078022811D10020BE
S11376C00CF052F903208DF804003020009001AB37
S11376D007220021012000F0B3FEDFF8F00705F0D7
S11376E0FDFF002060730CF099F9401CC0B201F05A
S11376F047F805F021FFFEF729FF4FF47A710220C5
S1137700FFF71EFA0CF004FB0020207313BD0120C8
S1137710DFF8B417C875704738B504460D4605F050
S11377203AFCDFF8A407C5730474447431BD38B55A
S11377300446DFF8945795F90F0095F9101081422B
S113774003D005F028FCE87B28740FF2D902214607
S11377500B20BDE83840FEF7DFBC10B5DFF8684702
S113776094F9100094F90F10884205D194F911008E
S113777005F011FC607C207410BD80B5FEF74BFD54
S1137780DFF8C81A0818DFF84017496A486101BDD4
S113779010B5DFF83447606A406910F1010F00D179
S11377A010BDFEF738FD616A49698842F8D3A52007
S11377B00CF01FFBFFF73CF8FEE710B50CF078FB6C
S11377C00020FFF7E9F801210020FDF7A1FE00F0F9
S11377D045FD01200CF0C8F80120DFF8441548737A
S11377E00CF087FA0CF0BFF9DFF8681ADFF8680AC2
S11377F00AF0A0FC0FF22D04224614210120FEF70A
S11378008BFC224614210020FEF786FCBDE81040C4
S113781002F07CB880B506F00BF8BDE80140B7E78C
S11378200000000080B500281AD001281ED00228CC
S113783022D003282BD004280FD00B282FD00C28BB
S113784021D00D282ED01B2830D01C2832D01E2841
S11378503AD1BDE8014000F0D8BFBDE8014067E27D
S113786014210020BDE80440FDF773BE142101205B
S1137870BDE80440FDF706BF4FF47A710220BDE86D
S11378800440FFF75DB9BDE80140FEF7D8BF04F03E
S113789041FE022818D1BDE8014005F011BFBDE842
S11378A001405AE7BDE80140FFF788BBBDE801404D
S11378B0FFF7F2BBDFF80C06017941F00101017119
S11378C0BDE80140FEF792BD01BD002801D00020B3
S11378D07047002A01D083207047002901D08120FD
S11378E07047C320704700002DE9FC478246894653
S11378F090461E460024DFF82804C16A00916D46B4
S1137900006B68600620FFF747F82746214601E030
S11379107F1CFFB2022F09DA55F827000BF0D5FFC0
S11379200100F5D0087952469042F1D13C46022C30
S113793074D0002972D030468A7A032A6ED8DFE8E0
S113794002F002381D53CA89424567D10A7B4A4571
S113795064D14A6F002A04D091F884200A714A6FD6
S1137960904755F824000BF096FF00F0BCF9DFF8BF
S1137970C02C0A210420FEF7CFFB4FE0CA89424500
S11379804CD10A7B4A4549D14A6F002A04D091F868
S113799084200A714A6F904755F824000BF07BFF4E
S11379A000F0A1F9DFF8882C0A210420FEF7B4FBCB
S11379B034E00A8A424531D18A7B4A452ED14A6F46
S11379C0002A04D091F884200A714A6F904755F830
S11379D024000BF060FF00F086F9DFF8542C0A2134
S11379E00420FEF799FB19E0CA89424516D10A7BA7
S11379F04A4513D14A6F002A04D091F884200A71B1
S1137A004A6F904755F824000BF045FF00F06BF9DE
S1137A10DFF81C2C0A210420FEF77EFBBDE8F38767
S1137A2018B59DB0044605F04CFE0022742168464A
S1137A3003F06CFA00200090684601218DF80410D0
S1137A4002218DF8081000218DF8061001218DF80F
S1137A5007100A218DF805100021817201208DF88C
S1137A600C000846ADF80E0001208DF812004FF608
S1137A70FE70ADF8140030208DF8160001208DF84A
S1137A80170008468DF8180040F6B8326846FFF72C
S1137A9089FD04F0BBFCDFF83004407F00280FD1DF
S1137AA0012C0DD1FEF78FFD032804D041F288305C
S1137AB0FEF7DCFE04E0FEF72CFC0020FEF70BFDD5
S1137AC01EB010BD38B50446E088002801D1FEF789
S1137AD02DFDE27B00210846FFF7F7FE0546607D99
S1137AE0012811D12068418840790CF043FC00281A
S1137AF00AD0206840880A2840D019283ED0204661
S1137B0004F07CFB0025BCE0607D002840F0B980D7
S1137B102068418840790CF022FC002800F0B180F4
S1137B2020684188052948D8DFE801F00347472F3A
S1137B30373F002528460CF0A8FFE07C002814D12C
S1137B40207DA189884209D2E27B01212846FFF7E2
S1137B50BCFE05461A2000F013FE92E0172000F048
S1137B600FFE0120FFF75CFF8BE0F02806D1182000
S1137B7000F006FE2846FFF753FF82E0E27B012176
S1137B800020FFF7A2FE05467BE020460DF02EF90B
S1137B900546204604F032FB73E020460DF04AF916
S1137BA00546204604F02AFB6BE020460DF0EEF972
S1137BB00546204604F022FB63E0DFF8C01B407951
S1137BC04871206840884880A07C0871E088C8809B
S1137BD02079042801D0052808D1E088002802D1A2
S1137BE0012008701AE00420087017E0022801D070
S1137BF003280BD1E088002802D10220087001E09C
S1137C000520087020680089088107E0E0880028C2
S1137C1002D10020087001E0032008702068408829
S1137C20B0F5604F0ADBE07C0873A068227D104445
S1137C300861A289207D121A4A7314E00120087396
S1137C4001F114000861A289207D121ACA75E07C32
S1137C508875C87D002804D0A068227D10448861FE
S1137C6001E000208861084605F008FD012804D1E0
S1137C70204604F0C3FA054603E0002528460CF02C
S1137C8004FF2846C0B232BD0CED00E00400FA0542
S1137C902DE9F04105460E46174688200AF0BCFB44
S1137CA004001DD074222946FDF752F9FEF7B3FAF9
S1137CB08046688805F040FA298888448044C4F8DE
S1137CC078804744E767666704F184062879307052
S1137CD00CF061FE2071A06FC4F880000020707069
S1137CE02046BDE8F081002801D00BF02CBE70477F
S1137CF00B48806A017802290BD0DFF8D41B08787E
S1137D00002804D0002008704FF448707047C82041
S1137D1070478088C82801DAC8207047C830704787
S1137D204C720020206800204F680020186000205A
S1137D302DE9FE43644D286B00906E46E86A70603E
S1137D40002701E07F1CFFB2022F6EDA56F827806D
S1137D5040460BF0BAFD0400F4D0FEF75CFA81460D
S1137D60E06F814505D201464908A0EB0902914222
S1137D702BD2A16FD4F880208A4215D1401A4844EE
S1137D80E067C4F87890FFF7B3FF8144C4F88090AB
S1137D90012084F88500204600F09CF8687D0028C6
S1137DA036D00020E06733E0626F002A02D021461B
S1137DB00120904740460BF06EFDFFF794FF012031
S1137DC068750420FEF7E8FD22E0D4F880008145C0
S1137DD005D201464908A0EB0909494518D2A16F0B
S1137DE0884208D00320FEF7D7FDA86A007801284E
S1137DF001D101F087FCFFF77BFFD4F88010401815
S1137E00C4F88000012084F88500204600F062F860
S1137E1040460BF05AFD002894D0FFF769FF014655
S1137E20DFF80C280420FEF777F90420FEF7A1F907
S1137E30002802D10520FEF7AFFDBDE8F7833EB56B
S1137E400024DFF8900A016B0091C06A0190254676
S1137E5000E06D1C2846C0B202280BDA694651F8CE
S1137E6020000BF032FD0028F3D090F885000028A4
S1137E70EFD0012420463EBD10B50420FEF785F95D
S1137E8004460520FEF781F914F1010F18D00E49BC
S1137E90896A0978022913D110F1010F10D0042046
S1137EA001F0F0FAFFF7CBFF002809D0FFF720FF1D
S1137EB0DFF87C2701460420BDE81040FEF72CB90A
S1137EC010BD0000807200204C72002000BADB005C
S1137ED0704700002DE9F84FA4B006460022802127
S1137EE004A803F013F80024254696F80580B6F894
S1137EF00EA0FEF7ECFD01F053FD070040F0A28157
S1137F00B079B0F1010969EB09096FEA09094FEA8F
S1137F10D979F079012800D10825BAF56F4F09D035
S1137F20B9F1010F06D070790A2814D0022812D0B2
S1137F30002810D0B27C06F1130104A8FDF708F85C
S1137F40B47C307A002801D0022841D145EA0905E1
S1137F5045F0100540E0B07C06F1140115E001F194
S1137F60040C9E465FFA8EFE1CF80EC0A6465FFA0D
S1137F708EFE02F80EC0641C5B1C9C4691F803E064
S1137F805FFA8CFCF445EAD30C310246501ED2B29F
S1137F90002AD6D004AA0B88A4465FFA8CFC02F807
S1137FA00C30641C0B881B0AA4465FFA8CFC02F894
S1137FB00C30641C73790A2B01D0022BE4D18B782A
S1137FC0A4465FFA8CFC02F80C30641C0023D4E74E
S1137FD005F0EF0545EA0905FFF7B0F8002804D0DD
S1137FE04FF48271012004F0C4F8B07A01460329E9
S1137FF000F22881DFE811F04D009900D50004005B
S1138000B6F80E90E4B2039404A8029090A00190F4
S1138010CDF800804B462A4631794FF488500DF054
S1138020C0FA717B307B0DF00FFB0CF0DBFC0446D7
S11380300CF0BBFC054600200CF0CDFC00200CF03D
S1138040B1FC318A08464FF6FC72904203DB0DF016
S1138050F6FA074603E000200DF0E5FA074620464D
S11380600CF0B9FC28460CF09DFC307A002802D0B4
S1138070022840F0E7803079317B3A0004D10023B4
S11380804A46FFF731FCDDE001234A46FFF72CFCAA
S1138090D8E0002796F80C904FF0010BB6F80EA02C
S11380A0032802D196F80DB0378AE4B2039404A8E9
S11380B0029067A00190CDF8008053462A4631799A
S11380C04FF488500DF06DFA594648460DF0BCFA4D
S11380D00CF088FC04460CF068FC054600200CF00B
S11380E07AFC00200CF05EFCFFB2394600200DF053
S11380F09AFA074620460CF06EFC28460CF052FC17
S1138100307A002802D0022840F09C80307939006F
S113811005D1002352464946FFF7E6FB92E00123CE
S113812052464946FFF7E0FB8CE04FF48A57307A19
S1138130002801D0022801D14FF48857B6F81090D6
S1138140E4B2039404A8029041A00190CDF8008009
S11381504B462A46317938460DF023FAF17BB07B41
S11381600DF072FA3079DFF86C1781F82200DFF82D
S11381706817B0890DF039FA070006D100234A4682
S1138180B17B3079FFF7B0FB5CE0307A002801D096
S1138190022857D101234A46B17B3079FFF7A4FB6B
S11381A050E0B6F80E90E4B2039404A8029028A01C
S11381B00190CDF800804B462A4631794FF48A501D
S11381C00DF0EFF90121307B0DF03EFA0CF00AFCC2
S11381D004460CF0EAFB054600200CF0FCFB0020F2
S11381E00CF0E0FB0DF0FFF907000DD1307A002808
S11381F001D0022805D100234A46317B3079FFF7AC
S113820073FB0DF0FEF917E06C2815D10DF0F9F9A8
S1138210070006D100234A46317B3079FFF764FB1F
S11382200AE0307A002801D0022805D101234A4609
S1138230317B3079FFF758FB20460CF0CCFB284605
S11382400CF0B0FB384625B0BDE8F08F00840C2458
S113825062000000BBD60000B17600002DE9F043B7
S11382609FB00022212116A802F050FE01208DF8B3
S11382700D008DF80C0000200CF01AF904462020A3
S113828001900DF10D0000904023032200212046AF
S113829007F09EFD002840F0D0803020019003A814
S11382A00090402307220021204607F091FD00287A
S11382B040F0C380DFF81C56686A8068002800F02C
S11382C09880002221210DA802F020FE00200290B7
S11382D0202001900DA80090402304220021204674
S11382E007F0AAFD002840F0A8800022212104A85C
S11382F002F00CFE6E6AB06808F04EFF0746706824
S113830008F04AFFC7193846C0B2212844DA9DF85C
S11383103400002840D10FF2D858DFF8C09599F8FE
S11383201000002809D18DF81070B36872684146B6
S11383300DF111000DF090F912E0484608F02CFF01
S1138340064609F1100008F027FF86198DF8106021
S113835009F110034A4641460DF111000DF07CF974
S11383609DF810009DF83410884208D102460DF1A2
S113837035010DF111000BF0B5FA002839D0422077
S1138380019004A80090402304220021204607F015
S11383901FFD002851D12CE0DFF84065307C002817
S11383A027D0304608F0F8FE9DF8342096F82010C7
S11383B0081882421DD0304608F0EEFE074606F14A
S11383C0100008F0E9FEC7198DF8107006F11003CB
S11383D032460FF21C510DF111000DF03DF942200F
S11383E0019004A80090402304220021204607F0B5
S11383F0EFFC6E6A3068002814D008F0CDFE8DF8CA
S1138400580031680DF1590008F0E2FE4220019055
S113841016A80090402305220021204607F0D8FC2E
S113842000280AD120200190686A1030009040236F
S113843001220021204607F0CBFC1FB0BDE8F083E9
S11384403EB5DFF89044012525739DF81850019539
S11384500093402307F0BCFC01460020207308462B
S1138460401E8041C043C00F3EBD1FB5002402948E
S11384709DF8184001940093402307F0DDFC401E52
S11384808041C043C00F04B010BD0120DFF8441484
S11384900877062000F030BA38B50446062813DA07
S11384A0DFF8305400202877204600F025FA032016
S11384B000F0E8FF002C07D1687F002804D10120D8
S11384C0BDE83240FEF707B831BD7CB505460E461F
S11384D0307800280BD001281FD120207070721C26
S11384E0B11C284602B0BDE8704005F0F5B87078BC
S11384F009F092FF040010D07278B11CFCF728FD3B
S1138500701C0090B31C7278214628460DF0C4F804
S11385102046BDE876400BF016BA73BD30B5A1B065
S113852004460D4668788DF801006A78A91C0DF19F
S11385300200FCF70DFD287800280AD0022810D08C
S113854016D201208DF800006946204605F0C3F8D4
S11385500EE000208DF800006946204605F0BBF8C7
S113856006E002208DF800006946204605F0B3F8C5
S113857021B030BD2DE9FF4104460D4616461F4685
S1138580DDF83480284603281AD1300018D1FEF7CC
S11385907BF8002814D098F8000000280ED198F831
S11385A0010000280AD1DFF82C03007F002807D13E
S11385B001F0A2F8032000F065FF01E001F080F86B
S11385C0DFF81013087B002823D128000BD1304694
S11385D04FF6DE72904206D1C87D002803D198F987
S11385E0000002F0C4FF32462946204605F056F842
S11385F0CDF80C809DF8300002909DF82C0001907D
S1138600BDF8280000903B463246294620460DF02E
S113861044F8BDE8FF810146DFF8B80290F9110083
S11386201A2903D101460B2900DB0A2070470000F8
S113863025780000FEF74CBE0146081DC9680847AE
S11386400146081DC96808470146086800780028E3
S113865006D0312804D040280AD0662805D07047B7
S113866000208871081DC968084702208871F9E74D
S113867001208871F6E710B5044604F10B0104F1FA
S1138680080000F038FB04F10A01A01D00F03EFBD5
S1138690201DE168BDE8104008471FB500918DF822
S11386A004000021044601E0491CC9B2042912DC7B
S11386B08B4A01EB410302EB83021378A342F3D10B
S11386C09068002807D05068002804D09068039070
S11386D06846516888471FBD002800D0704780B5A0
S11386E07C48807E002804D164227E4900200DF05D
S11386F012F8BDE8014088E030B59DB004460D464F
S113870000227421684602F001FC01208DF8040067
S11387108DF8080000208DF80A00ADF80E008DF8E1
S1138720060001208DF807000A208DF805000120BD
S11387308DF80C000020ADF800006420ADF80200B4
S113874001208DF812004FF6DF70ADF814004220BE
S11387508DF81600681C8DF817008DF818502A46FD
S113876021460DF11900FCF7F3FB4FF47A725E49D0
S11387706846FEF717FF1DB030BD00008872002068
S11387802DE9F0410746FF254FF0FF385748807820
S1138790012837D0534C4F4EB07E002809D1002217
S11387A06421204602F0B2FB6422214600200CF032
S11387B0FFFF002105E0424501D290460D46491CC9
S11387C0C9B214290BDA01EB8102201D805C002858
S11387D004D0A018026812F1010FECD10D46142D3B
S11387E001DB00200FE005EB8505201D475505F052
S11387F05BF86051B07E002804D164222146002039
S11388000CF089FF0120BDE8F08170B590B0002222
S11388104021684602F07AFB00242E48807E00281E
S11388200AD1304D22466421284602F06FFB6422AF
S1138830294620460CF0BCFF25460BE005223146B4
S113884068462044FCF784FB641DE4B200203071C8
S11388506D1CEDB2142D0DDA224805EB8501461886
S113886030790028F4D03B2CE8D321466846FFF742
S113887043FF05E0002C03D021466846FFF73CFF88
S113888010B070BD10B504460CF0DCFF41F2893025
S1138890844203D3BDE810400CF0F9BF10BD80B58D
S11388A0684609F008FD002803D09DF8000001285F
S11388B008D11920FFF764FF0DF039F8002801D022
S11388C0FFF7B8FE01BD00000248007E70470000BB
S11388D0516800204C720020D17E0000CCB70020EB
S11388E020600020A4720020D9860000807200203D
S11388F025732573000000000549896A0978022957
S113890005D1062801D101F060B801F06BB87047B9
S11389104C72002001B569460320FFF7BEFE9DF8A6
S1138920000000281BD10D20FDF72FFC014611F19A
S1138930010F02D100F0D9F901BDDFF8F80381423B
S11389400DD3DFF8F40390F83E00002807D10FF2AE
S1138950B122DFF8E80341180A20FDF7DDFB01BD71
S113896070B4DFF8D42392F8203001469489A142F0
S113897001D3642033E0D1890446A14201D301200C
S11389802DE00021D469064601E0491CC9B2994290
S113899003DA34F82150B542F7D3994203D1A01E2B
S11389A010F823001BE0002901D1A07817E004EBA4
S11389B081031D1F2E8834F82120921B92B2A978BE
S11389C0002A01D108460AE0801B80B29B785B1A1A
S11389D0DBB2584390FBF2F009180846C0B270BCF1
S11389E0704770B4DFF8501391F820300246642ABF
S11389F001DB888937E0022A01DAC88933E00022E2
S1138A00CC69064601E0521CD2B29A4204DA04EB65
S1138A108205AD78B542F6D39A4203D1201F30F8CF
S1138A20230020E0002A01D120881CE004EB82030B
S1138A301D1F298834F82220521A92B2002A01D12B
S1138A40084610E0AC789B781B1B001B1C46E4B264
S1138A50002C00D10123C0B25043DBB290FBF3F0F1
S1138A600918084680B270BC704738B584B0044613
S1138A700D4600200290012001900DF10D000090A0
S1138A80402321220121084607F0D6F90020029054
S1138A900120019003A800904023202201210846D0
S1138AA007F0CAF99DF80C106420414321809DF819
S1138AB00D004008287005B030BDE0B549008DF8C0
S1138AC00410642190FBF1F08DF805009DF804007A
S1138AD0002802D102208DF804002020009001AB70
S1138AE0212201210846FFF7ABFC202000900DF164
S1138AF00503024601210846FFF7A2FC07BD1CB589
S1138B0069460DF10200FFF7B0FF8D4C2088FFF796
S1138B1027FF9DF80020904216DAA178002905D09D
S1138B20A179002902D08DF8000012E0E1790B460A
S1138B30121A934205DA9DF80000411A8DF80010CC
S1138B4007E08DF8000004E02179012901D18DF8B6
S1138B5000009DF80000FFF744FFADF802009DF807
S1138B600010FFF7AAFF00210120FFF796FDA0786F
S1138B70002804D0A068FEF7F9F90020A07013BD06
S1138B8010B40020014609E06B4A02EB4102528C0A
S1138B9003461446A34200D21046491C0A29F3DBBB
S1138BA010BC704710B500F0DCFD0146624C94F82F
S1138BB04100002810D100290ED061680A20BDE8C8
S1138BC01040FDF798BA0CF043FFE18E04EB41012D
S1138BD04884E08E401CE086E08E0A28F3DB002007
S1138BE0E086FFF7CDFF208760870CF057FFA08752
S1138BF0FFF785FFA1680A20BDE81040FDF77BBAA6
S1138C000A2800D1CEE77047401E06D0001F05D0C9
S1138C10801E03D0401E022801D866E04DE0704754
S1138C20F8B50C461646444D4FF47A716964002831
S1138C3011D1444828604448A86042F2107068602A
S1138C4040F6B830A8814FF41660E88100202874FB
S1138C506861A86104E01C2201462846FCF788F9F3
S1138C60002C05D13948E8610B2085F820000DE07F
S1138C703746BF00384600F069FFE861002805D098
S1138C803A462146FCF764F985F8206005F13E0474
S1138C90142060710020207140F6FF706887642101
S1138CA0A889FFF70AFF012020706070AA6969692A
S1138CB0287CBDE8F8400CF057BE38B51E4C04F1D2
S1138CC03E05687800280FD00A20FDF752FA0028E4
S1138CD00AD1A1682878012800D121681C4A0A20F9
S1138CE0BDE83840FDF718BA31BD00201249C886E6
S1138CF00A20FDF72ABA70B504460D460E4EB08F11
S1138D00FFF72EFE2870B08F208070BDADE61149AC
S1138D1082788A70C27813460B2B04DA02EB820342
S1138D205A00CA7001E00279CA7002780A70407869
S1138D3048707047C1D4010008730020402BFEFF27
S1138D4044730020C0D4010000BADB009C820300FD
S1138D50018C000048730020DFF80422904203D104
S1138D60DFF8002211600EE0DFF8FC21904203D10D
S1138D70DFF8F021116106E0DFF8F021904202D122
S1138D80DFF8E0211162C16D41F08001C1657047D7
S1138D9070B5044615461E46002903D103200CF085
S1138DA011FF0146300006D020281AD040281AD0DE
S1138DB060281AD070BD1020A26822F06002A26060
S1138DC0A2681643A66045432846400800EB4110BC
S1138DD0B0FBF5F02038DFF8981101EAC001E16139
S1138DE070BD0820E8E70620E6E70420E4E7012256
S1138DF041F20403C2500A46D3435B0003F00A0362
S1138E0043614261002903D1012142F204028150ED
S1138E10704770B504460D4600F071F841F2040045
S1138E20261801203060A87C002803D0A06840F0F8
S1138E308040A060E87C002803D0297D2046FFF70D
S1138E408BFF697BB5F910000143B5F90E000143AE
S1138E50E1602B7BAA6869682046FFF799FF687D6B
S1138E60002803D0A06840F48030A060A87D0007EB
S1138E7000F0E040E97D090501F4E0010843A06544
S1138E80287E022801D0032815D13548844201D117
S1138E9000200BE03448844201D1012006E033482D
S1138EA0844201D1022001E04FF0FF300221314A17
S1138EB04001115014E02A48844201D100200BE003
S1138EC02948844201D1012006E02848844201D186
S1138ED0022001E04FF0FF300221274A40011150E7
S1138EE0287E012801D0032802D10420B06503E0C4
S1138EF0042042F25C0160502878606170BD012159
S1138F0041F20402815040F6AA614161002181606E
S1138F10C16541F20501C16000210161C161C16403
S1138F2042F204010144154A4A64002282650C4A53
S1138F30904205D00C4B984202D00C4B984201D180
S1138F4000230365904205D0074A904202D0074AA5
S1138F50904201D100224265012008607047000060
S1138F60008005408481034000C0054000000640A5
S1138F70F8FF7F00ACD50340ACE50340FFFF0100E0
S1138F8081690906FCD5406AC0B2704782695206FD
S1138F90FCD5C1637047FEE77047704700207047F7
S1138FA00020704710B5134600240A4601460448C1
S1138FB000F009F9002800D10124204610BD00006A
S1138FC0414C00007047FEE7002A02D000F58050B3
S1138FD001E000F50050012202FA01F1016070473E
S1138FE000F580500160704700F500500160704743
S1138FF038B504461546FFF7F7FF29462046BDE875
S11390003440EDE7414908607047012202FA01F15A
S11390103F4A00EB400302EB031001617047012259
S113902002FA01F13B4A00EB400302EB0310016139
S11390307047F8B50C4616461F46082E08D2B100F4
S113904088400246032000FA01F13348FFF7D0FFBD
S1139050082E0AD2B10004F003048C4022460320F7
S113906000FA01F12D48FFF7C3FF079C069D3A461D
S113907031462B48FFF7A8FF2A4631462948FFF717
S1139080A3FF0120B040FFF7BDFF2246314626482A
S1139090BDE8F84098E7F8B505460E4617461C4665
S11390A0380007D0002C284602D0FFF7B8FF01E0B3
S11390B0FFF7ABFF1D48294601EB410200EB02100C
S11390C039460F22082E09D2B300D0F804C09A40C2
S11390D02CEA02029940114341600AE03346083BFE
S11390E09B00D0F80CC09A402CEA0202994011432C
S11390F0C160002F09D1002C3146284602D0BDE8BA
S1139100F4408CE7BDE8F4407FE7F1BD20E4034080
S113911000E0034000D0034000C4034008C40340FF
S113912010C4034014C4034024C4034000C00340DB
S113913070B4134610440EE0372409E00E4606F0DE
S11391400F060909451E284634460A2CF4DA302451
S1139150A4192C705B1E1C46E4B2002CEED1104402
S113916070BC704770B40023002908D0002806D5CD
S11391702D2111700123B0F1004F00D04042002195
S11391800C4613E0401B761C9B4D55F82450A84216
S1139190F8D23546EDB2002D01D10D0005D03036A0
S11391A01946C9B256545B1C0121641C092C01DA0E
S11391B00026E9E730301946C9B250545B1C184602
S11391C0C0B270BC70472DE9F04F95B00446894693
S11391D015461E4603AF4FF0000AD04626E04FF076
S11391E001086D1E11E007460FE03428F7D156F848
S11391F004BB04225946090C3846FFF799FF0422A0
S1139200594689B2FFF794FF074613A887420CD347
S113921003A83F1A3A46D2B203A94846A0470028F9
S113922040F0E580FFB2BA4403AF6D1C28780028F3
S113923000F0D0800146252905D04146002902D1FD
S113924007F8010BE1E74046002802D04FF0000880
S113925000E06D1C2878010000F0BC80253918D08E
S11392600B39092940F29F80283900F093800A398C
S113927013D0491E4DD0491E70D008396ED0091F35
S11392804CD0C91E4AD0891E68D0C91E00F0828005
S1139290BBE7252007F8010BB7E756F8043B56F85F
S11392A0042B00213846029301920F4601998F4204
S11392B099D202220299C95DFFF73AFF0DF14C0BD6
S11392C058450ED303A9401A8DF800009DF80020DC
S11392D04846A047002840F08A809DF80000824458
S11392E003A80199491E8F4202D2202100F8011BD4
S11392F058450CD303A9401A83465A46D2B248466D
S1139300A047002873D15FFA8BFBDA4403A87F1CC3
S1139310CCE756F8040B07F8010B76E756F804BBC4
S113932003A83F1A3A46D2B203A94846A0470028E8
S11393305DD1FFB2BA4403AF0022594600E0521C8B
S113934093465FFA8BFB11F80B000028F7D1D2B2D9
S11393504846A04700284AD1DA4456E76C280DD184
S113936056F8040B6A78752A01D0012100E0002127
S1139370752A01D0642A08D16D1C06E0752856F8B8
S1139380040B01D1002100E001213A46FFF7EAFE77
S113939007443AE756F8041B0222C9B23846FFF7DD
S11393A0C7FE074631E74FF001086978782902D0F3
S11393B058297FF42AAF6D1C4FF0000832287FF43F
S11393C014AF56F8041B042289B23846FFF7B0FEE6
S11393D007461AE703A83F1A3A46D2B203A94846F9
S11393E0A047002803D1BA445046C0B200E0002090
S11393F015B0BDE8F08F0000388403000CB480B5CC
S113940002AA00F003F802BC5DF80CFB80B5FFF77C
S1139410C9FDC0B202BDEFF31180302181F3118880
S1139420704780F311887047DFF8040600680178FC
S1139430022902D190F82000704703207047DFF81A
S1139440F00500680078012800D0704710B5DFF8F7
S1139450E445E068002805D120694188008891FB33
S1139460F0F0E0600520FCF784FE002808D10FF23C
S11394707112206901880520BDE81040FCF74CBE3C
S113948010BD0000F8B50546DFF8A445216808784A
S1139490002800F08A802A46062A5DD8DFE802F018
S11394A00429333F3F525200DFF88865012809D16F
S11394B0002008723071206800F10C017161001DF8
S11394C030610DE0081D306101F10C0070613769F5
S11394D00822394606F11800FBF73AFD3879307155
S11394E07069407B002837D10120DFF84C150880D3
S11394F032E0DFF840054169496802691288B1FB2E
S1139500F2F1C16028E0DFF82C15486980680A6927
S11395101288B0FBF2F0C86000281DD109E0DFF822
S1139520140501694A88098892FBF1F1C0688842F0
S113953012D2DFF8000501694A88098892FBF1F12B
S1139540C16009E00520FCF700FE0620FCF7FDFDE4
S11395500020DFF8E014C86020680078012824D0D7
S11395602846012801D002280FD10520FCF701FE6E
S113957000281AD10FF26902DFF8B80400690188E3
S11395800520BDE8F840FCF7C7BD032801D0042D31
S11395900BD10120DFF89C1488700FF2450264217E
S11395A00520BDE8F840FCF7B7BDF1BD80B5FDF777
S11395B07BFA002811D1DFF87804006801780229C9
S11395C007D10FF21D02818B0920BDE80840FCF78A
S11395D0A3BDBDE8014005F028BA01BD00000000AC
S11395E010B5052806D0072843D0082844D00928F8
S11395F047D010BDFDF748F8002846D0DFF83444C2
S1139600A078012812D1E07802280CDAE078401C16
S1139610E0700CF007FFDFF8242464210520BDE886
S11396201040FCF779BD0020E070A070206900793B
S113963000280ED00CF0F6FEDFF800242069018823
S11396400520FCF769FDE06800281ED0401EE0609C
S113965010BDE068002818D00CF0E4FEDFF8DC232D
S1139660206901880520FCF757FDE068401EE06092
S113967010BDBDE81040ADE00020BDE810400AF088
S113968073B9BDE8104005F0D0B910BD80B50146EE
S1139690DFF8A8230820FCF73FFD0120BDE80240C5
S11396A00AF062B9DFF8880300680078401E804140
S11396B0C043C00F7047DFF87C1309690880704706
S11396C0DFF86C0300680078022800D0704710B5FA
S11396D0DFF860430120216908710520FCF749FD8A
S11396E0002808D1DFF85423206901880520BDE84B
S11396F01040FCF711BD10BDDFF838030179006993
S1139700017170470CF08EBE38B50C46DFF820139B
S113971009680978022923D1010001D0FFF7CBFFA2
S1139720DFF8105320000BD04FF47A7044432869BB
S11397300088B4FBF0F0E860032801D20320E8605D
S1139740E86800280CD00520FCF713FD002807D199
S1139750BA4A286901880520BDE83840FCF7DCBC1A
S113976031BD80B5B64800680AF0AFF8002801D0D2
S1139770012002BDB34800680AF0A7F8002801D010
S1139780012002BD0520FCF7F4FC002801D00120D3
S113979002BD0920FCF7EDFC002801D0012002BD28
S11397A00720FCF7F2FC4EF66021884201D201202A
S11397B002BDFCF730FDA4494968401A44F6206113
S11397C088428041C00F02BD80B5FCF724FD9E494C
S11397D0486001BD38B50024964D6869017B2A783C
S11397E08A420DD30168002903D0944A0720FCF76C
S11397F093FC21460846FDF799FE2046287031BDAA
S11398006878012803D1491E8A4200DB8F4CFFF798
S1139810DBFFA022214601200DF036F92878401CF8
S11398202870864A82480068C18B0720BDE838400A
S1139830FCF772BC11B581B0FFF7C6FF9DF80400B8
S1139840002806D0312804D0402822D0662807D02A
S113985040E078480021C1807B4A917301813CE05B
S1139860744C2189491C21812069C088024689B22F
S113987091420AD2FEF700FBE068401CE0606F4AA8
S11398801E210520FCF748FC00E0208100F0E6F8EA
S113989023E0684800210181C188491CC180006916
S11398A0C08889B2814218D30120674988730EF0B9
S11398B081FA624C224601460720FCF72DFC0EF08B
S11398C079FA224600F59850883001460520FCF7C5
S11398D023FC02E000205749088101A90220FEF779
S11398E0DCFE13BD80B502F015FE032806D15148F5
S11398F00078002802D1BDE801406BE701BD4D4866
S11399004069807B002800D0ECE770474848006835
S11399100078002800D1704780B502F0FBFD0028D4
S113992010D04548007880070CD50120464988733B
S1139930002040490870414A01460720BDE808401C
S1139940FCF7EABB01BD3A4800680078002800D162
S1139950704780B502F0DEFD02280FD10720FCF726
S1139960F4FB344800210170374A9173334A00698B
S113997001880520BDE80840FCF7CEBB03280ED1C2
S11399800720FCF7F6FB002804D12C4A0A21072003
S1139990FCF7C2FB0520BDE80240FCF7D6BB01BDC5
S11399A080B5234800680078002801D1002002BD5A
S11399B02548807B002803D0FFF7A1FF402002BD8B
S11399C00320FFF75FFD002002BD80B5194808227F
S11399D001691830FBF7BCFAFA20FFF76CFEBDE80A
S11399E001406DE61348082200F118010069FBF7F5
S11399F0AFBA1FE7174800680078042800D0704702
S1139A0080B501F0D6FB14490A68904201D3821A4A
S1139A1003E04FF0FF339A1A82180D4B1B689342F0
S1139A2004D20860BDE80140FEF739BF01BD000063
S1139A3074720020B0AE00202C680020E195000074
S1139A40787200207C7200204C72002000F8FF071E
S1139A50EC620020D4B80020ACAE00207047704700
S1139A60010007D4012200F01F018A402449400963
S1139A7041F820207047010007D4012200F01F01A3
S1139A808A402049400941F8202070471E49086057
S1139A9070471E49486809680840704790FAA0F06A
S1139AA0B0FA80F0704780B51920FFF7E4FF192061
S1139AB0FFF7D6FF1A20FFF7DEFF1A20BDE80240A9
S1139AC0CEE738B504460D46FFF7A5FC104941F82A
S1139AD02450BDE83240FFF7A4BC10B504460CE0A6
S1139AE02046FFF7DBFF012181408C43084951F8F0
S1139AF020100A0001D0C0B28847002CF0D110BD5C
S1139B0000E100E080E200E020E4034020C40340E0
S1139B10ECAE002010B5FFF7BCFF044645F25550EB
S1139B2004402046FFF7B2FF2046BDE81040D4E7CA
S1139B3010B5FFF7AEFF04464AF6AA2004402046BB
S1139B40FFF7A4FF2046BDE81040C6E730B4014645
S1139B500246521000EB92729210A0EB820080B287
S1139B60002803D0091D0A460146511ADFF89C2B30
S1139B70138818460C46A4B2241841F60105AC42D9
S1139B8005DA1044001DC918118030BC7047FEE787
S1139B9080B500208DF8000001237F22252168462E
S1139BA001F022FC9DF80000401E8041C00F02BD60
S1139BB080B501208DF8000003466A467F212520E8
S1139BC001F04CFC01BD38B500240AE001237F22DA
S1139BD004F1270189B2DFF8700B204401F004FC82
S1139BE0641C102CF2DB00240CE002237F2204F11D
S1139BF0370189B2DFF8500B00EB4400103001F05C
S1139C00F3FB641C102CF0DB00240CE004237F2203
S1139C1004F1470189B2DFF8300B00EB84003030E7
S1139C2001F0E2FB641C102CF0DB00240EE00623A0
S1139C307F2204F1570189B2DFF80C0B04EB4405D1
S1139C4000EB4500703001F0CFFB641C082CEEDB08
S1139C5031BD2DE9FE4F00263746B0463446254631
S1139C60A14600F07EFCFFF7AEFF2046019003E022
S1139C700198401CC0B201900198DFF8D01A09780D
S1139C80884280F2038100208DF8000004E09DF8F2
S1139C900000401C8DF80000DFF8B40A00680830AA
S1139CA00199090140589DF8001002799142DFD2D0
S1139CB0006801EB810200EB8201002002918246E0
S1139CC026E0062922DC4946C9B208291ED2DFF85B
S1139CD0781A4B46DBB203EB430C01EB4C017031B9
S1139CE0FBF736F909F1010910E04946C9B2082920
S1139CF00CD2DFF8541A4B46DBB203EB430C01EBF6
S1139D004C017031FBF724F909F101090AF1010A48
S1139D105046C0B2029909898842B8D20298406874
S1139D205146C9B201EB410200EB820B9BF80400DF
S1139D308107EBD4800613D502980188BBF8000094
S1139D4000EB014000F01BFC0028DFD0DFF8040A20
S1139D500068394689B208449BF80310CF1908E01B
S1139D60DFF8F4090068314689B208449BF803100F
S1139D708E199BF804100906C8D59BF803201146D8
S1139D8002293DDA4146C9B2102909D2DFF8B819CF
S1139D904346DBB21944FBF7DBF808F10108B5E7E9
S1139DA02146C9B210290AD2DFF89C192346DBB236
S1139DB001EB43011031FBF7CBF8641CA6E72946FD
S1139DC0C9B210290AD2DFF880192B46DBB201EBA5
S1139DD083013031FBF7BCF86D1C97E74946C9B2E3
S1139DE0082993D2DFF860194B46DBB203EB430C2E
S1139DF001EB4C017031FBF7ABF809F1010985E780
S1139E00032930DA2146C9B210290AD2DFF83819F9
S1139E102346DBB201EB43011031FBF799F8641CD4
S1139E2074E72946C9B210290AD2DFF81C192B4657
S1139E30DBB201EB83013031FBF78AF86D1C65E777
