S0320000626F6F746C6F616465722D73746F726167652D696E7465726E616C2D73696E676C655F4D4732315F3736382E733337E2
S1130000801000203D2400006F020000151600003F
S113001087090000931500009B15000000000000F4
S11300200000000000000000A00000001316000003
S113003027180000D4000000D3190000C71A0000DC
S1130040800000000000000000000000000000002C
S1130050000000000000000000000000000000009C
S1130060000000000000000000000000000000008C
S1130070000000000000000000000000000000007C
S11300804546523332000000010000000200000027
S11300900000050000C0040000C0090000A0010029
S11300A007B0CD5E010000000400080164240000D4
S11300B00040000000000C00F7000100A51C000037
S11300C0A91C000085060000271500005915000032
S11300D01401000013B779FAC925DDB7ADF3CFE0F9
S11300E0F1B614B801010000000000006024000013
S11300F040000000040008010000000000000000AF
S113010000000000000000000000000000000000EB
S1130110000000000001000071020000C70200009E
S1130120F50200001303000059030000530200000D
S1130130390200006902000079030000A1030000F5
S1130140FD030000910900009B090000B9090000AB
S1130150ED090000024870470248704702487047A2
S11301604CE30B006CE30B00C0E30B0038B500BF9D
S11301702FA3D3E90045E2B00221CDE9004568464A
S113018000F05AF800284FD100245DF8243013F110
S1130190010F46D04FF4C07202A9184600F0ECF8E3
S11301A0002102A800F0FCF840F201218842F7D0B7
S11301B040F20322904232D19DF8080000F003007F
S11301C002282CD09DF8080041070BD50C9800F0AC
S11301D005FB38B15E9800F077F918B100F0CEFB5A
S11301E000F02CFB9DF8080081070FD52820026839
S11301F0039993688B4209D25E9800F079F970B143
S113020000F0BCFB0B9900F0B1FA08E09DF808007F
S1130210C10704D505995E9800F08CF930B940F215
S11302200540641C012CB0D963B030BD0020FBE74D
S1130230FFFFFFFF000000000022026001224FF0D8
S1130240FF3302E040F82230521C8A42FAD30020E5
S113025070470068002818BF10F1010F02D040F267
S1130260045070470020704740F202507047FEE788
S113027010B504000CD04FF4803020600021616080
S11302803C48027822724068E06000F07DFB206107
S113029010BD78B504460D4604F5B876A1B0B16832
S11302A03068802301AA00F025F80095802301AA74
S11302B0214604F12C0000F03FFDF060B06880306E
S11302C0B06022B070BD024640F20140002900D166
S11302D0704710B5274B5C68A24203D300220A6022
S11302E04A6010BD03EBC20082680A60C0684860BF
S11302F0002010BD38B500F021F800D326E000F04E
S113030017F800D225E09B68C018BDE8384000F01B
S113031044BB38B500F012F800D317E000F008F839
S113032000D216E09B68C018BDE8384000F044BB1A
S113033003EBC403DC681518AC4270470446084656
S113034011461A460B4B5D68AC42704740F20140BF
S113035032BD40F2024032BD06494A68904202D39F
S113036040F20140704701EBC000C168806800F0B2
S11303703DBB0000880000003EB504460D46114612
S1130380284601F0D0F850B969462046FFF79BFF94
S113039028B905F5B87004600199416000203EBD9C
S11303A038B584B004460D466846102101F0F2F8D1
S11303B0029504F5BA75A86888B9686829688842FE
S11303C00DD269462046FFF764FFA86800281CBFC9
S11303D041F2070188420BD140F2012008E0A078E5
S11303E000281DBFE078002840F2032040F20220DC
S11303F005B030BD0120187070470000F0B585B01D
S113040004460D46164600278DF800700DF10400D1
S113041052A100F084F8CDF804D037601C2128469E
S113042001F0B8F804F5BA779DF8000080B994F8A3
S1130430720013280CD0B86850B9786839688842BB
S113044006D201A92046FFF724FFEDE705B0F0BD71
S11304502078810744BF606830602178C80705D5DB
S11304601C2204F10801284601F098F89DF80010B8
S1130470002905BF20780028002040F20640E5E767
S113048070B504460D46202304F5827204F1BC01C4
S113049004F12C0000F015FC04F5BA76B06850B9EC
S11304A070683168884206D229462046FFF7F1FE7B
S11304B0F4E7002070BDA07800281CBFE078002875
S11304C0F7D0012070BD000080B5E4B000F02AF838
S11304D008B1002009E004208DF811004FEA0D0056
S11304E022A100F01CF800F021F865B000BD000066
S11304F010B5E4B0282213689C688C4202D200F044
S113050011F808B1002008E002208DF811006846B7
S11305101AA100F004F800F009F864B010BD10222C
S113052001F03CB84FF4C07204A925E7694604A859
S1130530A6E7000080B5E4B0FFF7F4FF08B100209F
S113054009E001208DF811004FEA0D000FA1FFF71B
S1130550E6FFFFF7EBFF65B000BD00000000000000
S1130560F5030000F5030000F5030000000000009F
S11305700000000000000000190600000000000058
S11305800000000000000000190600000000000048
S1130590FD0500000000000000000000F8B504465E
S11305A0600B0D461646B4EB403004BF204601F004
S11305B005F804F500577F0B7F0304E0384600F08C
S11305C0FDFF07F5005730198742F7D33246294615
S11305D02046BDE8F84000F0FFBF38B504460D469C
S11305E000F038F838B16069012801D0002032BD2C
S11305F0A069286000E02C60012032BD38B52823B2
S11306001B681C69A04222BF5B691518AB4202D368
S1130610BDE83840C2E731BDF8B504460D4616467C
S113062000F0ACF92718F0199949884210D24CB956
S113063000F0A4F9282109684A6990423CBF08697E
S113064000F0BCFF324629463846BDE8F840A5E72D
S1130650F1BD00007FB504464FEA0D0094A11022BD
S113066000F09CFF002046420DEB0605E97B225C6E
S1130670914205D1401C1028F5D3012004B070BD6F
S11306800020FBE758B504462268824B606802F1FB
S11306906042616B9A422BD2282213681A699042F5
S11306A026D37B4B984223D240320E46914201D34B
S11306B0994205D301F06AF8401E8041C00F52BD33
S11306C001F064F8B0B93046FFF7C4FF00281CBF3E
S11306D07069002812D002280CD1B0694FF0FF32A3
S11306E0001D011B204601F07BF86B49884205D0B0
S11306F0002052BD2046BDE8524001E0012052BD19
S113070030B504469DB0606B01A9FFF766FF50B396
S113071028210A6801981369984228BFA04203D38C
S113072001465B48814201D300201CE002A801F08D
S11307306BF801982146021B02A801F06FF802A889
S113074001F06EF8019CFFF707FD0546FFF702FD77
S11307500199203403460095224602A801F064F86A
S1130760401E8041C00F1DB030BD000070B590B078
S113077004460D464FF0FF3201F032F8464B9842E2
S113078013D168464EA100F055F800F08DF82946C3
S113079000F08BF8684601F0FDF8404E3068C00266
S11307A0FCD5306910F4702F02D0002010B070BD59
S11307B040F2022001F00EF90DF1200048A100F0F2
S11307C039F800F06DF8294600F06BF808A801F03C
S11307D0E1F83068C002FCD53169E6E72DE9F84359
S11307E08CB004464FF0FF35009504A844A100F0F6
S11307F021F800BF4AA696E8800301AD01A985E867
S11308008003CDF804D004A801F0B0F804A801F0E6
S1130810C1F822480168C902FCD5006910F4702FA0
S113082018BF002003D10098A0428041C00F0DB032
S1130830BDE8F083202200F0B1BE000038B590B0CE
S11308400446684639A1FFF7F5FF00F02DF8684625
S113085001F0A0F8114D2868C002FCD5286910F4F5
S1130860702F11D140F2022001F0B4F80DF12000F4
S113087036A1FFF7DFFF00F013F808A801F08AF8AB
S11308802868C002FCD52969002011B030BD0000E1
S11308900100100001800100E320BBDE4400004C95
S11308A0214608A801F06CB82146684601F068B8F2
S11308B0B814B6F1E0CFF3ADB7DD25C9FA79B713B3
S11308C001000543000000000000000000000000DB
S11308D00000000000000000000000000000000014
S11308E001000643000000000000000000000000BA
S11308F000000000000000000000000000000000F4
S11309000000084300000000000000000000000098
S113091000000000000000000000000000000000D3
S11309200000000001000000040000200000024359
S113093000000000000000000000000000000000B3
S1130940000000000000000000000000000003435D
S11309500000000000000000000000000000000093
S113096000000000000000000000000001207047AB
S11309700120704728200168086970474FF400403F
S1130980704701207047FEE72BA070470020704796
S11309902648006800F00100704710B50B46111896
S11309A0234CA14205D20146184600F0F7FD002071
S11309B010BD40F2024010BD38B513181C4D40F272
S11309C00244AB4210D2002300E01B1D934206D226
S11309D01D5815F1010FF8D040F2034032BD00F06C
S11309E0FBFD08B1002032BD204632BD70B505467E
S11309F00C46E00401D1E90402D040F2044070BD89
S1130A0060190B4940F20246884209D2284600F098
S1130A10D5FD05F50055B4F5005403D00028F5D1F3
S1130A20304670BD0028FBD0002070BD1C00034080
S1130A3001000C00002070470102030028000000A0
S1130A40280000000020000000000C0080000000CE
S1130A50040000002DE9F8431E467368002B4ED0B5
S1130A600C4614F0030118BF41F2020048D11546A8
S1130A700746FFF77FFF396E001D6A18824221D3B3
S1130A8000F1180399421DD28C46844505EB0108F8
S1130A9000F1180238BF84469045ACEB0101ACEB81
S1130AA0000088BF904604EB0109A8EB0C08384409
S1130AB042464946683000F071FDFF2241464846EF
S1130AC000F0C2FFFFF75AFF396E001D884222BFB3
S1130AD06A18031D9A4209D3411A6018026807F183
S1130AE080010A60FF22042100F0AEFF2146336832
S1130AF0386E74682A46A047386E2D183D6600206B
S1130B00BDE8F28370B54B688C689C4206D200F154
S1130B1040021B1B14781B19412B01D3002070BD0C
S1130B200D6853781478E4188B6804F03F04EE5C85
S1130B3006558C68641C8C6013785B1C13708C687D
S1130B404B689C42ECD3012070BD90F840004A6889
S1130B5089681018401A70472DE9F0410C46174671
S1130B601D468046FFF7F1FF08F14006A84206D271
S1130B7021464046FFF7C6FF10B300204DE0002198
S1130B800CE0707818F800207A5473783078491C97
S1130B905B1C03F03F03421E73703270307808B15F
S1130BA0A942EED3A0686268904238BFA9420CD231
S1130BB02368185C7854A268491C521CA260F1E7AF
S1130BC01420B07141F2020027E0A942F8D1B26CBE
S1130BD0069C2946384600F003FEB06424B1F06850
S1130BE02A46394600F01AFE079838B1F07878B1F1
S1130BF0B0682B463A46394600F052FFF07838B1D7
S1130C00B169F06928188842F06124BF0020F070AF
S1130C1070692D18756141F20300BDE8F081F8B5E3
S1130C2084B014460026054601960096082302AABD
S1130C30FFF792FF41F20306B0423BD195F843001F
S1130C4005F1480738B100F037F83868082302AADC
S1130C5002A900F025FF9DF80A209DF80B009DF8DD
S1130C600910120442EA00629DF8080042EA0122D7
S1130C70024322609DF80E009DF80F1000F049FC1D
S1130C809DF80D1040EA01209DF80C1008436060A7
S1130C9095F8430048B9DFF824188A421CBFDFF8EE
S1130CA02008824201D000F007F860680021F96052
S1130CB0B860304605B0F0BD7868082202A900F09B
S1130CC0ADBDF8B5064606F1400700200D46B871E3
S1130CD07870F870387100214FF0FF301446397085
S1130CE0797103F02003B86439627962BB70FF2222
S1130CF0182106F1680000F0A7FEFF22042106F186
S1130D00800000F0A1FEFF22042106F1840000F01F
S1130D109BFEBD60FC60FFF72BFE00B11DB1FFF729
S1130D2025FE18B114B941F20B00F2BD14B1F868F4
S1130D3000F06AFD0020F2BD2DE9FB4F8246002140
S1130D40002300249AB005A880E81A0005921C9A92
S1130D50269D099106920AF148060AF1420710E01D
S1130D6000F0C6FB0899884235D104980021F1604F
S1130D70B0600398DFF84C17884240F03F810222AC
S1130D803A7107981C99884280F0DD8241F203028F
S1130D90089239790DF128081429F2D8DFE811F006
S1130DA016001700D7022E0169036B03F1025001EC
S1130DB06B034B016B0316036B034B012E02D00232
S1130DC06E03A402A702DF01D002DAE7C8E700F04D
S1130DD08FFB0899884240F0B782B87820B1039815
S1130DE0DFF8DC16884246E03A78D1074DD57878AA
S1130DF000284AD10398DFF8CC1688421CBFDFF8DC
S1130E00C816884225D0DFF8C41688421FBFDFF811
S1130E10C0168842DFF8BC1688421AD0DFF8B8162C
S1130E20884222D0DFF8941688426BD0DFF8AC16E3
S1130E30884213D0DFF8A81688420DD0DFF8801658
S1130E40884215D0DFF89C1688421CBFDFF898163C
S1130E50884200F0D38010E0102291E7112038710D
S1130E60B1680020706131618BE7142139716CE045
S1130E70FFF77CFD002843D13EE01420387103A81D
S1130E8000F01DFE002860D005E30398DFF8381653
S1130E9088421CD0DFF8341688421DD0DFF83016A3
S1130EA0884216D0DFF82C16884218D0DFF80C16CA
S1130EB0884223D0DFF80816884216D0DFF82416BB
S1130EC0884210D0DFF8201688420AD01CE00B229A
S1130ED056E70420387154E70621397151E7072099
S1130EE0F8E70921F9E70D20F4E7FFF73FFD0028B3
S1130EF004BF7878002803D10E21EEE77878002823
S1130F0040F07C801221E8E703A800F0D8FDA8B1E6
S1130F100398132170643971039800F0D2FD09908D
S1130F2038788106DAD5099800281CBF4168002961
S1130F30D4D0504688470028D0D0ACE27878142129
S1130F40397110B141F20400FEE141F20800FBE105
S1130F5098F8050098F8041041EA00210291C907A5
S1130F6004D5387840F00100387002E0FFF700FD46
S1130F7040B9FFF7FBFC002800F0EB810298C105A3
S1130F8000F1E7811420387141F20A00DCE1F978BC
S1130F900520387141F00101F9700020F061F0681A
S1130FA0082880F0748201210191009100F0B5FAC3
S1130FB008998842EAD1207840F00200207098F81D
S1130FC0020098F803109DF8282000F0A2FA98F87F
S1130FD0011040EA012010436060B0680838606284
S1130FE098F8060098F8071098F8042000F091FA91
S1130FF098F8051040EA01201043C8D01420387135
S113100049E2012000F07DFA08998842BED198F89F
S1131010021098F803009DF82820090441EA0061B1
S113102098F8010041EA002111430291B0680528B3
S113103024BF0298B061F0680428E2D30A214CE787
S11310400020F061082148E72B6842460AA9F069AC
S1131050E047F0694044F061B068F168814280F093
S11310601382A0EB0108B8F1040F05A9504608D378
S1131070FFF76BFD042808D205A95046FFF742FD8F
S113108061E1FFF762FD4045F6D3B8F1410F05A9D0
S1131090504628BF4FF04008FFF757FD404502D2A5
S11310A000F02BFA8046B8F1040F0AAA05A924BF60
S11310B04FEA98004FEA80080120019000904346CF
S11310C000F024FA0899884240F03E8138790828D3
S11310D004D1D5F808C0BCF1000FB5D1C8F1040B98
S11310E0B8F1040F06D20AA8FF225946404400F082
S11310F0ABFCD84439790A2906D12B4642460AA9C1
S11311005046FFF7A7FCA7E7052918D199F8010075
S1131110820714D5E86890B1F069052818D208EB65
S11311200001072914D30AA9091D081A01680AF144
S113113084021160FF22042100F086FC08E00C29DF
S11311408AD199F80100410786D5E868002883D040
S11311502B6842460AA9F069D5F80CC078E73978BB
S1131160880640F19681706C00F0ABFC0990002871
S113117040F08F818FE14FF0010900F0BEF948453E
S113118082D3B068F168A0EB0109B9F1410F05A958
S1131190504628BF4FF04009FFF7D7FC814502D3E2
S11311A000F0ABF981460120019000904B4600F01D
S11311B0ABF9089988422FD1387881060DD5002CD7
S11311C01CBFD4F808C0BCF1000FD3D02B464A464C
S11311D00AA95046E04700281ED1F068B168884249
S11311E080F05C8138788106C5D5002C1CBF21694C
S11311F00029C0D0504688478146BEE7002000F051
S113120080F90899884207D1306CB849884204D0E3
S113121014223A7141F2050096E0FFF7A7FB18B9D2
S11312201B990120C87003E01B99C87800283FD09F
S1131230F87810F0030F1CBFEC68002C05D02B6865
S113124004220AF184010420A047B06900281CBFCD
S1131250686800282CD04FF0FF3102910AF1800415
S11312600422214602A800F02FFC40B1FFF786FBC0
S113127028B121462B686C680422001DA047042273
S11312800AF1680102A800F01FFC88B1FFF772FBA5
S11312902B686C6814220AF16C010830A047FFF730
S11312A069FB2B686C6804220AF16801001DA047E1
S11312B01B99012088700F20387144E0002001211F
S11312C001900091102300F01FF9089988423BD146
S11312D0FEF744FF009080210191306801230BAA9E
S11312E0022100F0BAFBCBE00120787026E0B87848
S11312F020BB002101910090402300F005F90899DA
S1131300884221D1706800F08BFAFEF725FF04466D
S1131310FEF720FF00940346706812AA0AA900F0A1
S113132083FA38B11B990020C8701420387141F237
S1131330060009E01B990120C870B8700121CCE5B2
S113134041F2070000E000201DB0BDE8F08FDDF899
S11313506C90F068082819D20021012001910090B6
S113136000F0DBF808998842EED198F803000006F3
S1131370B0F1407F3FF4ECAD1420387141F2090024
S1131380E2E7DDF86C90B368F06898427CD2012102
S11313900191009100F0B8F808998842D4D11C2238
S11313A00AA909F1080000F0F9F899F8000040F0E2
S11313B0010089F8000009F10800FFF7E2FA0028AB
S11313C0E1D11420387141F20C00BDE71B9CF06898
S11313D008285CD201210191009108230CAA00F095
S11313E094F808998842AFD1207840F00400207026
S11313F098F80E0098F80F1098F80C2000F089F86F
S113140098F80D1040EA01201043A062607841076B
S11314102CD5EB208DF82800A620172188F802008F
S113142088F801100AF150005E2188F80310026860
S11314300AF184010A600022F261F87840F00200A7
S1131440F870D5F80CC0BCF1000F0FD02B68042243
S11314500AA90020E047F0692B68D5F80CC00822DF
S11314600CA90830E047F0691030F0610C203871A5
S1131470ADE71B9C93E5DDF86C90EDE5DDF86C9031
S1131480F0681028FFF41AAFCDF86C9056E71B945F
S113149077E4099CA1E641F2010055E70994387804
S11314A08106F3D5002C1CBFE268002A04D029462B
S11314B0504690470028F0D140E70000F70A0AF7A9
S11314C0FC0404FCEB17A603EB17A65EF40A0AF46B
S11314D0F50909F5F60808F6F70909F7F90707F910
S11314E0FA0606FAFD0303FDFE0101FEE320BBDE5E
S11314F003AA05A95046FFF792BB05A95046FFF77A
S113150024BB0190009004230AAA05A95046FFF7C2
S113151023BB000440EA0160704708230AAA05A916
S11315205046FFF719BB10B50446B1F5C07F02D28F
S113153040F2052010BD4FF4C07100F02BF80020DC
S1131540607004F5827204F1BC0104F12C000023E4
S1131550BDE81040FFF7B5BB1CB504460091214619
S113156004F12C00FFF7E8FB0028C4F87C011CBF41
S113157041F2070188420BD1A07838B1E07810B16C
S113158040F2032016BD40F2022016BD40F20120B5
S113159016BDFEE7002200F0A7BAFEE74AB100003C
S11315A011F8013B521E00F8013B1CBF11F8013B2E
S11315B0F8E7704700F0F6BA00F0FCBA10B504463C
S11315C0FFF7F8FF204600F000FB0446FFF7F4FFA6
S11315D0601E8041C00F10BD70B50546144615F05D
S11315E0030F0E4608BF14F0030F01D0002070BD96
S11315F00CB9012070BDFFF7DDFF224631462846B5
S113160000F003FB0446FFF7D7FF601E8041C00FC4
S113161070BDFEE74FF4017000F0E8B938B594B03E
S11316200DF130005AA12022FFF7B8FF0DF1100090
S11316305FA12022FFF7B2FF4FEA0D0064A1102240
S1131640FFF7ACFFFEF786FD0446FEF785FD054671
S1131650FEF784FD10226946FFF7AEF920220CA99B
S11316602046FFF7A9F9202204A92846FFF7A4F988
S113167015B030BD80B5684600F006FB3F48816A6E
S1131680CA0311D441686FF3162141F4B81141F42F
S113169005414160016821F4704141F44041016019
S11316A0026842F4E06202609DF80100012804BF70
S11316B09DF80000002807D14FF0005106200A6869
S11316C001F58041401EFAD100F0ECFA00F089F9EE
S11316D0FFF7A4FFFEF74AFD48B940F2012000F0ED
S11316E085F94FF4017000F081F9002002BD24490E
S11316F001E00099491E009100990129F9DA40F2AC
S113170005429042EDD140F20320ECE71D4838B584
S11317100168012401254A060CD500F081F940F244
S11317200221401A04D0C01E02D0C01E012801D8D4
S11317300024002544F20400016811F1010F06D1D0
S11317404FF40270BDE8324000F044B931BD2DB110
S11317504FF48040FEF796FF0400F1D0002CF5D042
S11317604FF480400849086002461046016881F33E
S1131770088881F3098840688746FEE730C0004046
S113178000350C009440004008ED00E00120704753
S11317902C819E47FB9D42A13C2826F7C22F566808
S11317A07B2F31E49684EDB49B2E17D966DE02AE0E
S11317B0A210FC3C5AFB3FE0444AFD116CA3C4DA7E
S11317C0FDAD156D1D8ED9B37D585F5C9D17BBA310
S11317D003D29876BCD7F03E64C375734975EBDCCD
S11317E030B5084B01241C6000255D60DA609C6004
S11317F002E010F8014BDC610A46511E002AF8D1C0
S1131800186A30BD0480084010B5044600F00AFB95
S113181020460021BDE8104000F037BB00F036BB85
S1131820014600F034BBFEE72DE9F84706000D46FB
S113183097B014461F4618BF002D00D014B940F2CB
S113184001604FE00DF13C002CA12022FFF7A6FE21
S113185026490FA800F094F820210FA800F090F872
S11318602EA191E80C400CA880E80C402EA00C9707
S113187090E80007209909AF87E8000709910CA9AF
S113188000F038F809A900F035F800BF29A191E863
S11318908C0006A806A980E88C00069600F02AF8B9
S11318A027A191E84C0003A828A780E84C000395E1
S11318B097E800436D4603A985E80043009400F0CF
S11318C019F8694600F016F80FA800F063F8084804
S11318D00168C902FCD5006910F4702F0CBF002008
S11318E040F2046018B0BDE8F08700001F240080B7
S11318F04400004C0FA800F02FB8000000000106BF
S113190000000000000000000000000000000000D3
S113191000000000000000000000000000000000C3
S11319200100000020000020000000000100000071
S11319302000002000000000010000002000002022
S11319400000000001000000200000200000000052
S11319500100000020000020426812B94160704775
S1131960526850680128FBD151607047826812B9EF
S113197081607047526850680128FBD151607047FC
S1131980C269042A05D200EB8202D160C169491CF4
S1131990C1617047C169042900D9704710B54FF07F
S11319A098410A6CD302FAD5C269121D92000A65E5
S11319B002680A6043680B6082680A60002204E0DF
S11319C000EB8203DC68521C0C60C3699A42F7D3B3
S11319D010BDFEE74FF0005108804FF20F00488021
S11319E070474CF23C300B49088070474FF000516F
S11319F008804FF20F004880BFF34F8F06490A68F2
S1131A00064802F4E06202430A60BFF34F8F00BF4E
S1131A10FDE70000020000200CED00E00400FA05E0
S1131A204FF0005148884FF20F02904201D10888CC
S1131A307047002804BF0888012802D140F2022020
S1131A4070474FF4007070474018491C1CBFB1F137
S1131A50010100F8012DF9D170472DE9F8438046C2
S1131A600E4691461C46089D099F00F041FA2946FE
S1131A703A46404600F042FA08F124000021016091
S1131A8006750C22494608F13900FFF787FD08F175
S1131A904500210C220A017042708470BDE8F18374
S1131AA03EB51C460292019100F12805009500F113
S1131AB0380300F12402214600F0B2FA37BD0020B9
S1131AC0704700207047FEE703000020521E22BF2B
S1131AD013F8010B11F801CBB0EB0C00F6D0521C3B
S1131AE008BF10467047000000B500BF13009646BB
S1131AF09446103928BFA0E80C50FAD85FEA417C1C
S1131B0028BF0CC048BF40F8042BC90728BF20F8E1
S1131B10022B48BF00F8012B00BD000010B5524A4B
S1131B20524C534B1B68234207D103408B420DD0C8
S1131B30521EF6D16FF0020010BD4E48034202D08F
S1131B406FF0010010BD4FF0FF3010BD002010BD3C
S1131B5070B5494D6860E8680E46410702D54FF0FC
S1131B60FF3070BD56F8040B141F02E056F8040B46
S1131B70241FA86044B108210820FFF7CFFF01000B
S1131B80F4D00421296070BD0420286000212120A4
S1131B90FFF7C4FF010004D100212120BDE87040FB
S1131BA0BCE770BD41F67130344908600122344B02
S1131BB01A60704710B5314841F671310160012255
S1131BC02F4B1A600024046010BD70B541F67131CA
S1131BD0294C01222B4BE568E1621A606060022601
S1131BE02660002121202D0CFFF798FF05F0010548
S1131BF0010003D100212120FFF790FF0121204A99
S1131C0011600DB10021E16270BD2DE9F843184F58
S1131C103D688946144641F6713180462D0C39627F
S1131C200122184B002005F001051A6002E0B044BF
S1131C30B144A41B7CB108F50056760B7603A6EBE1
S1131C400806B4424946404638BF26463246FFF7A6
S1131C507FFF0100EBD00121094A11600DB1002181
S1131C603962BDE8F2830000809698000600010006
S1131C701C00034002000100100003403C0003402C
S1131C800C2003400C100340054909688A0902F03E
S1131C903F0201F03F0382704370090B01707047EB
S1131CA014C00740FEF772BEFEF7C4BE2DE9F84F1C
S1131CB0834602281FD8140055D00B9A9846D2F8B0
S1131CC000C0BCF13F0F18D85068002818BF5FEA65
S1131CD0080A13D1BBF1000F04D0BBF1020F07D0E7
S1131CE003D308E00FF2A81A08E00FF2C41A05E0C3
S1131CF00FF2DC1A02E0494836E0C2460CF03F0617
S1131D00A444C6F14005C2F800C0A44502D25068FC
S1131D10401C506089460A9F8EB1AC420FD32A46BC
S1131D20B819FFF73BFC0120009043463A46514660
S1131D30584600F08FFAC246A944641B00263F2C83
S1131D400BD9A509009543464A465146584600F02A
S1131D5081FA09EB8519A4EB851424B1224649467E
S1131D60B819FFF71BFC0020BDE8F28F2DE9F04104
S1131D70044686B0884616461D46200003D0022C31
S1131D8030D02DD330E01427002100200DF1080CB1
S1131D9055F8203042429200D21D01EBC3010CF8E9
S1131DA0021002A9114455F82020C91E52098A7054
S1131DB055F82020520B4A7055F82020520D0A7015
S1131DC055F82010401C490F0128E1D92A7802F067
S1131DD03F02382A34BFC2F13802C2F1780205E06A
S1131DE01C27D1E72027CFE70C4814E00195009683
S1131DF043460B492046FFF759FF01950096434699
S1131E00082202A92046FFF751FF0C983A464146A2
S1131E10FFF7C4FB002006B0BDE8F08180AFFFFFF0
S1131E204000000000281CBF6C21FFF7B3BB7047C3
S1131E300022002902624262CCBF0121002180F805
S1131E406810002070473EB5034693F8680003F11C
S1131E50200403F1280500280194009514BF0120F3
S1131E600220FFF723FF3EBD1CB590F868200091C7
S1131E7000F12003002A00F12802014614BF0124C6
S1131E8002242046FFF772FF16BDD1E7DBE7EBE73C
S1131E9067452301EFCDAB8998BADCFE1032547646
S1131EA0C3D2E1F0000000000000000000000000C8
S1131EB0C1059ED8367CD5073070DD17F70E593929
S1131EC0FFC00B316858151164F98FA7BEFA4FA4EF
S1131ED06A09E667BB67AE853C6EF372A54FF53AB7
S1131EE0510E527F9B05688C1F83D9AB5BE0CD19E3
S1131EF000281CBF2421FFF74DBB704770B50500B7
S1131F000C46164618BF002C02D16FF0210070BD9C
S1131F102421FFF73FFB802E1CBFC02EB6F5807F27
S1131F2002D06FF01F0070BD2E60F2082146281DFC
S1131F30FFF734FB002070BD2DE9F8470600144676
S1131F4091B00F461D4618BF002C00D015B96FF094
S1131F50210055E03068802818BFC02805D0B0F5AE
S1131F60807F18BF6FF01F004AD109A82021FFF716
S1131F7011FB012F0FF25C2191E88C000CBFDFF8FC
S1131F804802DFF848020990684680E88C00301D5A
S1131F90009030680FF2482206A9C00840F00050B3
S1131FA0029092E8884009A881E888400FF23C2119
S1131FB0069491E8000703AC694684E8000703959A
S1131FC0FFF7CAFC06A909A8FFF7C6FC03A909A8DC
S1131FD0FFF7CCFC316809A800F01EF8102109A80D
S1131FE0FFF7CEFC00F0DAF950B909A8FFF7D2FCEC
S1131FF000F009F804F47024002C0CBF00202046E3
S113200012B0BDE8F087DFF8C8010168C902FCD549
S1132010046900F0CFB911A8C908FFF7B1BC0000EA
S1132020002A2DE9F64F99B014BF14680024002645
S1132030002800904FF0000A1FBFDDF89480B8F12B
S1132040000FDDF89890B9F1000F04D01D001CBFFB
S1132050249F002F02D16FF0210096E000680191C7
S113206080281CBFC028B0F5807F04D06FF01F000B
S11320708BE000F08DF80198824580F07F80002C81
S1132080F7D1A0EB0A005FEA101B5DD062A611A88D
S113209059A12022FFF782FA96E80E0008A84FEA19
S11320A00B1B80E80E000099081D089000990BA8EE
S11320B00A680EA9D20842F000520A9259A292E884
S11320C0484081E848400E9559A191E84C000DF133
S11320D0140E80E84C000B9558A090E80E0008EB15
S11320E00A008EE80E0005904BF00051079100BFE6
S11320F055A393E8414002AA09EB0A0382E8414050
S113210000F056F80EA900F056F805A900F053F8AF
S113211000F04AF80BA900F048F800980168FFF7AE
S11321207AFF594611A8FFF72BFC00F037F9002875
S11321302BD111A8FFF72EFC00F040F8066900F03F
S113214039F9DA4406F47026F6B90198B0EB0A00BE
S113215091D084B900983B462A460121FFF7ECFE52
S1132160002041422944CA7B521CCA73D2B212B91C
S1132170401C0F28F5D900F00BF8E6E71A9800B1D7
S113218004600EB9002000E030461BB0BDE8F08FBB
S113219018F80A10385D641C04F00F04414009F873
S11321A00A100AF1010A704702A911A8FFF7DEBB61
S11321B00293049108A911A8FFF7CEBB0448016853
S11321C0C902FCD5704700000001000400010104AD
S11321D04400004C0000000001000000000000006A
S11321E000000000010000001000002000000000BA
S11321F001000000100000200303000400000000A0
S113220000000000000000000000000000000000CA
S113221000000000000000000000000001000000B9
S11322200000000000000000010000001000002079
S11322300000000001000000100000200000000069
S11322400100000000000000000000000100000088
S1132250000000002DE9F84791B006460D4691466E
S11322601F461A9C0DF124003BA12022FFF796F98A
S113227041A393E807000DF1180A03AB8AE80700AD
S1132280CDF818903FA090E8004600BF40A26946F0
S113229083E80046039592E8280181E82801009725
S11322A01EB1022E33D021D336E00998A10140F4A7
S11322B00070099009A8FFF763FB00F047F840F0AD
S11322C014000590029840F01400029003A909A894
S11322D0FFF742FB06A909A8FFF73EFB694609A8D8
S11322E0FFF744FB00F05AF8C0B126E00998A101B9
S11322F040F44070099009A8FFF742FB00F026F86B
S113230040F020000590029840F02000DDE7099895
S1132310A10140F48060EDE709480EE009A8FFF749
S113232039FB08480168C902FCD5046900F042F889
S113233014F4702F0CBF0020034812B0BDE8F087DE
S113234080AFFFFF4400004C80ADFFFF089840EAD7
S113235084140894059870470000010300000000ED
S11323600000000000000000000000000000000069
S11323700000000000000000000000000100000058
S11323800000002000000000010000000000002008
S11323900000000001000000000000200448016863
S11323A0CA0502D06FF01D0070470020704700007E
S11323B004ED00E000207047044805490860054822
S11323C0026842F4700202607047000000000000DE
S11323D008ED00E088ED00E04EF68851CEF20001F1
S11323E0086840F470000860BFF34F8FBFF36F8F2D
S11323F04FF00070E1EE100A7047000000F00DF895
S1132400002801D0AFF30080AFF300800020AFF3C9
S11324100080FFF72FF900F002F80120704700F068
S113242001B800000746384600F002F8FBE7000058
S11324302021090326311820ABBEF9E780B5FFF748
S1132440BBFFFFF763F9BDE8014000F000B8AFF34C
S11324500080FFF7C1FFFFF7D1FF0000000000007C
S903244F89
